:020000040800F2
:10000000C0100020290200081F1C0008EF1900087A
:100010001D1C0008BB04000851200008000000005F
:10002000000000000000000000000000231C000889
:10003000BD04000800000000211C0008251C000869
:10004000430200084302000843020008430200087C
:10005000430200084302000843020008430200086C
:10006000430200084302000843020008430200085C
:10007000430200084302000843020008430200084C
:10008000430200084302000843020008430200083C
:10009000430200084302000843020008430200082C
:1000A000430200084302000843020008430200081C
:1000B000430200084302000843020008430200080C
:1000C00043020008430200084302000843020008FC
:1000D00043020008452000084302000843020008CC
:1000E00043020008430200084302000843020008DC
:1000F00043020008430200084302000843020008CC
:1001000043020008430200084302000843020008BB
:1001100043020008430200084302000843020008AB
:10012000430200084302000843020008430200089B
:10013000430200084302000843020008430200088B
:10014000430200084302000843020008430200087B
:10015000430200084302000843020008430200086B
:10016000430200084302000843020008430200085B
:100170004302000843020008430200080000000098
:10018000430200084302000800F002F800F03CF8C7
:100190000AA090E8000C82448344AAF10107DA45E2
:1001A00001D100F031F8AFF2090EBAE80F0013F0F8
:1001B000010F18BFFB1A43F001031847501F00003E
:1001C000701F0000103A24BF78C878C1FAD85207CF
:1001D00024BF30C830C144BF04680C6070470000C1
:1001E0000023002400250026103A28BF78C1FBD840
:1001F000520728BF30C148BF0B6070471FB501F0E0
:1002000073FF1FBD10B510BD00F00AF91146FFF7CE
:10021000F5FF01F039FF00F03CF903B4FFF7F2FFFE
:1002200003BC00F043F90000094880470948004733
:10023000FEE7FEE7FEE7FEE7FEE7FEE7FEE7FEE796
:10024000FEE7FEE704480549054A064B70470000F3
:10025000CD1C000889010008C0000020C01000204B
:10026000C0080020C008002053EA020C00F069809A
:100270002DE9F04B4FF00006002B1FBFB3FA83F5BA
:1002800003FA05F424FA05F65E4012BF1643B2FAEB
:1002900082F502FA05F4C5F120051EBF22FA05FC1D
:1002A00044EA0C04203556EA044C4FEA144418BFC3
:1002B000641C4FF000084FF00009904271EB030CF2
:1002C00039D3002919BFB1FA81F701FA07F6B0FA5C
:1002D00080F700FA07F6C7F120071EBF20FA07FCD7
:1002E00046EA0C062037B6FBF4FCA7EB0507103FE7
:1002F00007F01F0BCBF120060CFA0BFB2CFA06F6CD
:1003000044BFB3460026202FA4BF5E464FF0000B2B
:100310005BEA060C08BF4FF0010B19EB0B09ABFBB6
:10032000027C48EB0608C01B06FB02CC0BFB03CC8F
:1003300071EB0C01C1E70B46024641464846BDE859
:10034000F08B13B54FF000004FF00001AFF30080C9
:10035000BDE81C40704700000FB4044910B503AA63
:10036000029800F02FF810BC5DF814FB100000207C
:100370004FF0000200B5134694469646203922BF3E
:10038000A0E80C50A0E80C50B1F12001BFF4F7AF89
:10039000090728BFA0E80C5048BF0CC05DF804EB6B
:1003A000890028BF40F8042B08BF704748BF20F8D9
:1003B000022B11F0804F18BF00F8012B70477047D7
:1003C00070477047074B70B50D467B4400F011F83D
:1003D0000446284600F020F810B14FF0FF3070BD01
:1003E000204670BDA71C000001694A1C0261087804
:1003F000704700B58FB0CDE9013100210591054965
:100400007944CDE903101146684600F02EF80FB08C
:1004100000BD0000E5FFFFFF007B00F0800070479B
:10042000754600F03FF8AE4605006946534620F099
:100430000700854618B020B5FFF704FFBDE820404F
:100440004FF000064FF000074FF000084FF0000B90
:1004500021F00701AC46ACE8C009ACE8C009ACE843
:10046000C009ACE8C0098D4670472DE9F041064649
:100470000024D6E90170F5688046304603E0414625
:10048000B847641C3046A8470028F8D12046BDE88C
:10049000F08110B50446AFF300802046BDE810405F
:1004A000FFF7BBBE004870476000002001491820DC
:1004B000ABBEFEE7260002007047FEE7704772B64B
:1004C000FEE72DE9F0410446876D00F04BFA064641
:1004D00094F835000025022806D08020606584F855
:1004E00034500120BDE8F0812068016821F0160138
:1004F00001602068416921F080014161206C08B9E8
:10050000A06C20B12068016821F00801016020681A
:10051000016821F0010101600CE000F023FA801B6A
:10052000052807D920206065032084F8350084F869
:100530003450D7E720680068C007EED194F85C100B
:100540003F208840B860012084F8350084F834509A
:100550000020C7E790F83510022903D080214165BB
:1005600001207047052180F835100068016821F0EE
:10057000010101600020704770B5044600F0F2F9F7
:100580000546601C02D004480078044400F0EAF9F3
:10059000401BA042FAD370BD000000202DE9F84FA7
:1005A000DFF888B20D46044658451BD0A048844267
:1005B00018D0A048844215D09F48844212D09F484A
:1005C00084420FD09E4884420CD09E48844209D079
:1005D0009D48844206D09D48844203D0AC219CA013
:1005E00001F047FD28680104090C01D0000C03D07C
:1005F000AD2197A001F03DFD6868F8B101281DD03C
:1006000011281BD0022819D0122817D0B0F5881F46
:1006100014D0B0F5041F11D0B0F5441F0ED0B0F5C2
:10062000901F0BD0B0F5081F08D0B0F5481F05D0BB
:10063000032803D0AE2186A001F01BFD00264FF059
:10064000010A4FF0030900BF0AFA06F02F6880463E
:10065000074047457ED1287900F00300012801D0EA
:1006600002281DD1E86848B1012807D0022805D02A
:10067000032803D0C02176A001F0FBFCA168720022
:1006800009FA02F08143E86890400843A06060687E
:10069000297920EA0800C1F30011B14001436160EB
:1006A0002879C043800712D0A86838B1012805D046
:1006B000022803D0D12166A001F0DBFCE1687200C2
:1006C00009FA02F08143A86890400843E060287965
:1006D00000F0030002282ED12869F8B109281DD0A6
:1006E00001281BD0022819D0032817D0042815D0C0
:1006F000052813D0062811D007280FD008280DD0C0
:100700000A280BD00B2809D00C2807D00D2805D0BB
:100710000F2803D0DE214EA001F0ABFCF00804EB63
:100720008002106A7107CB0E0F2199408843296916
:100730009940014311622068720009FA02F188436E
:10074000297901F00301914001432160686810F4A8
:10075000403F00E063E062D04C48016841F48041D2
:100760000160006826F0030100F4804000904848D2
:100770000A18D2F80808B1070B0F0F2199408843D7
:100780005C4501D1002123E029498C4201D101219E
:100790001EE028498C4201D1022119E026498C42F1
:1007A00001D1032114E025498C4201D104210FE03D
:1007B00023498C4201D105210AE022498C4201D112
:1007C000062105E020498C4201D1072100E00821E3
:1007D00099400143C2F808182E4908686A68B8436E
:1007E000D20200D5384308602A49091D08686A68A2
:1007F000B843920200D5384308602649091F0868AB
:100800006A68B843920300D5384308602149083923
:1008100008686A68B843D20300D538430860761C7C
:10082000102EFFF411AFBDE8F88F00000000024069
:100830000004024000080240000C02400010024088
:100840000014024000180240001C02400020024038
:100850002E2E2F447269766572732F53544D3332A6
:10086000463478785F48414C5F4472697665722FF0
:100870005372632F73746D3332663478785F6861B6
:100880006C5F6770696F2E6300000000443802409F
:1008900000300140083C014070B50C00054604D111
:1008A0004FF4DB7105A001F0E4FB696924EA010063
:1008B000214040EA0140A86170BD00002E2E2F4467
:1008C0007269766572732F53544D3332463478789B
:1008D0005F48414C5F4472697665722F5372632F93
:1008E00073746D3332663478785F68616C5F6770FB
:1008F000696F2E630000000070B515460C000646B7
:1009000004D140F29D1108A001F0B3FB45B1012DC7
:1009100004D04FF4CF7104A001F0ABFBB46170BD03
:100920002004B06170BD00002E2E2F4472697665E0
:1009300072732F53544D3332463478785F48414CAC
:100940005F4472697665722F5372632F73746D33CF
:1009500032663478785F68616C5F6770696F2E63A8
:10096000000000000148806870470000000000207F
:1009700002488168027811448160704700000020BD
:100980000B4810B5016841F400710160016841F441
:1009900080610160016841F480710160032000F012
:1009A000C3F80F2000F006F800F024F8002010BD76
:1009B000003C024070B50D4D04464FF47A71287822
:1009C000B1FBF0F00A490968B1FBF0F000F064FDFA
:1009D00048B9102C07D200222146501E00F054F8CE
:1009E00000206C6070BD012070BD00000000002080
:1009F0000C0000200A4808B5016841F480410160FC
:100A0000006800F4804000900548001F016841F034
:100A100080510160006800F08050009008BD000027
:100A20004438024010B5040003D5BC2107A001F0F2
:100A300020FB002C09DB04F01F0101208840610924
:100A4000890001F1E021C1F8000110BD2E2E2F44D4
:100A50007269766572732F53544D33324634787809
:100A60005F48414C5F4472697665722F5372632F01
:100A700073746D3332663478785F68616C5F636F6E
:100A8000727465782E63000070B515460C460646F4
:100A9000102A03D3A82114A001F0EBFA102C03D3E1
:100AA000A92111A001F0E5FA1E480068C0F3022355
:100AB000C3F107022046042A00D90422191D072980
:100AC00001D2002300E0DB1E012404FA02F1491EDA
:100AD000014099409C40641E2C4021433046BDE8B3
:100AE000704001F0B6BA00002E2E2F447269766570
:100AF00072732F53544D3332463478785F48414CEB
:100B00005F4472697665722F5372632F73746D330D
:100B100032663478785F68616C5F636F7274657891
:100B20002E6300000CED00E010B5044607280BD042
:100B3000062C09D0052C07D0042C05D0032C03D09B
:100B4000902108A001F095FA154904F00702086801
:100B50004FF6FF03184040EA0220124A1043086093
:100B600010BD00002E2E2F447269766572732F53CC
:100B7000544D3332463478785F48414C5F44726953
:100B80007665722F5372632F73746D3332663478C7
:100B9000785F68616C5F636F727465782E630000C4
:100BA0000CED00E00000FA052DE9F0470E460400C8
:100BB0007DD02068401E0E2804D940F25A217AA028
:100BC00001F057FA96B1012E10D0022E0ED0032E4E
:100BD0000CD0042E0AD0052E08D0062E06D0072EE3
:100BE00004D040F25B2170A001F043FADFF8F081FD
:100BF000D8F80000F7B200F00700B04207D288F83A
:100C00000070D8F8000000F00700B0424FD1206813
:100C1000744D810729D5400703D5286840F4E0507A
:100C200028602078000703D5286840F460402860D9
:100C3000A068A0B1802812D0902810D0A0280ED093
:100C4000B0280CD0C0280AD0D02808D0E02806D080
:100C5000F02804D040F27E2153A001F00AFA28685F
:100C6000A16820F0F000084328602078C00743D036
:100C7000DFF870916068A9F1080988B1012822D0D5
:100C8000022824D0032822D040F2852146A001F07A
:100C9000F0F96068012816D0022818D0032816D071
:100CA000D9F800008007002833DA286800E030E037
:100CB000616820F0030008432860FFF753FE814677
:100CC00041F2883A11E0D9F800008003EBE7D9F847
:100CD00000008001E7E700BFFFF744FEA0EB090139
:100CE000514502D90320BDE8F0872868616800F00B
:100CF0000C00B0EB810FEFD1D8F80010404601F0A6
:100D00000701B14207D90770006800F00700B04240
:100D100001D00120E7E720784FF4805640074FF4D8
:100D2000A0574FF4C0584FF4E05914D5E06860B1B3
:100D3000B0420AD0B84208D0404506D0484504D059
:100D400040F2C32118A001F094F92868E16820F46A
:100D5000E050084328602078000715D5206960B16D
:100D6000B0420AD0B84208D0404506D0484504D029
:100D700040F2CA210CA001F07CF92868216920F416
:100D8000604040EAC100286000F054F82968164A23
:100D9000C1F30311515CC84014490860144800684D
:100DA000FFF708FE00209EE72E2E2F44726976651D
:100DB00072732F53544D3332463478785F48414C28
:100DC0005F4472697665722F5372632F73746D334B
:100DD00032663478785F68616C5F7263632E63009B
:100DE000003C024008380240F22000080C000020BD
:100DF000040000200448054900680968044AC1F35A
:100E00008221515CC84070470C0000200838024025
:100E1000022100080448054900680968044AC1F332
:100E20004231515CC84070470C0000200838024035
:100E300002210008154810B5006810F00C02144893
:100E400013D04110042A0FD0082A0ED10F4C241FB2
:100E50002268236802F03F025B0207D52068C0F3D6
:100E60008810A0FB010106E0084610BD2168C1F30F
:100E70008811A1FB00010023FFF7F6F92168C1F3F7
:100E80000141491C4900B0FBF1F010BD0838024097
:100E90000024F4002DE9F04F87B015460C460700FA
:100EA00006D0012F04D040F20B3140A001F0E1F850
:100EB00085B1B5F1806F0DD0B5F1A06F0AD0B5F155
:100EC000C06F07D0B5F1E06F04D04FF4437137A085
:100ED00001F0CFF8DFF80CB1DFF8088100264FF001
:100EE00002094FF0030AABF1280B87B36CB1B4F1E0
:100EF000804F0AD0B4F1004F07D0B4F1404F04D076
:100F00004FF44A7129A001F0B4F8D8F8000040F07D
:100F10000400C8F80000D8F80000694600F004009A
:100F200005904FF400700090CDE90196CDE903A63D
:100F30002D48FFF733FBDBF80010584621F07841CD
:100F400044EAC5021143016007B0BDE8F08FFFE736
:100F50006CB1B4F5001F0AD0B4F5800F07D0B4F51A
:100F6000C00F04D04FF4447110A001F082F8D8F8FB
:100F7000000040F00100C8F80000D8F80000694601
:100F800000F0010005904FF480700090CDE90196CB
:100F9000CDE903A61548FFF701FBDBF80010584622
:100FA00021F0EC612C432143CDE700002E2E2F448D
:100FB0007269766572732F53544D333246347878A4
:100FC0005F48414C5F4472697665722F5372632F9C
:100FD00073746D3332663478785F68616C5F726306
:100FE000632E6300303802400008024000000240D7
:100FF0002DE9F84F04007DD020680F2803D9E621A1
:10100000F7A001F036F82078DFF80C94C007A9F1BA
:10101000040555D060684FF480364FF4A02738B1EE
:10102000B04205D0B84203D0EB21EDA001F021F889
:10103000F948001D0168C1F38101012908D0006849
:10104000C0F3810002280AD1D9F80000400206D579
:101050002868800334D560680028CCD030E0606810
:10106000B04203D1286840F480300CE0B8422868D0
:1010700003D140F480202860F4E720F48030286019
:10108000286820F480202860606860B1FFF76AFC5F
:10109000064604E0FFF766FC801B64287ED82868BB
:1010A0008003F7D50CE0FFF75DFC064605E000BFC6
:1010B000FFF758FC801B6428F0D828688003F7D419
:1010C0002078DFF8588380074FF0000A56D5E06893
:1010D00030B1012804D040F21D11C1A000F0C9FFB9
:1010E00020691F2804D94FF48F71BDA000F0C1FF03
:1010F000C94800E092E0001D016811F00C0F08D013
:101100000068C0F38100022810D1D9F80000400225
:101110000CD42868800702D5E06801287ED12868B1
:10112000216920F0F80040EAC10017E0E068B8B19A
:101130000120C8F80000FFF715FC064605E000BFD7
:10114000FFF710FC801B0228A8D828688007F7D575
:10115000286820F0F801206941EAC00028600DE00D
:10116000C8F800A0FFF7FEFB064604E0FFF7FAFB15
:10117000801B022892D828688007F7D420780007BF
:101180002ED5A54EA64F60697036D0B1012808D083
:101190004FF4AF7192A000F06CFF00E04BE160698A
:1011A00078B101203860FFF7DDFB074605E000BF9E
:1011B000FFF7D8FBC01B0228C6D830688007F7D5D8
:1011C0000EE0C7F800A0FFF7CDFB074605E000BF23
:1011D000FFF7C8FBC01B0228B6D830688007F7D4D9
:1011E0002078400776D5A068002740B1012806D0B6
:1011F000052804D04FF4C57179A000F03AFFDFF85C
:1012000018B20BF13C0BDBF80000C0000DD4DBF88A
:10121000001041F08051CBF8001000E038E1DBF81D
:101220000000012700F0805000907E4E3068C0051D
:1012300011D4306840F480703060FFF793FB009069
:1012400006E000BFFFF78EFB0099401A022891D8F4
:101250003068C005F6D5704EA0686C3601280FD0F6
:101260000528306810D020F001003060306820F090
:1012700004003060A068B8B1FFF774FB00900FE085
:10128000306840F00100F4E740F004003060F7E718
:10129000FFF768FB0099411A41F2883081428BD8F0
:1012A00030688007F4D50EE0FFF75CFB009007E0A4
:1012B000FFF758FB0099411A41F2883081428BD8E0
:1012C00030688007F4D42FB1DBF8001021F0805192
:1012D000CBF80010A069002876D0012809D0022898
:1012E00007D040F2CD113EA000F0C3FEA069002857
:1012F000F2D04948001D0068C0F381000228A069AF
:101300006DD0022805D0C8F860A0FFF72BFB04467B
:1013100094E0E06938B1B0F5800F04D04FF4EB7180
:101320002FA000F0A6FE206A801E3D2804D940F2BE
:10133000D7112BA000F09DFE606A3238B0F5BF7F58
:1013400004D94FF4EC7126A000F093FEA06A0228A5
:101350000AD0042808D0062806D0082804D040F275
:10136000D9111FA000F085FEE06A801E0D2804D967
:101370004FF4ED711AA000F07CFE4746C8F860A05B
:10138000FFF7F0FA064604E0FFF7ECFA801B0228AC
:1013900051D828688001F7D4D4E907010843A16A2D
:1013A000214A490802EB0141626A41EA821108437D
:1013B00094F82C1040EA0161C9F800100120386649
:1013C000FFF7D0FA044606E064E000BFFFF7CAFA70
:1013D000001B02282FD828688001F7D55AE031E099
:1013E0002E2E2F447269766572732F53544D33320B
:1013F000463478785F48414C5F4472697665722F55
:101400005372632F73746D3332663478785F68611A
:101410006C5F7263632E6300043802400000474231
:10142000800E4742007000400000FFFFFFF79AFA6D
:10143000001B022802D90320BDE8F88F286880012C
:10144000F4D427E00128F7D0D9F80000E26900F4CD
:10145000800191421CD1226A00F03F01914217D1D4
:1014600047F6C071626A0140B1EB821F10D1A26AD7
:101470004FF0FF3300F4403103EB5202B1EB024F67
:1014800006D194F82C1000F07060B0EB016F01D021
:101490000120D1E70020CFE710B5401EB0F1807FDA
:1014A00001D3012010BD4FF0E02460610F216017CF
:1014B00000F0CFFD0020A06107202061002010BDBA
:1014C00070477047F8B5016804460868CA684B69F8
:1014D00010F00F0F4FF0000559D003F0010602F491
:1014E0009077374365D0C10705D0D10503D5616C2E
:1014F00041F001016164410705D5D90703D0616C52
:1015000041F002016164810705D5D90703D0616C00
:1015100041F004016164010707D502F02001314365
:1015200003D0616C41F008016164616C00293AD01C
:10153000800604D5900602D5204600F0FEFB206808
:101540004069616CC0F38010090700D460B3204685
:1015500000F0CCFB20684069400621D5206814309B
:1015600050E8001F21F0400140E80012002AF5D1A8
:10157000E06BA8B16E490165E06BFEF7EBFF002858
:1015800011D0E06B016D01B0BDE8F0400847830663
:101590000FD593060DD52046BDE8F84000F0CDBB31
:1015A0002046FFF78EFFF8BD2046FFF78AFF6564EF
:1015B000F8BD266B2023012E7DD1C6067BD5D6062D
:1015C00079D508684868009048694FF002064006DF
:1015D00041D5E16B086840680004000CE8D0A28D9A
:1015E0008242E5D9E085C869B0F5807F2DD02068BA
:1015F0000C3050E8001F21F4807140E80012002AEE
:10160000F5D12068143050E8001F21F0010140E8B6
:101610000012002AF5D12068143050E8001F21F094
:10162000400140E80012002AF5D184F842302563D9
:1016300020680C3050E8001F21F0100140E8001233
:10164000002AF5D1E06BFEF73CFF6663A08DE18DCB
:10165000401A81B22AE0A08DE18D401A81B2E08D5E
:101660000028A5D00029A3D022680C3252E8000F30
:1016700020F4907042E80007002FF5D12068143064
:1016800050E8002F22F0010240E80027002FF5D19A
:1016900084F84230256320680C3050E8002F22F097
:1016A000100240E80023002BF5D166632046FFF7C7
:1016B00007FFF8BDFFE705062BD5150629D594F8D9
:1016C00041002128F5D1A068B0F5805F01D12069E3
:1016D000B0B1206A411C2162216800784860E08C2A
:1016E000401E0004000CE084E3D12068C16821F0B2
:1016F0008001C1602068C16841F04001C160D8E745
:10170000206A0088C0F308004860206A801C2062BC
:10171000E5E74006CDD55006CBD5CA68204622F075
:101720004002CA6084F8413000F060F9C1E700006F
:10173000DD1C000870B5040023D0A0693B490028D7
:101740003B4A3C4B3C4D20681DD088420CD0904217
:101750000AD0984208D0A84206D040F2731137A0B0
:1017600000F087FCA06908B3A069B0F5807F1DD0A8
:10177000B0F5007F1AD0B0F5407F17D04FF4BA71A2
:1017800011E0012070BD884210D090420ED09842E6
:101790000CD03949884209D03849884206D0A8423D
:1017A00004D04FF4BC7125A000F063FCA06838B1F0
:1017B000B0F5805F04D04FF4BD7120A000F059FC5B
:1017C000E06938B1B0F5004F04D040F27B111BA0A6
:1017D00000F04FFC94F84100002520B984F84050F7
:1017E000204600F04DF8242084F841002068C168AC
:1017F00021F40051C160204600F000FB206801691F
:1018000021F4904101612068416921F02A01416180
:101810002068C16841F40051C1606564202084F8EB
:10182000410084F842006563002070BD0010014053
:101830000044004000480040001401402E2E2F4478
:101840007269766572732F53544D3332463478780B
:101850005F48414C5F4472697665722F5372632F03
:1018600073746D3332663478785F68616C5F75616C
:1018700072742E6300000000004C004000500040D5
:1018800010B586B0044614216846FEF771FD18496C
:101890002068884229D117480021026842F01002CE
:1018A0000260006800F010000590124814380268C9
:1018B00042F001020260006800F0010005904FF460
:1018C000C06000900220CDE90101032003900720B1
:1018D000049069460848FEF761FE00221146252063
:1018E000FFF7D2F82520FFF79DF806B010BD0000E5
:1018F00000100140443802400000024090F842309D
:10190000202B01D00220704721B11AB100230363BC
:1019100000F044BB0120704710B5006808498842B8
:101920000CD1012207490848FFF7E8FF6423BDE80E
:10193000104001220349044800F008B810BD00001F
:101940000010014014000020180000202DE9F84389
:10195000044690F84100984616460D46202802D0CD
:101960000220BDE8F88385B17EB1002060642120AB
:1019700084F84100FEF7F6FFA6848146E684A0685D
:101980002027B0F5805F02D003E00120E9E720695D
:1019900010B12E4600250EE000260CE080212046E6
:1019A00000F017FBA8B9C6B116F8010B2168486012
:1019B000E08C401EE084E08C4B464FF00002CDF8F6
:1019C00000800028EAD14FF04001204600F001FBE2
:1019D00040B184F841700320C3E735F8020BC0F32F
:1019E0000800E3E784F841700020BAE77047FEE79B
:1019F0002DE9F04F87B014216846FEF7B9FC734813
:101A00000024016841F010010160016801F010013B
:101A10000591016841F004010160016801F00401D1
:101A20000591016841F080010160016801F08001C9
:101A30000591016841F001010160016801F00101B7
:101A40000591016841F002010160016801F00201A5
:101A50000591016841F0080101600068012200F071
:101A60000800059007215A48FEF746FF4FF68C7094
:101A70000325CDE90005DFF85C8169460294404604
:101A8000FEF78CFD732000900226CDE901640D273E
:101A9000CDE9034769464046FEF780FD4EF2380027
:101AA000CDE90005694602944948FEF777FD072015
:101AB00000900120CDE90204019069464448FEF7F8
:101AC0006DFD48F2AF00CDE90005DFF80C916946E5
:101AD00002944846FEF762FD50200090CDE9016473
:101AE000CDE9034769464846FEF758FD40F63F40BA
:101AF000CDE90005694602943848FEF74FFD4FF4E2
:101B00007040CDE9000602940520CDE903506946F6
:101B10003248FEF743FD4FF6FB70CDE90005DFF8D4
:101B2000C0B0694602945846FEF738FD4FF0C00831
:101B3000CDF80080CDE90164CDE90347694624482A
:101B4000FEF72CFD4FF4F850CDE9000602AA4FF045
:101B50000C0A82E8300469461D48FEF71FFDF001BB
:101B60000090CDE901640394694648460494FEF769
:101B700015FDE802CDE9000602940A20CDE90350E4
:101B800069464846FEF70AFD02AA4FF0040982E8BA
:101B90003004CDE9009669465846FEF7FFFCCDF8C3
:101BA0000080CDE90164CDE9034769460B48FEF7A3
:101BB000F5FC2802009001AA122082E83102694651
:101BC0000648FEF7EBFC07B0BDE8F08F3038024066
:101BD00000080240001002400000024000040240E1
:101BE000000C02400C4810B50A4901604FF4E13185
:101BF0004160002181600C22C160C0E90412816152
:101C0000C161FFF797FD002803D0BDE81040FEF743
:101C100056BC10BD0010014018000020FEE7FEE792
:101C200070477047FEF7A4BE30B593B030216846C8
:101C3000FEF79EFB14210CA8FEF79AFB2148002515
:101C4000016841F080510160006800F080501190FF
:101C50001D48016841F4804101600068022400F4DD
:101C600080401190032000904FF4803001900120BB
:101C70000390102004908004CDE9064008AA0420B7
:101C8000A82182E813000B906846FFF7B1F908B16C
:101C900072B6FEE70CA90F2081E831004FF4A05086
:101CA0000F904FF48050109005210CA8FEF77CFF98
:101CB00008B172B6FEE7002211461046FFF7EAF8B7
:101CC00013B030BD40380240007000400248016847
:101CD00041F470010160704788ED00E010B5806B41
:101CE0000021C185C184FFF7ECFB10BD01680C31F8
:101CF00051E8002F22F4907241E80023002BF5D127
:101D00000168143151E8002F22F0010241E800235C
:101D1000002BF5D1016B012909D101680C3151E883
:101D2000002F22F0100241E80023002BF5D12021E2
:101D300080F8421000210163704708B590F8421006
:101D4000222901D0022008BD82684FF480539A42B4
:101D500001D1016921B1816A9A421BD04AB10AE0DE
:101D60000268816A5268C2F308020A80816A891C8B
:101D700008E0026972B10268526802F07F020A70DC
:101D8000816A491C8162C18D491E0904090CC18503
:101D900003D01BE002685268F1E70168CA6822F0CC
:101DA0002002CA600168CA6822F48072CA600168B1
:101DB0004A6922F001024A61202180F84210002184
:101DC0004163026B012A03D0FFF7A6FD002008BD86
:101DD000016301680C3151E8002F22F0100241E844
:101DE0000023002BF5D101680A68D20602D50A68E3
:101DF00049680091818DFFF763FBE7E770B5044602
:101E000040685449884204D940F6756152A000F0F8
:101E100030F9E06838B1B0F5005F04D040F6766183
:101E20004DA000F026F9206950B1B0F5806F07D0C1
:101E3000B0F5C06F04D040F6776147A000F019F903
:101E400060694FF6F371084200D120B940F678611D
:101E500041A000F00EF920680169E26821F44051C8
:101E6000114301612169A068E26908436169114376
:101E700022680843D16849F20C6399430143D16059
:101E800020684169A26921F44071114341614149CF
:101E90002068884202D04049884202D1FEF7BAFF4A
:101EA00001E0FEF7A7FFE26900231921642532262D
:101EB000B2F5004F626828D0A0FB0101930F920099
:101EC000FEF7D2F90146B0FBF5F06FF0180250436F
:101ED00001EB800006EB0010B0FBF5F000F0F00223
:101EE000B1FBF5F002EB0012B1FBF5F06FF0180357
:101EF000584301EB800006EB0010B0FBF5F000F05A
:101F00000F0021681044886070BDA0FB0101921889
:101F10005B41FEF7A9F90146B0FBF5F00201B1FB08
:101F2000F5F06FF01803584301EB800006EBC0009A
:101F3000B0FBF5F000F0F80002EB4002B1FBF5F069
:101F4000584301EB800006EBC000B0FBF5F000F059
:101F50000700D6E7A037A0002E2E2F4472697665C1
:101F600072732F53544D3332463478785F48414C66
:101F70005F4472697665722F5372632F73746D3389
:101F800032663478785F68616C5F756172742E6355
:101F900000000000001001400014014081628285B1
:101FA000C28500214164222180F84210016921B1DB
:101FB0000168CA6842F48072CA6001684A6942F0E6
:101FC00001024A610068C16841F02001C16000203F
:101FD00070472DE9F843984617460D460446089E7B
:101FE00024E0701C22D0FEF7BDFCA0EB0800B0423C
:101FF0001AD8CEB12068C168490717D5802D15D0F1
:10200000402D13D00168C94309070FD4016800258A
:10201000406800902046FFF769FE0820606484F85D
:1020200040500120BDE8F8830320FBE720680068EA
:1020300035EA000004D00020B842D2D00020F1E7F9
:102040000120F9E70148FFF73DBA00001800002021
:10205000FEE70907090E002804DB00F1E02080F804
:102060000014704700F00F0000F1E02080F8141D0C
:102070007047704703490A685206FCD5C2B24A60ED
:102080007047000000100140FEF77AFCFFF7CCFD1E
:10209000FFF7AEFCFFF7A6FD0CA0FEF75DF90122ED
:1020A0000E490F48FFF72AFC0E4C01212046FEF78F
:1020B000F3FB02212046FEF7EFFB04212046FEF74A
:1020C000EBFBC820FEF758FAEFE7000048656C6CA0
:1020D0006F20776F726C64210D0A000014000020DD
:1020E00018000020000802404FF04070E1EE100A96
:1020F0007047000000000000000001020304060712
:102100000809000000000102030400002C2100085F
:102110000000002018000000C4010008442100084D
:1021200018000020A8100000E001000801000000D5
:1021300010000000000000000024F4000000000077
:04214000000000009B
:040000050800018965
:00000001FF
