:020000040800F2
:1000000078160010010300080D620008C5590008A9
:1000100009620008F5150008AD6D00080000000039
:10002000000000000000000000000000DF65000884
:100030002319000800000000EB630008E1650008D8
:100040001B0300081B0300081B0300081B03000818
:100050001B0300081B0300081B0300081B03000808
:100060001B0300081B0300081B0300081B030008F8
:100070001B0300081B0300081B0300081B030008E8
:100080001B0300081B0300081B0300081B030008D8
:100090001B0300081B0300081B0300081B030008C8
:1000A0001B0300081B0300081B0300081B030008B8
:1000B0001B0300081B0300081B0300081B030008A8
:1000C0001B0300081B0300081B0300081B03000898
:1000D0001B0300081B0300081B0300081B03000888
:1000E0001B0300081B0300081B0300081B03000878
:1000F0001B0300081B0300081B0300081B03000868
:100100001B0300081B0300081B0300081B03000857
:100110001B0300081B0300081B0300081B03000847
:100120001B0300080B1900081B030008171900081F
:100130001B0300081B0300081B0300081B03000827
:100140001B0300081B0300081B0300081B03000817
:100150001B0300081B0300081B0300081B03000807
:100160001B0300081B0300081B0300081B030008F7
:100170001B0300081B030008FF1800080000000014
:100180001B0300081B03000800F002F800F0A8F8A9
:1001900014A696E8000CB244B344DA4501D100F04D
:1001A0009FF8BAE80F000FA696E83000A5EB04050B
:1001B00004EB0607AAEB0704A7F101074FEA1515A0
:1001C0004FEA3414A4F10104AC4201D300F088F8E2
:1001D00013F0010F18BFFB1A43F0010300F001F800
:1001E000DBE7184788C70000B8C70000103A24BFF3
:1001F00078C878C1FAD8520724BF30C830C144BF8C
:1002000004680C6070470000704700000023002461
:1002100000250026103A28BF78C1FBD8520728BF16
:1002200030C148BF0B6070476E2900F0738370299E
:1002300000F06981662908F0A683652908F0A38388
:10024000672908F0A083612908F09F8303681B0ACF
:1002500028BF41F08001692900F02083642900F063
:100260001D83752900F01A836F2900F057847829BF
:1002700000F03581E92900F0F183E42900F0EE83F4
:10028000F52900F0EB83EF2900F05484F82900F001
:1002900034810368DB0928BF41F08001632901F044
:1002A0002F80732901F03480E32901F03F80F32986
:1002B00001F04480002070471FB508F057FB01F0A3
:1002C00097F804000020002108F03AFB401C606011
:1002D0000020002108F01EFBE0601FBD10B510BD1E
:1002E00001F058F81146FFF7E7FF07F05DF901F05C
:1002F00035F903B4FFF7F2FF03BC06F058FD000028
:100300000948804709480047FEE7FEE7FEE7FEE7A9
:10031000FEE7FEE7FEE7FEE7FEE7FEE704480549E5
:10032000054A064B704700008766000889010008EF
:100330007806001078160010780E0010780E001065
:10034000704753EA020C00F069802DE9F04B4FF042
:100350000006002B1FBFB3FA83F503FA05F424FA55
:1003600005F65E4012BF1643B2FA82F502FA05F4B2
:10037000C5F120051EBF22FA05FC44EA0C04203515
:1003800056EA044C4FEA144418BF641C4FF00008AE
:100390004FF00009904271EB030C39D3002919BFCB
:1003A000B1FA81F701FA07F6B0FA80F700FA07F61A
:1003B000C7F120071EBF20FA07FC46EA0C062037CB
:1003C000B6FBF4FCA7EB0507103F07F01F0BCBF1C2
:1003D00020062CFA06F60CFA0BFB44BFB3460026A7
:1003E000202FA4BF5E464FF0000B5BEA060C08BF4F
:1003F0004FF0010B19EB0B0948EB0608ABFB027C35
:1004000006FB02CC0BFB03CCC01B71EB0C01C1E75C
:100410000B46024641464846BDE8F08B13B50843FB
:1004200018BF4FF0FF300146AFF30080BDE81C401D
:10043000704700007CB51D4616460C00009007D0A2
:100440004142A14202D32044401E01E04FF0FF3060
:10045000064B7B442A4669460190304600F073FA09
:10046000002C02D0009A002111707CBD17050000FD
:100470000FB4044910B503AA029800F07FFA10BC2B
:100480005DF814FB48010010F0B40D460188090521
:1004900002D5214C7C4402E01F4C7C440E340021E8
:1004A00000F1240608E002F00F071209E75D42EAB6
:1004B00003721B097754491C52EA0307F3D10278EF
:1004C0000023120704D5702D06D009B10223113480
:1004D0002246F0BC00F089B901231034F8E770B56A
:1004E00004460D462146106800F04DF902462946A3
:1004F0002046BDE870400023C6E7D21D22F0070366
:10050000D3E90023C0E70368126843F020030360C7
:100510000823C3610023B7E7F68400002DE9F05FEC
:10052000894604464FF0000ADFF874B1FB44C0F876
:1005300020A02046E1688847002874D0252806D0EE
:10054000D4E901219047206A401C2062F1E700268F
:100550005F462046E16888472028054607DB312DA5
:1005600005D2781910F8200C08B10643F1E7B0075E
:1005700001D526F00406C4F81CA00027C4F818A072
:100580002A2D09D0284608F0BDF938B304EB8708B6
:10059000303DC8F8185019E059F8041B204604EB08
:1005A00087029161E1688847012F054618D1E0690B
:1005B000002820DA26F020061DE0D8F8180000EB0D
:1005C000800005EB40003038C8F818002046E1688C
:1005D0008847054608F096F90028EED1012F0AD089
:1005E0002E2D08D12046E16888477F1C0546022F42
:1005F00046F02006C4DBA069002803DA404246F03A
:100600000106A061F00701D026F010066C2D0BD07A
:10061000682D09D04C2D39D06A2D35D0742D35D0A8
:100620007A2D33D016E038E0E1682F46204688471F
:10063000B842054609D16C2F26D04FF48060E1689E
:10064000064320468847054604E06C2F1AD04FF435
:10065000807006430DB3A5F14100192802D820355A
:1006600046F400664A462946204626604E46FFF775
:10067000DBFD80B101280BD0F61D26F0070000F14C
:10068000080956E74020E4E78020D8E70020D6E7B5
:1006900006F104094DE7284652E7206ABDE8F09FBD
:1006A0008684000010B5044603E006F0AAFB401C57
:1006B00009D014F8010B05490028F6D1BDE8104017
:1006C0000A2006F09EBB4FF0FF3010BD480100101D
:1006D0004FF0000200B5134694469646203922BFDB
:1006E000A0E80C50A0E80C50B1F12001BFF4F7AF26
:1006F000090728BFA0E80C5048BF0CC05DF804EB08
:10070000890028BF40F8042B08BF704748BF20F875
:10071000022B11F0804F18BF00F8012B7047704773
:1007200070477047704770B5044685690068C10618
:1007300001D5302600E02026C00707D070BDD4E9DF
:10074000012130469047206A401C20626D1EF6D57C
:1007500070BD70B5044685690078C00707D170BDCB
:10076000D4E9012120209047206A401C20626D1EA0
:10077000F6D570BD09684A0501D540B27047C90574
:10078000FCD500B2704709684A0501D5C0B2704770
:10079000C905FCD580B2704770B50C460546012AE4
:1007A00005D02878800600D5EA69002302E00123FD
:1007B00005E05B1C934202D2E05C0028F9D1A869F5
:1007C000E618C01AA861286A184428622846FFF76C
:1007D000AAFF04E0D5E9012114F8010B9047B442C7
:1007E000F8D32846FFF7B5FF70BD2DE9F0470D4659
:1007F00099469246044600F124080168880604D50B
:10080000E06921F01001216000E00120A84201DD33
:10081000471B00E00027A1697A1902EB0900081ABA
:10082000A0612078C00602D42046FFF77CFF002696
:1008300008E0D4E901211AF806009047206A401C1C
:10084000761C20624E45F4DB2078C0060AD520468F
:10085000FFF769FF06E0D4E9012130209047206AC4
:10086000401C2062381EA7F10107F4DC07E0D4E940
:10087000012118F805009047206A401C2062281EBC
:10088000A5F10105F3DC2046FFF763FF20780006A1
:1008900002D50220BDE8F0870120FBE72DE9F041F9
:1008A0000646002410687529314616A510D0FFF7BA
:1008B00061FF002802DA404213A507E031688A0789
:1008C00001D512A502E0490704D511A5012401E0D4
:1008D000FFF759FF00210A2206F1240709E0B0FBC7
:1008E000F2FCB0FBF2F302FB1C00303078541846E7
:1008F000491C0028F3D123462A463046BDE8F04182
:10090000FFF773BF000000002D0000002B00000067
:100910002000000011680268006A530501D50870C4
:100920000AE0D30501D5088006E0130603D5C217F7
:10093000C1E9000200E008600120704701694A1C1B
:1009400002610878704700B58FB0CDE90131002110
:10095000059105497944CDE9031011466846FFF732
:10096000DDFD0FB000BD0000E5FFFFFFD1E9002372
:100970009A4202D2531C0B6010707047074B70B53F
:100980000D467B44FFF7DFFF0446284600F0DAFC03
:1009900010B14FF0FF3070BD204670BD7D64000087
:1009A0002DE9FF5F15468A460446DFF8AC80F8441F
:1009B0000027D8E900103E46CDE9001010E03AF8D3
:1009C00016106A4602A800F0C1FC411C07D021782D
:1009D000890603D5E269391891420DD80744761C7F
:1009E0002078800602D5E069B84205DDAE42E6DB3C
:1009F0003AF816000028E2D1A069C01BA061204689
:100A0000FFF791FED8E90010CDE90010002017E0B3
:100A10003AF818106A4602A800F098FCB0F1FF3FBF
:100A200081460BD000250DF1080B05E0D4E901212A
:100A30001BF8050090476D1C4D45F7D308F10100E8
:100A4000B0428046E4DB206A384420622046FFF74B
:100A500080FEBDE8FF9F0000168000002DE9F041F8
:100A60008046D21D22F007020025D2E90002F529B6
:100A700015A614D0011E72F1000106DA0023D0EB96
:100A8000030063EB020211A608E0D8F800108B0700
:100A900001D50FA602E0490701D50EA60125114692
:100AA000002408F1240704E000F04EF830323A55F3
:100AB000641C50EA0102F7D12B46324621464046DB
:100AC000BDE8F041FFF791BE000000002D000000DE
:100AD0002B0000002000000030B4002100F12404AD
:100AE00008E002F00705D208303542EA4372DB081D
:100AF0006554491C52EA0305F3D10468002310A28F
:100B0000250708D504F020040C4304D0C469012350
:100B10000CA2641EC46130BCFFF767BE10B504466A
:100B200021461068FFF72FFE02462046BDE8104020
:100B30000023D1E7D21D22F00701D1E90023CBE742
:100B4000000000003000000030B5B0F10A0271F181
:100B500000034FEA900E4EEA817EB0EB0E0061EB8F
:100B600091014FEA101E4EEA017E10EB0E0041EBA0
:100B700011114FEA102E4EEA016E10EB0E0041EB00
:100B800011214FEA104E4EEA014E10EB0E0041EBE0
:100B90001141401841F100014FEAD00040EA417094
:100BA0004FEAD1014FEA810444EA907410EB8005CA
:100BB00044EB01046D1944EB0404521BA3414FF0B4
:100BC000000348BF0A3200D530BD401C41F100018E
:100BD00030BD2DE9FF4F0C461E464FF0FF378BB05E
:100BE000D2E90001DDF860800A908A46C1F30A5517
:100BF00005B93D46002108464FF00000BAF1000F4C
:100C000000F4400005DA00EB80004FF4400101EAF7
:100C100050004FEA9059B9F1010F00DDB9460A982A
:100C200050EA4A000ED044F61050A5F2FF35454375
:100C30002F14B8F1000F1ED07542291E1EDDC9F118
:100C400000021CE0B8F1010F4FF0000001D030218C
:100C500003E0F24305E02154401CB042FBDB304688
:100C60000022002121540B99C1F80880C1E900201D
:100C70000FB0BDE8F08FBD1B6D1CDEE74A4600DA01
:100C8000694206A800F0F8FB06AB93E8070003AB47
:100C900083E8070050460A9907F054FA8DE80700E8
:100CA000A0F500501F3800900398002D0ADD42F295
:100CB0001F014A460844002303A90390684607F031
:100CC000BDFC09E0A0F500504A461F38002303A9E7
:100CD0000390684607F0C7FC8DE807000004000C8D
:100CE00003D04FF0FF30410800E01046B8F1000F8C
:100CF00003D00022009215461EE0751E05D4FFF7B2
:100D000023FF303262556D1EF9D5B34601220843E8
:100D100002D000227F1C04E02078302801D100227C
:100D20007F1E002A099784D01DE0112D07DAFFF7F6
:100D30000BFF303262556D1C50EA0102F5D10843B9
:100D400002D00098C8B10EE00021681E05E0235CC7
:100D5000625C63542254401E491C8142F7DBAB465F
:100D6000A81B401E0990002004F80B000B98099A5C
:100D7000C0F80880C0E9002B7AE711264FF0000880
:100D800057E72DE9F04F88460446D21D22F00701AF
:100D900091B0D1E90001CDE90A0107F09BFD0246BF
:100DA0000B98C00F01D02D2007E02068810701D5E6
:100DB0002B2002E0202101EAC000032A099001D083
:100DC000072A05DB03464146204600F015FB0BE1F0
:100DD0002078800601D5E06900E00620B8F1650FB3
:100DE000814606D0B8F1660F18D0B8F1670F70D100
:100DF00031E00020B9F1110F009001DB112301E077
:100E000009F101030AAA01A90CA8FFF7E2FEDDE936
:100E10000C70002609F10105834647E001204B468E
:100E200000904FF000470AAA01A90CA8FFF7D1FED5
:100E3000DDE90DB00C995D46002610B909F10100FD
:100E40000D18B9EB050003D4C0F1FF3609F1010517
:100E5000A5EB09002BE0B9F1010F01DA4FF0010910
:100E60000020B9F1110F0090484601DD112300E088
:100E700003460AAA01A90CA8FFF7ABFEDDE90C7036
:100E80004D4600268346207800070AD4AB4500DA99
:100E90005D4601A8012D04DD411911F8011C30291E
:100EA00007D04F4502DA17F1040F04DA0120824619
:100EB0000FE06D1EEEE7002F02DCED1B3E4403E069
:100EC000781CA84200DD7D1CB81B00F1010A4FF020
:100ED00000472078000703D4AA4501DB4FF0FF3A12
:100EE0000021B7F1004F0DF143088DF8431024D0D5
:100EF00002202B23002F01DA7F422D230A21021E1C
:100F0000A0F1010000DC5FB197FBF1FC97FBF1F26F
:100F100001FB1C7C17460CF1300C08F801CDEEE704
:100F2000A8F1010003702188090501D5452100E0E1
:100F30006521A0F1010800F8011C09980FA9A1EB97
:100F40000807FF1D00B10120411901EBEA70A169FA
:100F50003844081A401EA0612078C00602D42046FA
:100F6000FFF7E1FB099828B1D4E901219047206AF5
:100F7000401C20622078C00622D52046FFF7D3FB14
:100F80001EE0002E04DBB34502DD01A8805D00E019
:100F90003020D4E901219047206A401C2062761C51
:100FA000AAF101005FEA000A0AD100F021FAC06844
:100FB0000168405CD4E901219047206A401C20620E
:100FC000281EA5F10105DCDC07E0D4E9012118F8B1
:100FD000010B9047206A401C2062381EA7F10107D0
:100FE000F3DC2046FFF7B5FB032011B041E600001B
:100FF0002DE9F04F04460D46D21D22F0070089B0BE
:10100000D0E900974846394607F064FC0246F80FDD
:1010100001D02D2307E02068810701D52B2302E0B2
:10102000202101EAC0038DF820300BB1012000E03F
:101030000020032A824601D0072A04DB29462046E5
:1010400000F0DAF93FE12078800601D40D2500E0B8
:10105000E569C7F30A560D2D49DA00214FEA175BFF
:1010600008464FF00000002F00F4400007DA00EBC4
:1010700080004FF4400100EBD07001EA6000811560
:10108000012901DD4FF0FF3100224FEA850CBCF150
:10109000180F06D31346ACF118004FF08052C2402F
:1010A00003E04FF4801323FA0CF30CF10C0CBCF1A9
:1010B000200F04D3ACF1200C09FA0CF001E007FA80
:1010C0000CF000294FF0004801DD18B90FE00ED1F7
:1010D00040450CD319EB02095F4121B9404502D1CB
:1010E0009F4329EA0209BBEB175F00D0761C2088DA
:1010F000000502D57B48784402E07A4878441938E4
:1011000008AA302302F80A30037C0AF10101002EFC
:101110000AF1020A53546A4602DC4FF0300101E042
:101120004FF031014FF001088DF8001002D0A6F207
:10113000FF3603E059EA470100D06B4E002D02DC78
:101140002178090704D54FF002082E218DF80110EF
:10115000C44600210BE0C7F303433F01C35C491CB5
:101160006D1E02F80830052908F1010801DA002D8A
:10117000F1DC00210CE000EB1973491C1B786D1E9B
:10118000082902F808304FEA091908F1010801DAC4
:10119000002DF0DC21688B0602D516E0A8F10108CD
:1011A000E04505DD02EB080313F8013C302BF5D0D8
:1011B000B8F1000F09DD02EB080313F8013C2E2BF8
:1011C00003D1090701D4A8F10108002D05DD3E2156
:1011D00002F808106D1E08F10108407C002E02F88C
:1011E000080008F1010804DA2D20764202F8080010
:1011F00002E02B2002F808000A214FF47A708642A0
:1012000008F101080BDB96FBF0F3303302F80830ED
:1012100096FBF0F308F1010800FB136601E0642E71
:101220000CDB642096FBF0F3303302F8083096FBB9
:10123000F0F308F1010800FB136601E00A2E06DB5B
:1012400096FBF1F0303002F8080008F1010896FB37
:10125000F1F001FB1060303002F80800A16908F1DC
:10126000010808EB050202EB0A00081AA0612078C9
:10127000C00602D42046FFF756FA216A08AE01EBF9
:101280000A00206204E0D4E9012116F8010B90471E
:10129000BAF1010AF7D22078C00602D52046FFF73E
:1012A00042FA6E4609E016F8010B3E280FD0D4E949
:1012B00001219047206A401C2062B8F10108F2D257
:1012C0002046FFF746FA09B00320BDE8F08F206AF8
:1012D0002844206203E0D4E90121302090476D1EAC
:1012E000EBD3F8E7E978000002FCFFFF10B5436993
:1012F00013B1AFF3008001E0FFF74EFA012010BDFB
:10130000127800F124010A7000224A700122EDE7F0
:1013100011684FF0FF32E9E710B5436913B1AFF33D
:10132000008001E0FFF73CFB012010BD128800F1B6
:10133000240182840022C2840122EDE711684FF06B
:10134000FF32E9E7007B00F0800070472DE9F041B3
:1013500016460C46054600F043F8036893F8010171
:10136000012807D0FF2C12D8185D80B101202C7005
:10137000BDE8F081D3F807013246214603F2071396
:10138000C7182846BC46BDE8F041002360474FF02F
:10139000FF30EDE7754600F0EBF8AE460500694614
:1013A000534620F00700854618B020B5FEF7B6FF7B
:1013B000BDE820404FF000064FF000074FF0000856
:1013C0004FF0000BAC46ACE8C009ACE8C009ACE893
:1013D000C009ACE8C00921F007018D467047000044
:1013E00010B500F005F8001D10BD00BF55750000D8
:1013F00000487047F80000102DE9F0411F460446F0
:1014000003260168072A01F4006004DB08B116A571
:1014100005E016A503E008B115A500E015A521F02B
:1014200010002060A069C01EA0610FB1401EA06125
:101430002046FFF778F94FB1D4E9012138469047AB
:10144000206A401C2062C01C206206E0206AFAE785
:10145000D4E9012115F8010B9047761EF8D22046F9
:10146000FFF777F9BDE8F0814E414E006E616E00E6
:10147000494E4600696E66002DE9F04781461646E2
:101480008AB0354878440DC88DE80D00324878445C
:10149000801C03AC0DC884E80D0041F69B30084465
:1014A000372190FBF1F290FBF1F5A5F1800501FBEE
:1014B00012041B3C02D56442012000E00020DFF84A
:1014C00098A080460027FA44AAF1BE0A0EE0E00781
:1014D0000AD03246684607EB470101230AEB810137
:1014E00007F0C1F88DE8070064107F1C002CEED1D6
:1014F000194F7F44AE3F19E0E80715D007EB041001
:101500000DF1180A90E80E008AE80E00C068F0425B
:1015100001D1981908903246012306A903A807F0C3
:10152000A2F803AB83E807006D10641C002DE3D123
:101530004FF0010332466946B8F1000F03A802D00C
:1015400007F07CF801E007F08EF8C9E90001C9F85E
:1015500008200AB0BDE8F087EC75000010B504461D
:10156000AFF300802046BDE81040FEF7C2BE000089
:1015700000487047D800001030B44FF0013C50F8DC
:10158000042B51F8043BCCFA52F4D51A20D1FCB903
:1015900050F8042B51F8043BCCFA52F4D51A17D169
:1015A000B4B950F8042B51F8043BCCFA52F4D51AD4
:1015B0000ED16CB950F8042B51F8043BCCFA52F41C
:1015C000D51A05D1002CDAD030BC4FF0000070479E
:1015D00029BAB1FA81F111F01801D1F1200084404B
:1015E000F2D1CA40CB4012F0FF0213F0FF0330BC2F
:1015F000D01A7047FEE7000070B540F29C15C1F2AA
:10160000000528606420A8604220287128460C4606
:1016100000F0D1F8A88947F6A276B04208D1E8894F
:1016200047F27361884203D1BDE8704004F0EFBD1A
:1016300060202871284600F0BEF8A9891BA0FEF79B
:1016400017FFE98920A0FEF713FFA889B04209D14E
:10165000E88942F24361884204D82046BDE87040E0
:1016600006F016B842202871284600F0A4F8A88990
:1016700047F6A271884209D1E88947F2237188426E
:1016800004D82046BDE8704006F0BEBB7820287123
:10169000284600F090F8E88945F24061884218BF7A
:1016A00070BD2046BDE8704006F016B96863616DF4
:1016B0006572612E6D616E75665F6964203D2030D4
:1016C000782578200D0A00006863616D6572612ECF
:1016D0006465766963655F6964203D2030782578AC
:1016E000200D0A0070B582B005468DF807102979E3
:1016F0000068AC68164601310DF107020123009421
:1017000001F0BCFC29792868AD680131324601231B
:10171000009501F03DFB002818BF012002B070BD0C
:1017200080B584B08C4603680179D0F808E00120C8
:101730000131CDE90020184662461023CDF808E0BB
:1017400001F06CFD002818BF012004B080BD80B5F9
:1017500082B0127803688DF806100179D0F808C0BD
:101760008DF807200DF1060218460223CDF800C0BF
:1017700001F084FC002818BF012002B080BD80B5B4
:1017800084B00B468DF80F2002680179D0F808C0AC
:101790004FF0010E0DF10F000131CDE9000E1046A2
:1017A0001A461023CDF808C001F052FE002818BFD9
:1017B000012004B080BDF0B585B001790446012553
:1017C00078298DF8105020D140F29C16C1F2000605
:1017D0003179B2683068013104AF029243F20A02F3
:1017E00010230097019501F019FD31797A1C3068BA
:1017F000B7680131CDE9002543F20B0210230297AF
:1018000001F00CFD0020A08126E040F2FF122068CC
:10181000A668ADF812200DF112020223009601F025
:101820002DFC04AD20461C212A46FFF75BFF6E1CF1
:1018300020461D213246FFF755FFBDF810000A2152
:1018400000BA000CA08120462A46FFF74BFF204635
:101850000B213246FFF746FFBDF8100000BA010C1D
:101860000020E18105B0F0BD806B816B496D0229DC
:101870001CBF012180F8251000F057B810B5846B0B
:10188000A36AA06B01680A685BB1A36ADB0715D184
:1018900012F4002212D0C968E26A01EBC2010022F0
:1018A00014E0100318D40868000317D4E06AD4E9E0
:1018B0000C2303EB80000861A2620FE00A681203A8
:1018C0000CD40969E26A01EBC201012200F05DFA61
:1018D000A06A0138A06201E0606BC860A06A216B59
:1018E000884218BF10BD2068C16841F00101C16085
:1018F0000068800744BF012084F8250010BD40F235
:10190000B010C1F2000000F036B840F2F010C1F2A1
:10191000000000F08FBC40F25020C1F2000000F047
:1019200089BC704772B600BFFEE77047B0B501F0E2
:10193000F4F840F24415C1F20005296840F2401461
:10194000401AC0087C28C1F200040AD901F0E5F869
:101950002860206840F23811C1F2000108600120BF
:1019600001E020680130206040F23C10C1F200002C
:1019700001210160B0BD70B50446006841F66906FA
:101980000569C0F6000669070BD504214161E06BCB
:1019900040F00200E06384F82510A06B066500F0BB
:1019A00037FCA8070DD521680222A06B4A61E16BC4
:1019B00041F00101E163042184F82510066500F07F
:1019C00027FCE80605D5206810214161204600F07B
:1019D000C2F8280705D5206808214161204600F09B
:1019E000D3F9E80708BF70BD21680868800703D5F0
:1019F000C86820F01E00C860C86820F001022046B8
:101A0000CA60BDE87040FFF791BF002800F0A180D8
:101A1000F0B581B0044600680021C5F20501884296
:101A200006D04CF2D460C0F60000582105F0C0F991
:101A3000A06840F02000202806D04CF2D460C0F608
:101A40000000592105F0B4F9E06840F080008028DA
:101A500006D04CF2D460C0F600005A2105F0A8F977
:101A6000206940F04000402806D04CF2D460C0F617
:101A700000005B2105F09CF9606840F01000102820
:101A800006D04CF2D460C0F600005C2105F090F95D
:101A9000606960B1B0F5807F09D0B0F5007F06D0F5
:101AA0004CF2D460C0F600005D2105F081F9A06918
:101AB0004FEAB020042806D34CF2D460C0F60000F0
:101AC0005E2105F075F9206A40F00800082806D06C
:101AD0004CF2D460C0F600005F2105F069F994F87B
:101AE000250040B9002084F82400204600F034F896
:101AF000204600F031F8022084F8250094E80350D5
:101B000040F6F8730268102922EA03020260D4E961
:101B10000432A56942EA0E0242EA0302266A42EA58
:101B20000C02076842EA050242EA060242EA07029C
:101B300042EA0102026004BFE1698161C16841F0CB
:101B40001E01C16000200121E06384F8251001B06E
:101B5000F0BD0120704770472DE9F04F85B0044675
:101B600000680021C5F20501884240F09A800022F9
:101B700043F630000092C4F202004168002541F0B3
:101B8000010141604168C4F2020501F001010091C8
:101B90000099009201686E4641F0100101600168F1
:101BA0004FF0020901F010010091009900920168C4
:101BB0004FF0010A41F00101016001684FF0030B91
:101BC00001F0010100910099009201680D2741F098
:101BD00004010160016801F0040100910099009284
:101BE000016841F0020101600068314600F0020026
:101BF000009000987320009005F58050CDF8049077
:101C0000CDF808A0CDF80CB0049700F0FBFD5020F3
:101C10008DE8010E28463146049700F0F3FD4FF0A1
:101C2000C00805F5006031468DE8000F049700F00C
:101C3000E9FD05F5806031468DE8000F049700F05E
:101C4000E1FD40F2F01546F22840C1F20005C4F271
:101C500002004FF00071C5E9000100204FF48062DE
:101C6000C5E9020005F110004FF480534FF480479E
:101C700000218CC04FF440304FF48076C5E9080154
:101C80002846EE6100F09AFB08B1FFF74BFE4E20AC
:101C900000210022A563AC6301F031FD4E2001F06C
:101CA00016FD05B0BDE8F08FF0B581B00F466FF0BE
:101CB00002011E4615460F42044607D04CF29B60B7
:101CC000C0F6000040F2611105F072F894F82400AB
:101CD00001284FF0020055D04FF0010C84F824C0C9
:101CE00084F825002168A06B0B68002243F4804330
:101CF0000B600B68B2EB164F23F002030B600B680E
:101D000043EA07030B6041F67D0341F66907C0F61D
:101D10000003C0F60007C363C0E91372A262226326
:101D200005D128312A46334600F009FD22E04364FC
:101D3000C4F828C0E6626563E26AB2F5803F0BD35F
:101D4000002200BFE36A5B08E362A36A5B00A36250
:101D5000E36AB2EB134FF5D1A26A2831023AA262CC
:101D6000A26A2263E26AE76A05EB82032A460097C9
:101D700000F015F82068016841F0010101600020C1
:101D800084F8240001B0F0BD7047D0F800C01023E3
:101D90000020002A08BF0C234CF8031070472DE9DF
:101DA000F041069C15460E46611E4FF6FF721F4617
:101DB0009142804606D34CF28170C0F600009F210C
:101DC00004F0F6FFD8F80820802A02D14FF4807082
:101DD00049E0D8F83C00002844D0D8F84400002856
:101DE00040D0D8F84C00E8B398F83400012842D02D
:101DF000012088F8340098F83500012838D10220F5
:101E000088F835000020C8F85400D8F8000046F2E1
:101E10000C410368402A43F480233246C4F2020195
:101E200003600761446004BF2A463546826001F1C1
:101E30004C029042C56021D946F28842C4F20202A7
:101E400090425BD046F27042C4F20202904263D1EB
:101E500020220A6010220A6008220A6004220A6016
:101E60000122B6E14020C8F854000120BDE8F0810D
:101E7000002088F834000220BDE8F08146F2080115
:101E8000C4F2020101F1B002904216D946F21043A9
:101E9000C4F2020346F228429842C4F2020274D00D
:101EA00090426FD046F24047C4F20207B8420CBFDE
:101EB0004FF400174FF0006768E001F1500746F259
:101EC000100246F27003B842C4F20202C4F20203E6
:101ED00045D9984200F0B08046F28806C4F2020666
:101EE000B04200F0AB8046F2A006C4F20206B04257
:101EF0000CBF4FF400164FF00066A1E04FF40062F3
:101F00000A604FF480620A604FF400720A604FF476
:101F100080720A6040225CE101F194034FF000629C
:101F2000984208BF4FF400120A604FF0806208BF69
:101F30004FF480120A604FF00072984208BF4FF4CD
:101F400000220A604FF0807208BF4FF480220A60BE
:101F50004FF48002984208BF4FF4803239E190423A
:101F600070D046F22806C4F20206B0426CD046F2A7
:101F70004006C4F20206B0420CBF4FF400164FF008
:101F8000006663E04FF4006700E020279842C1F844
:101F900000740FD090420AD046F24047C4F20207C4
:101FA000B8420CBF4FF480174FF0806703E04FF446
:101FB000806700E010279842C1F800740FD090426B
:101FC0000AD046F24047C4F20207B8420CBF4FF4B1
:101FD00000274FF0007703E04FF4007700E0082778
:101FE0009842C1F800740FD090420AD046F24047A0
:101FF000C4F20207B8420CBF4FF480274FF080773D
:1020000003E04FF4807700E004279842C1F80074A1
:102010000ED090420AD046F24042C4F202029042F0
:102020000CBF4FF480324FF4800202E0402200E007
:102030000122C1F80024CDE0202601E04FF4006623
:102040004E6004E0202601E04FF400660E60B842C6
:1020500012D9984223D046F28806C4F20206B04252
:102060001FD046F2A006C4F20206B0420CBF4FF4E5
:1020700080164FF0806616E0904216D046F2280691
:10208000C4F20206B04212D046F24006C4F2020682
:10209000B0420CBF4FF480164FF0806609E0102666
:1020A00001E04FF480664E6004E0102601E04FF43A
:1020B00080660E60B84212D9984223D046F2880654
:1020C000C4F20206B0421FD046F2A006C4F20206D5
:1020D000B0420CBF4FF400264FF0007616E090425D
:1020E00016D046F22806C4F20206B04212D046F2DA
:1020F0004006C4F20206B0420CBF4FF400264FF077
:10210000007609E0082601E04FF400764E6004E016
:10211000082601E04FF400760E60B84212D99842CA
:1021200023D046F28806C4F20206B0421FD046F21F
:10213000A006C4F20206B0420CBF4FF480264FF056
:10214000807616E0904216D046F22806C4F20206C7
:10215000B04212D046F24006C4F20206B0420CBFB2
:102160004FF480264FF0807609E0042601E04FF41A
:1021700080764E6004E0042601E04FF480760E6025
:10218000B84212D998423ED046F28802C4F2020206
:1021900090423AD046F2A002C4F2020290420CBF32
:1021A0004FF480324FF4800230E090423FF458AE5A
:1021B00046F22802C4F2020290423FF4ABAE46F26D
:1021C0004002C4F2020290420CBF4FF480324FF43E
:1021D00080020A60016841F016010160416941F026
:1021E00080014161D8F8401011B9D8F8481019B1F0
:1021F000016841F008010160016841F001010160DE
:102200000020BDE8F081012200E040224A60E1E7C1
:1022100090F83510022909D1052180F835100068A1
:10222000016821F0010101600020704780214165B3
:1022300001207047F0B581B004460020009040F2C4
:102240000000C1F200000268D4E9166048F2B5133C
:1022500037680821C1F64E3381403942A2FB03257D
:102260000CD0226813685B0708D5136823F00403B9
:102270001360B160616D41F0010161650121814030
:10228000394208D022685269120604D5B160616DE6
:1022900041F00201616504218140394208D0226881
:1022A0001268920704D5B160616D41F00401616567
:1022B00010218140394217D020680268120713D5D7
:1022C000B16002680168520306D4C90506D40168EA
:1022D00021F00801016001E0080301D4216C00E055
:1022E000A16C09B120468847E16D202000FA01F277
:1022F0003A423CD020680368DB0638D5B26094F8D7
:1023000035300268052B1AD122F0160202604269AC
:1023100022F080024261226C0AB9A26C1AB10268F2
:1023200022F0080202603F208840B060012084F85B
:102330003500216D002084F83400B9BB3BE0016812
:1023400052030CD4C9050ED4016821F010010160BC
:10235000012084F83500002084F8340003E00803ED
:1023600001D4616C00E0E16B09B120468847606DE3
:1023700008B3606DC00717D0052084F835002068C9
:10238000A90A026822F00102026000BF009A01322D
:102390008A42009202D80268D207F7D1012084F85D
:1023A0003500002084F83400E16C21B1204601B0F2
:1023B000BDE8F040084701B0F0BD00002DE9F04154
:1023C000044600F0AAFBE4B10546206846F20F413E
:1023D000C4F20201884217DC46F26F01C4F2020126
:1023E000884226DC46F23F01C4F2020188423EDC0C
:1023F00046F21001C4F20201884260D046F2280180
:1024000058E00120BDE8F08146F26F41C4F20201BC
:1024100088421DDC46F23F41C4F2020188422FDCB3
:1024200046F21041C4F20201884248D046F22841E7
:1024300040E046F29F01C4F20201884229DC46F2E4
:102440007001C4F20201884239D046F2880131E0BD
:1024500046F29F41C4F20201884223DC46F27041F9
:10246000C4F2020188422AD046F2884122E046F2B4
:102470004001C4F20201884221D046F2580119E01D
:1024800046F24041C4F20201884218D046F2584157
:1024900010E046F2A001C4F2020188420FD046F2D9
:1024A000B80107E046F2A041C4F20201884206D01A
:1024B00046F2B841C4F20201884240F01D816068D2
:1024C000B0F1606F0AD04FEA7060072806D34CF273
:1024D000BC70C0F60000B82104F06AFCA06850B1DE
:1024E000402808D0802806D04CF2BC70C0F600000E
:1024F000B92104F05DFCE06840F40070B0F5007FA5
:1025000006D04CF2BC70C0F60000BA2104F050FCBA
:10251000206940F48060B0F5806F06D04CF2BC704A
:10252000C0F60000BB2104F043FC606960B1B0F567
:10253000006F09D0B0F5805F06D04CF2BC70C0F6D9
:102540000000BC2104F034FCA06960B1B0F5005F6C
:1025500009D0B0F5804F06D04CF2BC70C0F6000038
:10256000BD2104F025FCE06958B1202809D0B0F560
:10257000807F06D04CF2BC70C0F60000BE2104F093
:1025800017FC206A4FEA3040042806D34CF2BC7096
:10259000C0F60000BF2104F00BFC606A40F00401AB
:1025A000042907D04CF2BC70C0F60000C02104F032
:1025B000FFFB606A08B3A06A042806D34CF2BC7023
:1025C000C0F60000C52104F0F3FBE06A4FEAF050CA
:1025D000042806D34CF2BC70C0F60000C62104F0FB
:1025E000E7FB206B4FEA7050042806D34CF2BC7016
:1025F000C0F60000C72104F0DBFB022084F83500A0
:102600000020216884F83400086820F00100086088
:1026100021680868C00708D000F07FFA401B052831
:10262000F6D903252023032061E0086848F23F0221
:10263000CFF21002D4E9013500EA020C04F10C08D3
:1026400098E8C10143EA0C032B431843D4E9072E51
:10265000304338431043626A40EA0E00042A40EADD
:1026600008031CD1206BD4E90A2E40EA0E0018435F
:1026700008604869BEF1000F20F0030040EA020044
:1026800040F0040C11D0B8F5005F3DD0B8F1000F58
:102690004AD1022A4BD0012A40D0002A46E00B60E2
:1026A000486920F0070040EA020C01F0F8004AF601
:1026B000AB221038CAF6AA22A0FB02231A094BF655
:1026C0002473C1F814C0C0F600039A5C40F2FF33D3
:1026D0005F284FF03F0021EA030100FA02F088BFB3
:1026E0000431C4E9161288600023012500206365C7
:1026F00084F83550BDE8F0814CF2BC70C0F60000A3
:10270000B72104F055FBDAE6032ACED80125402391
:102710000120DFE802F0020C0203E8E7AEF1C0702E
:10272000B0FA80F0400904E0032A04D3BDD1CEF30F
:1027300000600028B9D0012540230120D7E72DE90A
:10274000F04114460746D0F85880581E4FF6FF72E5
:102750001D4690420E4607D34CF2BC70C0F60000F6
:1027600040F2CB1104F024FB97F83400012832D05A
:10277000012087F8340097F83500012828D102207D
:1027800087F83500002078653868B9683A6CFB6DC9
:102790000768402927F4802731460760456004BF59
:1027A0002146344681603F219940C460C8F8081032
:1027B000016841F0160101601AB1016841F0080199
:1027C0000160016841F0010101600020BDE8F08175
:1027D000002087F834000220BDE8F081B0B504463F
:1027E00000F09BF9054640F2CC00C1F200000078F1
:1027F000611C18BF044400BF00F08FF9401BA042C9
:10280000FAD3B0BD2DE9F04F85B0044600F13E404B
:1028100000F1FF70A20542EA9027092F0D460391AF
:1028200007D34CF24870C0F60000AC2104F0C0FAA7
:10283000039D28680021B1EB104F01D180B238B957
:102840004CF24870C0F60000AD2104F0B1FA039DCF
:102850006868B0F5881F80F20081122800F21781A5
:10286000012101FA00F00F21C0F20601084200F038
:102870000E8105F11000029041F60040C4F2020002
:102880000821844208BF07214FF0030E4FF00008D3
:102890004FF0000B4FF0000A072F38BF3946019167
:1028A0002868012101FA0AF910EA090700F0C88036
:1028B000686800F003014A1E012A21D8E86804284C
:1028C0000AD34CF24870C0F60000C02104F070FA40
:1028D000039D4FF0030EE868A1680EFA0BF29143D6
:1028E00000FA0BF00843A0606168686821EA0901FA
:1028F000C0F3001202FA0AF21143616000F0030112
:10290000032916D0A86803280AD34CF24870C0F6F1
:102910000000D12104F04CFA039D4FF0030EA8688B
:10292000E1680EFA0BF2914300FA0BF00843E06005
:10293000686800F0030102292BD102980068102872
:1029400006D281B24BF6FF7222FA01F1C9070BD110
:102950004CF24870C0F60000DE2104F029FADDE9EF
:1029600002054FF0030E02E04DA101EB80006FF075
:10297000030101EA5A01214400680A6A08F01C03B5
:102980000F269E40B243984010430862686800F0EA
:10299000030122680EFA0BF39A4301FA0BF111437B
:1029A00010F4403F21604BD0002043F644010490D6
:1029B000C4F202010868A44640F480400860086838
:1029C00043F6004400F48040049004982AF0030089
:1029D000C4F201044FF608462044CFF6FF76815931
:1029E00008F00C020F2393409943019B03FA02F273
:1029F00011438151A068696840EA070243F60C461A
:102A0000CB0258BF20EA0702A260C4F20106306878
:102A10008B0240EA070258BF20EA07023260606872
:102A20008B0340EA070258BF20EA07026260206871
:102A3000C90340EA070258BF20EA07022260644641
:102A40000AF1010A0BF1020BBAF1100F08F10408A8
:102A50007FF426AF05B0BDE8F08FB0F5081F0CDAA3
:102A6000B0F5881F3FF405AFB0F5901F3FF401AFFC
:102A7000B0F5041F3FF4FDAE09E03FF4FAAEB0F547
:102A8000441F3FF4F6AEB0F5481F3FF4F2AE4CF2EF
:102A90004870C0F60000AE2104F08AF9039DE8E614
:102AA0000000000001000000020000000300000020
:102AB0000400000005000000060000000700000000
:102AC00008000000090000000A0000000B000000E0
:102AD0000C0000000D000000000000000F000000CE
:102AE00070B516460C46054639B94CF24870C0F62A
:102AF000000040F29D1104F05BF9022E03D2002E7B
:102B000008BF240407E04CF24870C0F600004FF400
:102B1000CF7104F04DF9AC6170BD40F27460C1F248
:102B2000000000687047002800F0B680F0B581B062
:102B30000446006845F20041C4F20001884213D007
:102B400045F60001C4F2000188420DD045F600416F
:102B5000C4F20001884207D04CF62F00C0F60000F6
:102B600040F2C91104F024F9606841F6802101386F
:102B7000C0F20601884207D34CF62F00C0F60000D1
:102B80004FF4E57104F014F9A06840F48040B0F50A
:102B9000804F07D04CF62F00C0F6000040F2CB115A
:102BA00004F006F9E068B0F5806F07D34CF62F000B
:102BB000C0F600004FF4E67104F0FAF8206940F422
:102BC0000040B0F5404F07D04CF62F00C0F6000093
:102BD00040F2CD1104F0ECF86069022807D34CF6FE
:102BE0002F00C0F600004FF4E77104F0E1F8A0698F
:102BF0006FF0FE01084207D04CF62F00C0F600002F
:102C000040F2CF1104F0D4F8E06940F040004028D1
:102C100007D04CF62F00C0F600004FF4E87104F026
:102C2000C7F8206A40F08000802807D04CF62F00BB
:102C3000C0F6000040F2D11104F0BAF894F83D005B
:102C400028B9002084F83C00204600F09DFC242098
:102C500084F83D002068016821F0010101600168ED
:102C600041F400410160016821F40041016000F07D
:102C7000ACFE636848F2A16CC0F2010C40F6001192
:102C8000C0F23D0163453CBF48F28041C0F21E01E5
:102C9000884203D2012079E0012070474DF683611C
:102CA000C4F21B31A0FB01122168970CD1F804E09B
:102CB0004FF496762EF03F0545EA92454D607743F6
:102CC00048F638160D6AC0F24106A7FB067625F0D5
:102CD0003F07634538BF960C721C3A430A62CA69C3
:102CE00048F2A0664CF6FF77C0F20106B34222EA32
:102CF00007020AD801385B00B0FBF3F001306FF334
:102D00001F30042898BF042019E0A768013857B184
:102D100019277B43B0FBF3F001306FF31F3068B12C
:102D200000F5804007E003EB4303B0FBF3F0013014
:102D30006FF31F3010B100F5004000E00120104398
:102D4000C8610868D4E9072320F0C0001043184385
:102D50000860886848F2FF3204F10C0790438CCF7A
:102D600018431043A6698860C86820F0FF00384304
:102D70003043C860086840F001000860002020214E
:102D8000206484F83D10206384F83E0001B0F0BD5B
:102D90002DE9F04782B01E4615460F460446FFF760
:102DA000BCFE94F83D10202912D140F20209C0F275
:102DB0000109824609F57021204601221923CDF828
:102DC00000A002F013FF18B994F83C00012803D1C9
:102DD000022002B0BDE8F0870121206884F83C1091
:102DE0000168C90703D1016841F001010160016870
:102DF000DDF8288021F400610160222184F83D1073
:102E0000102184F83E100021216465626685618D81
:102E10002185A9F10211E162E16A026811F5803FA2
:102E200042F48062026018BF01293FD1016841F479
:102E30008071016020464FF0011100224346CDF819
:102E400000A002F0D3FE40B120680068C00544BF76
:102E50004FF4007020640120BBE72069B0F5804F7B
:102E60002AD147F00100C0B22168424608612046DD
:102E70004946534602F012FF0028ECD1208D00286D
:102E80004FD002285AD0012861D121680A6822F463
:102E900080620A60002201924A6901928A69019265
:102EA000019A0A6842F400720A605CE00829BDD009
:102EB000216B1129BAD0BDE7062000EAD71520689A
:102EC00005F1F001016109F1060120464246534631
:102ED00002F0E4FE0028BED12068F9B2016120466C
:102EE00049464246534602F0D9FE0028B3D100209D
:102EF0000190206800224169434601918169019156
:102F00000199016841F48071016020464FF0011180
:102F1000CDF800A002F06AFE002895D145F0F1003E
:102F2000A2E7002001902068416901918169019127
:102F30000199016841F40071016096E021680A6816
:102F400022F480620A600A6842F4006203E02168A9
:102F50000A6842F480620A60002201924A69019282
:102F600089690191019980B203280FD8022830D0D5
:102F7000012831D120464146524602F0D1FE0028B8
:102F80007FF469AF2068616A006920E0204641460D
:102F9000524602F0C5FE00287FF45DAF2068616AEA
:102FA00000690870606A2268411C208D61620138E6
:102FB0002085638D013B638553695B0752D580B2E1
:102FC000032803D1106820F4806010601069087035
:102FD0003FE009F102011EE009F102052046294601
:102FE00000224346CDF800A002F000FE00287FF446
:102FF00032AF2068616A026822F480620260006970
:103000000870606A218D01306062481E2085608DE5
:10301000294601386085204600224346CDF800A0AD
:1030200002F0E4FD00287FF416AF2068616A0268B0
:1030300042F40072026000690870606A2268411CF4
:103040006162218D01392185618D013961851169A7
:103050004170606A218D01306062481E2085618D5B
:103060000139618501047FF47EAF202084F83D00A2
:10307000002084F83E0084F83C00AAE62DE9F047E1
:1030800082B01E4617468A460446FFF746FD94F86E
:103090003D10202911D140F20209C0F20109054674
:1030A00009F57021204601221923009502F09EFDAA
:1030B00018B994F83C00012803D1022002B0BDE801
:1030C000F0870121206884F83C100168C90703D10A
:1030D000016841F0010101600168DDF8288021F4F8
:1030E00000610160212184F83D10102184F83E1018
:1030F0000021216467626685618D2185A9F1021135
:10310000E162E16A11F5803F18BF01291AD1016817
:1031100041F48071016020464FF0011100224346C6
:10312000009502F063FD38B120680068C00544BF17
:103130004FF40070206425E02069B0F5804F07D17E
:10314000FE2014E00829E2D0216B1229DFD0E2E74B
:10315000062000EADA102168F030086109F1060162
:10316000204642462B4602F099FD58B9FF202168BF
:1031700000EA0A0008612046494642462B4602F012
:103180008DFD08B1012099E7002001902068416978
:103190000191806901900198208D80B320464146BD
:1031A0002A4602F0F7FD08BB606A2168024612F861
:1031B000013B0B616262628D013A6285228D531E72
:1031C00023854F697F070AD51B0408D04378023056
:1031D0000B616062608D01386085901E20852046FD
:1031E00041462A4602F0CCFC0028D5D0206C0428A9
:1031F000C8D12068016841F400710160C2E720680D
:10320000016841F400710160202084F83D00002035
:1032100084F83E0084F83C0050E700002DE9F043BC
:1032200083B01F4616460D460446FFF776FC012F75
:10323000814609D0102F07D04CF62F00C0F60000B1
:1032400040F6482103F0B4FD94F83D0020280ED14B
:103250000221C0F21001204601221923CDF800906E
:1032600002F0C4FC18B994F83C00012803D10220F4
:1032700003B0BDE8F0830121226884F83C10136894
:10328000DDE90B080A99DB0703D1136843F001035A
:103290001360136823F400631360222284F83D2036
:1032A000402284F83E200022226461626085608DA5
:1032B000294620850020CFF6FF70E0622046324686
:1032C0003B46CDE9008902F07EFB08B10120CFE743
:1032D000208DA0B102281FD0012829D121680A68B9
:1032E00022F480620A60002202924A6902928A698C
:1032F0000292029A0A6842F400720A6020E00020FA
:1033000002902068416902918169029102990168E5
:1033100041F40071016092E021680A6822F4806241
:103320000A600A6842F400620A600022029202E027
:103330000021029121684A690292896902910299E9
:103340000427C0F2010700BF80B203280ED802286C
:103350004AD001282CD1204641464A4602F0E0FCE2
:103360000028B3D12068616A00691FE02046414609
:103370004A4602F0D5FC0028A8D12068616A00699D
:103380000870606A2268411C208D616201382085C6
:10339000638D013B638553695B074DD580B203287C
:1033A00003D1106820F480601060106908703AE062
:1033B0002046394600224346CDF8009002F016FC24
:1033C00000287FF483AF2068616A026822F480627B
:1033D000026000690870606A218D01306062481ED9
:1033E0002085608D0138608520463946002243469D
:1033F000CDF8009002F0FAFB00287FF467AF206858
:10340000616A026842F40072026000690870606AD2
:103410002268411C6162218D01392185618D01394C
:10342000618511694170606A218D01306062481EBA
:103430002085618D0139618501047FF485AF2020ED
:1034400084F83D00002084F83E0084F83C000FE73B
:103450002DE9F04383B01F4691460E460446FFF720
:103460005CFB012F054609D0102F07D04CF62F002A
:10347000C0F6000040F6CD1103F09AFC94F83D0030
:1034800020280DD10221C0F210012046012219236B
:10349000009502F0ABFB18B994F83C00012803D169
:1034A000022003B0BDE8F0830121226884F83C10BB
:1034B0001368DDE90B080A99DB0703D1136843F0B1
:1034C00001031360136823F400631360212284F85E
:1034D0003D20402284F83E20002222646162608503
:1034E000608D314620850020CFF6FF70E0622046D7
:1034F0004A463B46CDE9008502F0E6FA08B10120D4
:10350000CFE7208D18B300BF204641462A4602F07F
:1035100041FC10BB616A2268084610F8013B136148
:10352000238D6062581E2085678D013F678557692E
:103530007F070AD5070408D048781061881C6062AC
:10354000981E2085618D013961850004DCD12046FB
:1035500041462A4602F014FB40B1206C0428CED12B
:103560002068016841F400710160C8E720680168C3
:1035700041F400710160202084F83D00002084F8AF
:103580003E0084F83C008CE7016845F20040C4F23C
:103590000000814218BF7047B0B586B0002543F6E1
:1035A00030040195C4F20204216800F5D83041F0DE
:1035B00002012160216801F00201019101994FF49B
:1035C0004071019112210291012103910321049183
:1035D0000421059101A9FFF715F90095206940F430
:1035E00000102061206900F400100090009806B0DF
:1035F000BDE8B040704740F2CC0040F27461C1F2C7
:103600000000C1F2000100780A68104408607047A9
:1036100080B543F60040C4F20200016841F4007135
:103620000160016841F480610160016841F48071CA
:103630000160032000F0A3F80F2000F004F800F070
:103640002AF8002080BDB0B540F2CC02C1F20002E1
:1036500040F200011278C1F200014FF47A73096858
:10366000B3FBF2F20446B1FBF2F1084600F011FFA1
:103670000F2C4FF001050CD858B94FF0FF30214600
:103680000022002500F03BF840F2D000C1F200001B
:1036900004602846B0BD82B0002043F6400101908E
:1036A000C4F202014A6842F480424A604A6802F465
:1036B00080420192019A0090086840F080500860B2
:1036C000086800F080500090009802B07047B0F198
:1036D000FF3F0DDD00F01F01012202FA01F11C2263
:1036E00002EAD0004EF20012CEF200028150704782
:1036F0004CF2F470C0F60000BC2103F059BB70B569
:1037000015460E46102A044606D34CF2F470C0F655
:103710000000A82103F04CFB102E06D34CF2F470ED
:10372000C0F60000A92103F043FB4EF60C50CEF288
:10373000000001684FF0FF33C1F3022181F007025E
:10374000042A28BF0422033903FA02F238BF0021F9
:1037500026EA02028A4003FA01F125EA0101114337
:1037600004F00F02043A104404F16042090102F52A
:103770006442002C48BF00F10C02117070BD10B5FE
:1037800004460338052806D34CF2F470C0F6000056
:10379000902103F00DFB4EF60C50CEF200000168B4
:1037A0004FF6FF02114064F30A2141F0806141F0BD
:1037B000FD71016010BD0000002800F0B7802DE908
:1037C000F041044600680D4601380F2807D34CF23B
:1037D0001070C0F6000040F25A2103F0E9FA082DFB
:1037E00007D34CF21070C0F6000040F25B2103F0EA
:1037F000DFFA43F60008C4F20208D8F8000400F02B
:103800000700A84208D288F80054D8F8000400F055
:103810000700A84240F09F80206881071FD541071C
:1038200005D5D8F8081041F4E051C8F80810000791
:1038300005D5D8F8080040F46040C8F80800A06832
:103840006FF0070101EB3011082980F0AF80D8F844
:10385000081021F0F0010843C8F808002068C007EC
:1038600066D1D8F8000400F00700A84207D988F80C
:103870000054D8F8000400F00700A8426BD120687B
:1038800041071AD5E0686FF0030101EBB02104296C
:103890000BD34FEAB02141B14CF21070C0F60000DA
:1038A00040F2C32103F084FAE068D8F8081021F44C
:1038B000E0510843C8F80800206800071AD52069BD
:1038C0006FF0030101EBB02104290BD34FEAB021C3
:1038D00041B14CF21070C0F6000040F2CA2103F072
:1038E00067FA2069D8F8081021F4604141EAC00065
:1038F000C8F8080000F08FF8D8F8081048F68C22B5
:10390000C1F30311C0F60002515C40F2000220FA3C
:1039100001F140F2D000C1F200000068C1F20002E3
:103920001160FFF790FE0020BDE8F0810120704794
:103930006068042808D34CF21070C0F6000040F212
:10394000852103F035FA6068811E022906D2D8F875
:103950000010890108D40120BDE8F081012820D1A0
:10396000D8F800108903F6D5D8F8081021F0030123
:103970000843C8F80800FFF7D0F8064641F2883738
:10398000D8F80800616800F00C00B0EB810F3FF43C
:1039900068AFFFF7C2F8801BB842F1D90320BDE839
:1039A000F081D8F800108907D5D5DDE74FEA30114E
:1039B00000293FF44CAF4CF21070C0F6000040F20A
:1039C0007E2103F0F5F9A06841E740F2000043F6DC
:1039D0000801C1F20000C4F202010068096848F65B
:1039E0009C22C1F38221C0F60002515CC84070479E
:1039F00040F2000043F60801C1F20000C4F20201E7
:103A00000068096848F69C22C1F34231C0F6000202
:103A1000515CC840704710B543F60404C4F2020478
:103A2000606800F00C0142F200400829C0F2F40086
:103A300007D0042918BF10BD41F20020C0F27A005F
:103A400010BD216801F03F02216823684902C3F3D9
:103A5000881105D4A1FB00010023FCF772FC06E0ED
:103A600041F20020C0F27A004843B0FBF2F0216836
:103A70000222C1F3014102EB4101B0FBF1F010BDA4
:103A8000002800F0AA802DE9F04182B004460068C9
:103A9000102807D34CF21070C0F60000E62103F0A6
:103AA00087F9206843F60006C007C4F202061BD05F
:103AB000606860B1B0F5803F09D0B0F5A02F06D0A6
:103AC0004CF21070C0F60000EB2103F071F9B06801
:103AD00000F00C00042840F0DC803068800303D53F
:103AE0006068002800F0EF802078800731D5E0681A
:103AF000022807D34CF21070C0F6000040F21D11EE
:103B000003F056F92069202807D34CF21070C0F654
:103B100000004FF48F7103F04BF9B06810F00C0FF8
:103B200009D0B06800F00C00082840F0CE80706822
:103B3000400200F1CA803068800703D5E0680128A0
:103B400040F0C1803068216920F0F80040EAC100EF
:103B500030602078000742D42078400761D4A06903
:103B6000032808D34CF21070C0F6000040F2CD11CB
:103B700003F01EF9A06970B3B16801F00C010829C7
:103B800040F0DA80012800F09E807068E16900F45E
:103B900080028A4240F09780216A00F03F028A4208
:103BA00040F0918047F6C071626A0140B1EB821F1C
:103BB00040F08980A16A4FF6FF73C903994300F46E
:103BC0004032A1F580318A427DD1E16A00F0706017
:103BD000B0EB016F77D1002048E1012070476069A8
:103BE000022808D34CF21070C0F600004FF4AF71F9
:103BF00003F0DEF86069002840F20000C4F24720BC
:103C000000F089800121C0F8801EFEF786FF05467E
:103C1000706F8007A0D4FEF780FF401B0228F7D901
:103C200023E1A068052805D8012101FA00F010F071
:103C3000230F07D14CF21070C0F600004FF4C5718D
:103C400003F0B6F8306C5FEAC0080AD40020019097
:103C5000306C40F080503064306C00F08050019047
:103C6000019847F20007C4F200073868C00543D442
:103C7000386840F480703860FEF74FFF054600BF9B
:103C80003868C00538D4FEF748FF401B0228F7D932
:103C9000EBE0B06800F00C00082803D17068400227
:103CA0003FF51BAF6068B0F5803F07D0B0F5A02F9F
:103CB00040F0C580306840F480203060306840F4C7
:103CC00080303060C5E00120D0E0E068002800F0DE
:103CD00088800020C4F2472001210160FEF71DFF0B
:103CE000054600BF306880073FF52CAFFEF715FF93
:103CF000401B0228F6D9B8E0A068012806D00528A4
:103D000040F08480306F40F004003067306F40F046
:103D10000100306784E00021C0F8801EFEF7FDFE40
:103D2000054600BF706F80077FF516AFFEF7F5FE02
:103D3000401B0228F6D998E0022840F09A80E069FA
:103D400040F48000B0F5800F07D04CF21070C0F640
:103D500000004FF4EB7103F02BF8206A02383E2884
:103D600007D34CF21070C0F6000040F2D71103F0F8
:103D70001FF8606A3238B0F5BF7F07D94CF2107077
:103D8000C0F600004FF4EC7103F012F8A06A0828A6
:103D900000F2D080012101FA00F010F4AA7F00F0B7
:103DA000C980E06A02380E2807D34CF21070C0F6C2
:103DB00000004FF4ED7102F0FBFF0027C4F247272B
:103DC00000203866FEF7A9FE054600BF3068800176
:103DD00064D5FEF7A2FE401B02284FF00300F5D980
:103DE00044E00020C4F2472000210160FEF795FE68
:103DF000054600BF306880077FF5ABAEFEF78DFE4D
:103E0000401B02284FF00300F4D92FE0316F002847
:103E100021F001013167316F21F0040131675FD07A
:103E2000FEF77BFE054641F2883700BF306F800702
:103E300067D4FEF772FE401BB842F7D915E031682F
:103E4000002821F480313160316821F48021316013
:103E500060D0FEF762FE0546306880033FF544AE51
:103E6000FEF75BFE401B6428F6D9032002B0BDE8D4
:103E7000F0810020C4F2472000210166FEF74DFECC
:103E8000044600BF306880017FF5A5AEFEF745FE11
:103E9000001B02284FF00300F4D9E7E704F11C05EA
:103EA0002FCD084340EA8210D9034FF6FF729143A9
:103EB000A1F5803140EA0560084370600120386652
:103EC000FEF72BFE044600BF306880013FF583AE4D
:103ED000FEF723FE001B02284FF00300F4D9C5E7CC
:103EE000FEF71BFE054641F2883700BF306F8007A2
:103EF00007D5FEF712FE401BB8424FF00300F5D97C
:103F0000B4E7B8F1000F3FF52AAE306C20F08050D6
:103F1000306424E6FEF701FE054600BF30688003EA
:103F20007FF5E2ADFEF7F9FD401B64284FF003007A
:103F3000F4D99BE74CF21070C0F6000040F2D911A2
:103F400002F036FF2DE7704790F85100704770B5CA
:103F5000002800F091800446006843F60001C4F296
:103F60000001884213D043F60041C4F200018842A8
:103F70000DD043F20001C4F20101884207D04CF693
:103F80006700C0F600004FF4A07102F011FF6068F6
:103F900050B1B0F5827F07D04CF66700C0F6000044
:103FA00040F2411102F004FFA06868B1B0F5806FE3
:103FB0000AD0B0F5004F07D04CF66700C0F60000FD
:103FC0004FF4A17102F0F4FEE06840F40060B0F537
:103FD000006F07D04CF66700C0F6000040F24311B6
:103FE00002F0E6FEA06968B1B0F5007F0AD0B0F536
:103FF000802F07D04CF66700C0F600004FF4A27186
:1040000002F0D6FEE0694FEAF000082807D34CF62C
:104010006700C0F6000040F2451102F0C9FE206AB8
:1040200040F08000802807D04CF66700C0F6000002
:104030004FF4A37102F0BCFE606A40F01001102939
:1040400008D04CF66700C0F6000040F2471102F0BD
:10405000AFFE606A90B1E0694FEAF000082807D32C
:104060004CF66700C0F6000040F2591102F0A0FEC5
:104070000020C4E904002DE001266FE0206940F033
:104080000200022807D04CF66700C0F600004FF48B
:10409000A57102F08DFE6069022807D34CF6670017
:1040A000C0F6000040F24B1102F082FE6068B0F5ED
:1040B000827F0DD1E0694FEAF00008280AD34CF660
:1040C0006700C0F6000040F24F1102F071FE01E0FF
:1040D0000020E0610026A66294F8510020B9204635
:1040E00084F8506000F03CF8022084F8510094E815
:1040F0000F0001F48271056802F4044225F04005C6
:104100000560114403F400622369114403F00202C4
:104110006369114403F00102A369E569114403F4E2
:104120000072114405F03802256A114405F080023E
:10413000A56A114305F4005211430160626A04212B
:1041400001EA134102F0100211444160C16921F4F7
:104150000061C1610120666584F85100304670BD80
:1041600070B586B00446016843F20000C4F2010055
:10417000814243D1002643F630010196C4F2020188
:104180004A6900F5544042F480524A614A6902F497
:1041900080520192019A01960A6842F002020A6076
:1041A000096801F002010191019928210191022180
:1041B000CDE90216032104910521059101A9FEF71D
:1041C00021FB40F2502546F25840C1F20005C4F2EE
:1041D00002004FF0C06140224FF4806385E8470041
:1041E00005F1140014212B61FCF772FA2846FEF742
:1041F000E5F808B1FDF796FBA564AC6306B070BDA9
:104200002DE9F04182B0044680681D4640F400402C
:104210001646B0F5004F0F4607D04CF66700C0F6C3
:1042200000004FF4427102F0C3FD94F850000128E1
:1042300001D10220A9E0012084F85000FEF76DFCB6
:1042400094F8511001295BD18046002F4FF00100F6
:1042500000F09880002E00F095800320002184F863
:10426000510061652763A686E686A163A187E18781
:10427000A0682164B0F5004F2068616407D101682F
:1042800021F040010160016841F480410160016852
:10429000490603D4016841F0400101606168731E62
:1042A000E268B1FA81F1B3FA83F349095B09B2F527
:1042B000006F41EA030125D131B137F8021BC1601B
:1042C0002763E08E0138E086E08E00283ED06E1C29
:1042D00020688168890707D4FEF71FFC66B1A0EB50
:1042E0000800A84208D349E0216B31F8022BC260D4
:1042F0002163E08E0138E086E08E0028E8D125E0D9
:1043000002203FE039B139780173206B013020631E
:10431000E08E0138E086E08EC0B16E1C20688168B6
:10432000890707D4FEF7F9FB6EB1A0EB0800A8429D
:1043300009D323E0216B09780173206B01302063DE
:10434000E08E0138E086E08E0028E7D1204629463D
:10435000424602F097F808B120206065A06838B99D
:10436000002001902068C168019180680190019847
:10437000606D08B1012005E0002000E0032001216C
:1043800084F85110002184F8501002B0BDE8F0818B
:10439000F0B581B00446806C16460D4638B94CF62F
:1043A0006700C0F6000040F2856102F001FDA068E0
:1043B00040F40040B0F5004F07D04CF66700C0F65F
:1043C00000004FF4D16102F0F3FC94F85000012892
:1043D00001D1022059E0012084F8500094F85100E6
:1043E00001283BD1002D4FF001004BD0002E49D0C9
:1043F00003200021274684F8510047F8541F256305
:10440000A686E686A163C4E91011A187E187A068AA
:104410002268B0F5004F07D1106820F0400010600E
:10442000106840F480401060A06C46F20B4346F2E6
:104430001146C0F60003C0F60006C0E90F6346F25D
:10444000ED33C0F60003C0E91331E38E0C32294688
:10445000FEF775F920B10120102110E0022011E0D3
:1044600027683868400603D4386840F04000386058
:1044700057F8040F022140F02000386000203A680D
:1044800011433960002184F8501001B0F0BD70472D
:104490007047411E0020B0EB116F1CBF0120704718
:1044A0004EF21002CEF2000251604EF62351CEF2CF
:1044B0000001F0230B700721906011607047F0B588
:1044C00081B00746006840F2004240F48060C4F2C8
:1044D000010290420D4607D04CF6D700C0F600000E
:1044E00040F2E67102F064FC286840F40060B0F528
:1044F000006F07D04CF6D700C0F6000040F2E7711D
:1045000002F056FC686840F48060B0F5806F07D018
:104510004CF6D700C0F600004FF4FD6102F048FCF5
:10452000A8684FEA3020042807D34CF6D700C0F61D
:10453000000040F2E97102F03BFCE868B0F5807FD2
:1045400007D34CF6D700C0F6000040F2EA7102F043
:104550002FFC286940F48050B0F5805F07D04CF6FE
:10456000D700C0F6000040F2EB7102F021FC686950
:1045700040F40050B0F5005F07D04CF6D700C0F60D
:10458000000040F2EC7102F013FCE86940F4804056
:10459000B0F5804F07D04CF6D700C0F6000040F2CF
:1045A000ED7102F005FC97F83C00012801D10220D2
:1045B00019E095E85F0023F47C5322F470521A430B
:1045C00021F4F041114320F4E040084324F4C041B9
:1045D00008433043E96920F480403A680843506456
:1045E000002087F83C0001B0F0BDB0B5044600687B
:1045F00040F6FF72C4F2000290420D460BDC40F21E
:10460000FF71C4F20001884214DCB0F1804F2FD05A
:1046100040F2004116E04FF6FF71C4F200018842FB
:1046200013DC41F20001C4F20001884220D041F2C3
:10463000004107E040F60001C4F20001884217D0B3
:1046400040F60041C4F2000108E00021C4F201017B
:1046500088420DD040F20041C4F20101884207D0E7
:104660004CF6D700C0F6000040F2A97102F0A0FBA2
:1046700028684FEA3010082807D34CF6D700C0F658
:10468000000040F2AA7102F093FB686840F08000DD
:10469000802807D04CF6D700C0F6000040F2AB717E
:1046A00002F086FB94F83C0001284FF0020008BF9E
:1046B000B0BD84F83D002068426881682B6822F014
:1046C00070021A4341F2FF73C4F200039842426041
:1046D0000BDC40F2FF72C4F20002904213DCB0F136
:1046E000804F27D040F2004215E040F2FF32C4F282
:1046F0000102904212DC41F60002C4F20002904234
:1047000018D0002212E040F60002C4F200029042EB
:1047100010D040F60042C4F2000209E044F2000268
:10472000C4F20102904205D040F20042C4F20102FC
:10473000904204D16A6821F0800111438160012018
:1047400084F83D00002084F83C00B0BDE8B1B0B56D
:104750000446006841F6FF31C4F20001884216DCCD
:1047600040F6FF31C4F20001884225DD41F2FF31FD
:10477000C4F20001884239DC40F60041C4F2000175
:1047800088424AD041F2000138E00120704740F2EF
:10479000FF31C4F2010188421ADD44F2FF31C4F254
:1047A000010188422DDC40F20041C4F2010188423F
:1047B00033D044F200012CE0B0F1804F2DD040F214
:1047C0000041C4F20001884227D040F6000115E004
:1047D00041F60041C4F2000188421ED042F20001BD
:1047E000C4F20001884218D0002112E041F20041D9
:1047F000C4F20001884210D041F60001C4F2000169
:1048000009E044F20041C4F20101884205D044F6B7
:104810000001C4F20101884273D1A0684FEA301050
:10482000062865D8012101FA00F010F0570F5FD07B
:10483000206968B1B0F5807F0AD0B0F5007F07D05D
:104840004CF69F00C0F6000040F2151102F0B0FADD
:104850002068B0F1804F05D040F60041C4F200015D
:1048600088423ED1E06838B94CF69F00C0F600009F
:104870004FF48B7102F09CFAA069251D40F0800076
:10488000802807D04CF69F00C0F6000040F21711B8
:1048900002F08EFA94F83D0028B9002084F83C001C
:1048A000204600F037F8022084F83D0020682946B1
:1048B00001F0F2FE012084F8460084F83E0084F8FE
:1048C0003F0084F8400084F8410084F8420084F8F6
:1048D000430084F8440084F8450084F83D0000203B
:1048E000B0BDE0684FF6FF7101388842BCD2C3E723
:1048F0004CF69F00C0F600004FF48A7102F058FA9F
:1049000096E74CF69F00C0F6000040F2131102F04B
:104910004FFA82E700680021C4F20101884218BF03
:10492000704781B00020009043F64400C4F20200BA
:10493000016841F001010160006800F00100009091
:10494000009801B07047B0B5044690F83C000128CB
:104950004FF0020008BFB0BD0D46012184F83C10A5
:1049600084F83D0028684F2808DC1F2811DD202826
:104970001FD030281DD040281BD012E06F280CDD3E
:10498000702816D0B0F5805F13D0B0F5005F10D05E
:1049900007E070B110280CD003E0502809D060283F
:1049A00007D04CF69F00C0F6000041F2C34102F070
:1049B000FFF921684FF677728868904388602A680B
:1049C00001204F2A1DDC1F2A47DD202A49D0302A2A
:1049D00047D0402A40F0DD8241F2FF70C4F200006F
:1049E000814200F3D98040F2FF70C4F2000081429E
:1049F00000F38A81B1F1804F00F0C18140F20040A4
:104A00008AE16F2A40DD702A66D0B2F5005F78D067
:104A1000B2F5805F40F0BD8241F6FF30C4F2000085
:104A200081424FF0000000F3C78040F6FF32C4F22D
:104A30000002914240F3B48241F2FF32C4F200021C
:104A4000914200F3C78240F60042C4F20002914254
:104A500000F09F8241F20002C4E212B1102A40F03D
:104A6000988241F2FF70C4F20000814226DC40F2DD
:104A7000FF70C4F2000081425ADCB1F1804F00F0B7
:104A8000848040F200405BE0502A5CD0602A40F015
:104A9000808241F2FF70C4F20000814200F3A480E2
:104AA00040F2FF70C4F20000814200F33881B1F19E
:104AB000804F00F0A88140F2004038E140F2FF3022
:104AC000C4F20100814253DC41F60000C4F2000050
:104AD00081425AD0002053E041F2FF70C4F200003E
:104AE000814200F3918040F2FF70C4F200008142E5
:104AF00000F32081B1F1804F00F0CA8140F2004004
:104B000021E140F6FF30C4F20000814200F38C80C6
:104B1000B1F1804F00F0A18040F20040C4F20000EB
:104B2000814200F09A8040F60000C4F200008AE062
:104B300040F60000C4F20000814226D040F600405A
:104B4000C4F200001EE041F2FF70C4F20000814296
:104B500000F3BF8040F2FF70C4F20000814200F316
:104B6000F580B1F1804F00F0DC8140F20040F6E0CA
:104B700040F20040C4F20100814206D044F200003D
:104B8000C4F20100814240F0B480886820F07000D7
:104B9000104340F00700FAE140F2FF30C4F2010098
:104BA000814200F3DF8041F60000C4F20000814240
:104BB00000F0E5800020DDE040F2FF32C4F20102A7
:104BC000914240F3F98144F2FF32C4F20102914272
:104BD00000F30B8240F20042C4F20102914200F065
:104BE000D88144F2000208E240F2FF30C4F2010032
:104BF000814200F3FB8041F60000C4F200008142D4
:104C000000F001810020F9E040F2FF30C4F2010021
:104C1000814200F3308141F60000C4F2000081427D
:104C200000F0368100202EE140F60040C4F2000082
:104C3000814212D00020C4F2010081420DD040F226
:104C40000040C4F20100814207D04CF69F00C0F63C
:104C5000000041F2EE4102F0ABF8A8684FEA3030B4
:104C6000042807D34CF69F00C0F6000041F2F14142
:104C700002F09EF868680A2805D80121814040F2B8
:104C8000054211420AD1B0F5004F07D04CF69F0003
:104C9000C0F6000041F2F24102F08AF8E8681028FC
:104CA00008D34CF69F00C0F6000041F2F34102F039
:104CB0007FF8E8682168D5E901238D681A4325F457
:104CC0007F4542EA002028438860886840F480409D
:104CD0005DE140F2FF30C4F20100814200F3148133
:104CE00041F60000C4F20000814200F01A81002069
:104CF00012E14CF69F00C0F6000041F2355102F07F
:104D000057F821682A6840E740F60000C4F2000026
:104D1000814234D040F60040C4F200002CE040F65E
:104D20000000C4F2000081426DD040F60040C4F2A1
:104D3000000065E040F60000C4F20000814200F08F
:104D4000A78040F60040C4F200009EE040F600005C
:104D5000C4F20000814200F0E48040F60040C4F25A
:104D60000000DBE040F20040C4F20100814206D0C6
:104D700044F20000C4F20100814240F04B816868B7
:104D80000A2805D80121814040F2054211420AD18A
:104D9000B0F5004F07D04CF69F00C0F6000041F27E
:104DA000255102F005F8E868102808D34CF69F005A
:104DB000C0F6000041F2265101F0FAFFE8682168D0
:104DC0006A680B6A0D6A23F00A0325F001050D627B
:104DD0008D691A4325F0F00545EA001088610A62E2
:104DE000886840F0470020F03000D0E040F20040FA
:104DF000C4F20100814206D044F20000C4F2010076
:104E0000814240F0108168680A2805D8012181405C
:104E100040F2054211420AD1B0F5004F07D04CF6DE
:104E20009F00C0F6000041F2155101F0C1FFE86893
:104E3000102808D34CF69F00C0F6000041F216512E
:104E400001F0B6FFE86821686A680B6A0D6A23F012
:104E5000A00325F010050D628D6943EA021225F4C6
:104E6000704545EA003088610A62886840F0670052
:104E700020F010008BE040F20040C4F201008142BB
:104E800006D044F20000C4F20100814240F0D48018
:104E9000A8684FEA3030042807D34CF69F00C0F6CC
:104EA000000041F2D94101F083FF68680A2805D863
:104EB0000121814040F2054211420AD1B0F5004F74
:104EC00007D04CF69F00C0F6000041F2DA4101F035
:104ED0006FFFE868102808D34CF69F00C0F600006A
:104EE00041F2DB4101F064FFE8682168D5E9012364
:104EF0008D681A4325F47F4542EA002028438860E4
:104F0000886840F0770042E040F20040C4F20100BF
:104F1000814206D044F20000C4F20100814240F018
:104F2000948068680A2805D80121814040F2054232
:104F300011420AD1B0F5004F07D04CF69F00C0F6E1
:104F4000000041F2055101F033FFE868102808D352
:104F50004CF69F00C0F6000041F2065101F028FF18
:104F6000E86821686A680B6A0D6A23F00A0325F075
:104F700001050D628D691A4325F0F00545EA001020
:104F800088610A62886840F0570020F0200088603D
:104F90000020012184F83D10002184F83C10B0BDB0
:104FA000B1F1804FF5D040F20042C4F200029142CC
:104FB000EFD040F6000215E041F60042C4F20002D4
:104FC0009142E6D042F20002C4F200029142E0D0E7
:104FD000002212E041F20042C4F200029142D8D015
:104FE00041F60002C4F2000209E044F20042C4F2B9
:104FF00001029142CDD044F60002C4F20102914276
:10500000C7D04CF69F00C0F6000041F2CF4101F03E
:10501000CFFEBDE74CF69F00C0F6000041F22251E2
:1050200001F0C6FEABE64CF69F00C0F6000041F270
:10503000125101F0BDFEE6E64CF69F00C0F60000FE
:1050400041F2D64101F0B4FE22E74CF69F00C0F6D3
:10505000000041F2025101F0ABFE62E7016800205E
:10506000C4F20100814218BF704780B586B00021AC
:10507000019143F63001C4F202010A6800F5803064
:1050800042F001020A600968032201F00101019166
:1050900001994FF480710191022102910121039144
:1050A000CDE9042101A9FDF7ADFB06B0BDE88040C4
:1050B0007047000070B516460D460C2A044605D808
:1050C0000120B04041F21111084209D13C2E07D015
:1050D0004CF69F00C0F6000041F2820101F068FE2C
:1050E000286840F01000702807D04CF69F00C0F6EA
:1050F000000041F2830101F05BFEA86840F002006D
:10510000022807D04CF69F00C0F6000041F284014F
:1051100001F04EFE286940F00400042807D04CF648
:105120009F00C0F6000041F2850101F041FE94F8B5
:105130003C00012804BF022070BD4FEAB6010120E7
:10514000032984F83C0000F22381DFE801F0021E0D
:105150003348206841F6FF71C4F20001884253DCF5
:1051600040F6FF31C4F20001884200F3B580B0F18F
:10517000804F00F0DF8040F20041C4F2000188421D
:1051800000F0D88040F60001B4E0206841F2FF71E1
:10519000C4F2000188424DDC40F2FF71C4F200010C
:1051A000884200F3AA80B0F1804F00F0DE8040F228
:1051B0000041AAE0206840F6FF31C4F200018842B5
:1051C00048DCB0F1804F5FD040F20041C4F20001F2
:1051D000884259D040F60001C4F2000149E020683D
:1051E00040F6FF31C4F20001884254DCB0F1804F38
:1051F0006BD040F20041C4F20001884265D040F615
:105200000001C4F2000155E043F6FF71C4F2010150
:1052100088427DDC42F20001C4F20001884200F0C5
:1052200089800021C4F20101884200F0838040F2AD
:1052300000417BE040F2FF31C4F20101884200F3FB
:10524000888041F60001C4F20001884200F08D80A0
:10525000002186E040F60041C4F20001884213D0EC
:105260000021C4F2010188420ED040F20041C4F294
:105270000101884208D04CF69F00C0F6000041F2C0
:10528000B10101F095FD2068294601F0DFFB20689F
:1052900050F81C1F54E040F60041C4F2000188425F
:1052A00013D00021C4F2010188420ED040F2004127
:1052B000C4F20101884208D04CF69F00C0F60000FD
:1052C00041F2C20101F074FD2068294601F023FC7F
:1052D000206850F81C1F4EE040F60041C4F2000167
:1052E000884227D041F60001C4F20001884221D053
:1052F00041F60041C4F200011AE040F60001C4F298
:105300000001884231D040F60041C4F200012AE099
:1053100044F20001C4F2010188420BD044F2004182
:10532000C4F20101884205D044F60001C4F2010133
:1053300088423BD1294601F0C1FA206850F8181F75
:1053400041F008010160016821F004010160296950
:105350001AE040F20041C4F20101884205D044F253
:105360000001C4F20101884216D1294601F009FB6F
:10537000206850F8181F41F400610160016821F4B1
:1053800080610160296909020268114301600020FF
:10539000002184F83C1070BD4CF69F00C0F6000060
:1053A0004FF4855101F004FD2068DEE74CF69F00C4
:1053B000C0F6000041F28F0101F0FAFC2068B9E765
:1053C000E8B1B0B50446006841F6FF31C4F200010F
:1053D000884216DC40F6FF31C4F20001884225DD28
:1053E00041F2FF31C4F20001884239DC40F600414D
:1053F000C4F2000188424AD041F2000138E00120A5
:10540000704740F2FF31C4F2010188421ADD44F2D4
:10541000FF31C4F2010188422DDC40F20041C4F2A8
:105420000101884233D044F200012CE0B0F1804FFA
:105430002DD040F20041C4F20001884227D040F64E
:10544000000115E041F60041C4F2000188421ED07F
:1054500042F20001C4F20001884218D0002112E09B
:1054600041F20041C4F20001884210D041F600012F
:10547000C4F2000109E044F20041C4F20101884293
:1054800005D044F60001C4F20101884273D1A0683E
:105490004FEA3010062865D8012101FA00F010F01B
:1054A000570F5FD0206968B1B0F5807F0AD0B0F5A2
:1054B000007F07D04CF69F00C0F6000040F22E514E
:1054C00001F076FC2068B0F1804F05D040F6004135
:1054D000C4F2000188423ED1E06838B94CF69F0022
:1054E000C0F6000040F22F5101F062FCA069251DBA
:1054F00040F08000802807D04CF69F00C0F60000E6
:105500004FF4A66101F054FC94F83D0028B9002046
:1055100084F83C00204600F037F8022084F83D0073
:105520002068294601F0B8F8012084F8460084F884
:105530003E0084F83F0084F8400084F8410084F87D
:10554000420084F8430084F8440084F8450084F85D
:105550003D000020B0BDE0684FF6FF710138884281
:10556000BCD2C3E74CF69F00C0F6000040F22D51BC
:1055700001F01EFC96E74CF69F00C0F6000040F2DA
:105580002C5101F015FC82E77047B0B50446006865
:1055900040F6FF32C4F2000290420D460DDCB0F13D
:1055A000804F1BD040F20041C4F20001884215D068
:1055B00040F60001C4F200010EE040F60041C4F2E2
:1055C000000188420AD040F20041C4F20101884241
:1055D00004D00021C4F2010188420FD14FEAB50185
:1055E000042917D2002D52D0082D04D0042D3FD00D
:1055F00004F141003EE004F140003BE06FF00401A3
:105600000D4207D141F60001C4F2000101F59431C9
:105610008842E7D041F6000CC4F2000CA0EB0C016C
:105620005DB9A1F59633A1F59832B3FA83F3B2FAD6
:1056300082F25B0952091A4329D1604515D05DB940
:10564000A1F58060A1F50061B0FA80F0B1FA81F1B6
:105650004009490908431AD14CF69F00C0F60000E2
:1056600040F2B35101F0A4FBBCE785B1042DE6D1B3
:1056700004F13F000078012811D10220082D10D03C
:10568000042D14BF84F8410084F83F000BE094F827
:105690003E00012803D1022084F83E0003E00120EF
:1056A000B0BD84F8400020682946012201F08AF844
:1056B000206841F2FF71C4F2000188420BDC40F225
:1056C000FF71C4F20001884213DCB0F1804F35D085
:1056D00040F2004115E040F2FF31C4F2010188427E
:1056E00014DC41F60001C4F20001884226D00021FA
:1056F00014E040F60001C4F2000188421ED040F6DA
:105700000041C4F20001884218D01CE044F20001BC
:10571000C4F20101884211D040F20041C4F20101FB
:10572000884210D1416C40F2004340F48062C4F2E0
:10573000010341F400419A42416404D1816801F0BF
:105740000701062903D0016841F001010160002032
:10575000B0BDA8B110B581690446006891B140F6AA
:10576000FF72C4F20102904225DC44F20042C4F20E
:105770000002904234D044F60002C4F2000224E059
:105780000120704744F6FF71C4F2000188424FF4D3
:10579000BC7132DC44F20042C4F2000290423ED0BE
:1057A00044F60002C4F20002904238D044F60042AF
:1057B000C4F2000231E041F20002C4F20102904260
:1057C0000ED041F20042C4F20102904208D04CF6E1
:1057D0001210C0F6000040F2731101F0E9FAA1695D
:1057E0004FEA312004281AD34FF4BA714CF6121044
:1057F000C0F6000001F0DCFA11E045F20002C4F24C
:10580000000290420BD041F20002C4F20102904229
:1058100005D041F20042C4F201029042E6D1A068F4
:1058200040F48050B0F5805F07D04CF61210C0F6FF
:1058300000004FF4BD7101F0BBFAE06940F4004094
:10584000B0F5004F07D04CF61210C0F6000040F241
:105850007B1101F0ADFA94F8410028B9002084F8DA
:105860004000204600F021F8242084F84100206800
:10587000C16821F40051C160204601F0AFF92068F1
:10588000016921F490410161416921F02A014161DE
:10589000C16841F40051C16000202021606484F897
:1058A000411084F84210606310BD016841F20000AD
:1058B000C4F20100814218BF704780B586B0002154
:1058C00043F630020191C4F20202536900F57040C0
:1058D00043F010035361536903F010030193019BDC
:1058E0000191136843F001031360126802F0010292
:1058F0000192019A4FF4C06201920222CDE9022185
:10590000032104910721059101A9FCF77BFF06B053
:10591000BDE88040704700002DE9F041044690F852
:10592000410020281CBF0220BDE8F0810D4600295F
:105930004FF001003DD01746DAB30020606421200B
:10594000984684F84100FDF7E8F8A784E784A16849
:105950000746B1F5805F01D1206910B12E460025C0
:1059600000E00026E08CC0B1204680213A46434644
:1059700001F0DEF9F8B92EB116F8010B2168486084
:1059800007E000BF35F8020B21686FF35F20486025
:105990000026E08C0138E084E4E7204640213A46C6
:1059A000434601F0C5F9202184F84110002818BFB2
:1059B0000320BDE8F081202084F841000320BDE8E9
:1059C000F0810000FEE72DE9F04782B00446006850
:1059D0009A460B9D0A9E0368914643F480620260DA
:1059E00002680F4642F48071016020464FF00111B9
:1059F00000223346009500F0F9F840B120680068B5
:105A0000C00544BF4FF40070206403203CE040F226
:105A100002082068C0F2010807F0FE07076120466F
:105A2000414632462B4600F039F960BB0020019018
:105A300020682A46416901918069314601900198A8
:105A4000204600F0A7F9B0B92068BAF1010F09D0DB
:105A50004FEA19210161204631462A4600F09AF9A1
:105A600048B920685FFA89F10161204631462A462B
:105A700000F090F958B1206C042804D12068016826
:105A800041F400710160012002B0BDE8F087206898
:105A900000220168334641F48071016020464FF0D6
:105AA0000111009500F0A2F80028A7D147F0010CE1
:105AB00027682046414632462B46C7F810C002B040
:105AC000BDE8F04700F0EAB82DE9F04383B00446A2
:105AD00000680D4601680A9F0B9E41F4807199464B
