:020000040800F2
:10000000F80B00209D010008513400085D30000805
:100010004D34000831070008D13C00080000000002
:10002000000000000000000000000000BD360008D5
:100030003507000800000000C1340008153700082B
:10004000B7010008B7010008B7010008B7010008B0
:10005000B7010008B7010008B7010008B7010008A0
:10006000B7010008B7010008B7010008B701000890
:10007000B7010008B7010008B7010008B701000880
:10008000B7010008B7010008B7010008B701000870
:10009000B7010008B7010008B7010008B701000860
:1000A000B7010008B7010008B7010008B701000850
:1000B000B7010008B7010008B7010008B701000840
:1000C000B7010008B7010008B7010008B701000830
:1000D000B7010008C13C0008B7010008B7010008DB
:1000E000B7010008B7010008B7010008B701000810
:1000F000B7010008B7010008B7010008B701000800
:10010000B7010008B7010008B7010008B7010008EF
:10011000B7010008B7010008B7010008B7010008DF
:10012000B7010008B7010008B7010008B7010008CF
:10013000B7010008B7010008B7010008B7010008BF
:10014000B7010008B7010008B7010008B7010008AF
:10015000B7010008B7010008B7010008B70100089F
:10016000B7010008B7010008B7010008B70100088F
:10017000B7010008B7010008B7010008000000003F
:10018000B7010008B7010008DFF80CD000F048FA0A
:100190000048004715480008F80B00200648804733
:1001A00006480047FEE7FEE7FEE7FEE7FEE7FEE75C
:1001B000FEE7FEE7FEE7FEE7E937000889010008F1
:1001C0002DE9F05F0546002092469B46884606468C
:1001D000814640241BE0284641464746224600F01F
:1001E00057F853465A46C01A914110D31146184643
:1001F000224600F03EF82D1A67EB01084F462246D2
:100200000120002100F035F817EB00094E41201EB7
:10021000A4F10104DFDC484631462A464346BDE8E6
:10022000F09FD2B201E000F8012B491EFBD27047CB
:100230000022F6E710B513460A4604461946FFF7B2
:10024000F0FF204610BD30B50B46014600202022AD
:10025000012409E021FA02F59D4205D303FA02F5D3
:10026000491B04FA02F52844151EA2F10102F1DC33
:1002700030BD202A04DB203A00FA02F1002070474A
:100280009140C2F1200320FA03F3194390407047D4
:10029000202A04DB203A21FA02F00021704721FADB
:1002A00002F3D040C2F12002914008431946704742
:1002B0002DE9FE4F804681EA0300C00F0C460090F6
:1002C00021F0004123F00045B8EB0200A94105D21E
:1002D0004046214690461C460B46024623F000400D
:1002E000104347D0270DC7F30A00C3F30A51029009
:1002F000401A019040286BDAC3F3130040F4801BCE
:100300000098924620B10023D2EB030A63EB0B0B5B
:1003100001985946C0F140025046FFF7AAFF064631
:100320000D4650465946019A00F092F910EB08002C
:100330006141002487EA115284EAE7731A4340D0EE
:10034000009A62B3019A012A4FEA075215DC001B9A
:1003500061EB02014FF0004202EA0752CDE9004290
:10036000001C41F5801132462B4600F092F903B093
:10037000BDE8F08F40462146F9E7001B61EB020122
:10038000001C41F5801300185B412018A2F50017EE
:1003900047EB030140EAD570B6196D4111E06D08D5
:1003A0004FEA360645EAC0754FEA0752001B61EB7B
:1003B0000201001C41F5801149084FEA3000001984
:1003C000514132462B4603B0BDE8F04F00F052B920
:1003D0000098012240000023D0EB020263EBE0739F
:1003E000009821464FEAE074B8EB000061EB04018D
:1003F000E9E783F000435BE781F0004158E72DE92E
:10040000FE4F81EA030404F0004421F0004100940F
:100410004FF0000B23F0004350EA01045ED052EA93
:1004200003045BD0C3F30A54C1F30A552C44A4F26D
:10043000F3340194A0FB0254C1F3130141F4801181
:10044000C3F3130343F4801301FB024400FB034E88
:10045000840A970A44EA815447EA8357A4FB076851
:1004600002958D0A05FB07854FEA932C04FB0C547B
:100470002705029D4FEA065847EA1637B5EB0805EF
:100480006EEB070C870E920E47EA811742EA831241
:10049000A7FB0201B6EB0B0164EB00042B0D43EA52
:1004A0000C335E1844EB1C50DA465146E7FB020160
:1004B000C5F313044FEA0B3343EA14534FEA0432F3
:1004C000019C43EA0603A4F10C040294009CCDE9CC
:1004D00000B400F0DEF803B0BDE8F08F0020014664
:1004E000F9E72DE9F04D81EA030404F0004B21F017
:1004F000004514464FF0000A23F0004150EA05027F
:1005000020D054EA01021DD0C5F30A570246C5F3B4
:100510001303C1F31300C1F30A5640F4801543F4EA
:100520008013A7EB0608101BD64608F2FD3873EBC4
:10053000050002D308F1010801E092185B41B8F10F
:10054000000F03DA00200146BDE8F08D00204FF4D3
:100550008011064684460EE0171B73EB050705D392
:10056000121B63EB050306434CEA010C49084FEAF2
:10057000300092185B4150EA0107EDD152EA0300C6
:1005800012D082EA040083EA0501084305D0101B5B
:10059000AB4106D20122002306E000224FF00043C7
:1005A00002E06FF0010253101AEB06004CEB085109
:1005B00010EB0A0041EB0B01BDE8F04D00F05AB81A
:1005C000C1F30A52C1F3130140F2FF3341F4801129
:1005D0009A4202DA00200146704740F233439A42C1
:1005E000A2F2334202DC5242FFF752BEFFF741BE95
:1005F00030B5041E71F1000404DB4FF000444042AA
:1006000064EB0101141E73F1000405DB1C464FF07E
:100610000043524263EB0403994208BF904230BD4D
:100620001CB509480090094801900546009C06E069
:10063000E06840F0010394E8070098471034AC42AA
:10064000F6D3FFF7A5FD0000D8870008F88700085B
:10065000202A06DBCB17203A41FA02F043EAE07386
:1006600006E041FA02F3D040C2F120029140084373
:100670001946704710B5141E73F1000408DA401CC7
:1006800041F1000192185B411A4301D120F00100B1
:1006900010BD2DE9F04D92469B4611B1B1FA81F2A1
:1006A00002E0B0FA80F220329046FFF7E2FD044605
:1006B0000F4640EA0A0041EA0B0153465A460843F6
:1006C00013D0114653EA010019D0C8F14002504638
:1006D000FFF7DEFD05460E46504659464246FFF7F7
:1006E000C8FD084305D0012004E020463946BDE896
:1006F000F08D0020054346EAE0762C4337430A9804
:100700006305E40AA0EB08000022FD0A44EA47540E
:100710000A3002D500200146E9E7010510196941B8
:10072000DDE9084500196941BDE8F04DA2E7000088
:10073000FFE7FEE77047000072B6FFE7FEE7000044
:1007400080B584B002900298806D019000F098FC12
:100750000090029890F8350002280DD0FFE702992A
:1007600080204865FFE70299002081F83400FFE708
:1007700001208DF80F0055E002980168086820F00C
:100780001600086002980168486920F080004861FE
:100790000298006C20B9FFE70298806C38B1FFE73F
:1007A00002980168086820F008000860FFE70298D6
:1007B0000168086820F001000860FFE702980068FF
:1007C0000068C007C8B1FFE700F05AFC0099401A62
:1007D000062811D3FFE702992020486502990320DB
:1007E00081F83500FFE70299002081F83400FFE727
:1007F00003208DF80F0015E0E0E70298C16D3F205F
:100800008840019988600299012081F83500FFE74E
:100810000299002081F83400FFE7FFE700208DF8FF
:100820000F00FFE79DF80F0004B080BD82B000907C
:10083000009890F83500022807D0FFE70099802043
:10084000486501208DF807000EE00099052081F829
:10085000350000980168086820F001000860FFE793
:1008600000208DF80700FFE79DF8070002B07047F1
:1008700080B584B0039000F003FC029003980190CF
:100880000198013048B1FFE740F2C800C2F2000011
:100890000178019808440190FFE7FFE700F0F0FBC2
:1008A0000299401A0199884201D2FFE7F6E704B0A5
:1008B00080BD000080B58EB00D900C9100200A9094
:1008C000099008900D980021C4F20201884240D09E
:1008D000FFE70D9840F20041C4F20201884238D08F
:1008E000FFE70D9840F60001C4F20201884230D0C3
:1008F000FFE70D9840F60041C4F20201884228D07B
:10090000FFE70D9841F20001C4F20201884220D0B5
:10091000FFE70D9841F20041C4F20201884218D06D
:10092000FFE70D9841F60001C4F20201884210D0A1
:10093000FFE70D9841F60041C4F20201884208D059
:10094000FFE70D9842F20001C4F20201884201D192
:10095000FFE707E048F20B70C0F60000AC2103F09F
:1009600019FAFFE70C98008828B1FFE70C98408837
:1009700008B9FFE707E048F20B70C0F60000AD21B0
:1009800003F008FAFFE70C984068E8B3FFE70C981B
:100990004068012838D0FFE70C984068112833D010
:1009A000FFE70C98406802282ED0FFE70C984068BB
:1009B000122829D0FFE70C984068B0F5881F23D093
:1009C000FFE70C984068B0F5041F1DD0FFE70C98B6
:1009D0004068B0F5441F17D0FFE70C984068B0F5A9
:1009E000901F11D0FFE70C984068B0F5081F0BD09E
:1009F000FFE70C984068B0F5481F05D0FFE70C985A
:100A00004068032801D1FFE707E048F20B70C0F609
:100A10000000AE2103F0BEF9FFE700200B90FFE7D6
:100A20000B980F2800F2C782FFE70B99012088403E
:100A30000A900C9800680A990840099009980A9948
:100A4000884240F0B382FFE70C98406800F0030052
:100A5000012807D0FFE70C98406800F00300022847
:100A60004BD1FFE70C98C06878B1FFE70C98C068DD
:100A700001280AD0FFE70C98C068022805D0FFE7DC
:100A80000C98C068032801D1FFE707E048F20B701B
:100A9000C0F60000C02103F07DF9FFE70D988068E3
:100AA00008900B984100032000FA01F10898884350
:100AB00008900C98C0680B99490000FA01F1089859
:100AC0000843089008980D9988600D984068089030
:100AD0000B99012000FA01F10898884308900C98BE
:100AE0004068C0F300100B9900FA01F10898084320
:100AF000089008980D994860FFE70C98406800F04E
:100B0000030003282FD0FFE70C98806850B1FFE75F
:100B10000C988068012805D0FFE70C9880680228AF
:100B200001D1FFE707E048F20B70C0F60000D121C9
:100B300003F030F9FFE70D98C06808900B9841006A
:100B4000032000FA01F10898884308900C98806807
:100B50000B99490000FA01F1089808430890089899
:100B60000D99C860FFE70C98406800F00300022868
:100B700040F0EE80FFE70C980069002800F0B98093
:100B8000FFE70C980069092800F0B380FFE70C9894
:100B90000069002800F0AD80FFE70C98006900288C
:100BA00000F0A780FFE70C980069002800F0A18002
:100BB000FFE70C980069002800F09B80FFE70C9885
:100BC0000069012800F09580FFE70C980069012872
:100BD00000F08F80FFE70C980069022800F0898000
:100BE000FFE70C980069022800F08380FFE70C986B
:100BF000006902287DD0FFE70C980069032878D0AF
:100C0000FFE70C980069042873D0FFE70C9800698F
:100C100004286ED0FFE70C980069042869D0FFE72C
:100C20000C980069052864D0FFE70C980069052836
:100C30005FD0FFE70C98006909285AD0FFE70C98AD
:100C40000069062855D0FFE70C980069092850D0A4
:100C5000FFE70C98006907284BD0FFE70C98006964
:100C6000072846D0FFE70C980069072841D0FFE726
:100C70000C98006908283CD0FFE70C980069082808
:100C800037D0FFE70C980069082832D0FFE70C98AE
:100C9000006909282DD0FFE70C980069092828D0A1
:100CA000FFE70C9800690A2823D0FFE70C98006939
:100CB0000A281ED0FFE70C9800690B2819D0FFE71F
:100CC0000C9800690C2814D0FFE70C9800690C28D8
:100CD0000FD0FFE70C9800690D280AD0FFE70C98A9
:100CE00000690C2805D0FFE70C9800690F2801D196
:100CF000FFE707E048F20B70C0F60000DE2103F0CA
:100D000049F8FFE70D980B996FF0030202EA5101D1
:100D10000844006A08900B9800F0070081000F203B
:100D200000FA01F10898884308900C9800690B9923
:100D300001F00701890000FA01F1089808430890C2
:100D400008980D990B9B02EA530211440862FFE7D1
:100D50000D98006808900B984100032000FA01F1FB
:100D60000898884308900C98406800F003000B999D
:100D7000490000FA01F108980843089008980D9975
:100D800008600C9880798007002800F00E81FFE74A
:100D9000FFE70020079043F64400C4F20200016818
:100DA00041F480410160006800F48040079007989A
:100DB000FFE70B9820F0030043F60801C4F201019D
:100DC000405808900B9800F0030081000F2000FAB3
:100DD00001F10898884308900D980021C4F202019F
:100DE000884203D1FFE7002006905EE00D9840F2B4
:100DF0000041C4F20201884203D1FFE701200590BF
:100E000050E00D9840F60001C4F20201884203D17F
:100E1000FFE70220049042E00D9840F60041C4F242
:100E20000201884203D1FFE70320039034E00D98CC
:100E300041F20001C4F20201884203D1FFE704201D
:100E4000029026E00D9841F20041C4F2020188426E
:100E500003D1FFE70520019018E00D9841F600014D
:100E6000C4F20201884203D1FFE7062000900AE0A5
:100E70000D9941F60042C4F202020820914208BFD7
:100E800007200090FFE700980190FFE7019802908B
:100E9000FFE702980390FFE703980490FFE70498A8
:100EA0000590FFE705980690FFE70698C0B20B99FA
:100EB00001F00301890000FA01F108980843089045
:100EC00008980B9921F0030143F60802C4F20102CD
:100ED000885043F60840C4F2010000680890099960
:100EE0000898884308900C988079C006002805D59A
:100EF000FFE70999089808430890FFE7089843F628
:100F00000841C4F20101086043F60C40C4F201003C
:100F10000068089009990898884308900C9880798F
:100F20008006002805D5FFE709990898084308902E
:100F3000FFE7089843F60C41C4F20101086043F64C
:100F40000440C4F201000068089009990898884399
:100F500008900C9880798007002805D5FFE709994B
:100F6000089808430890FFE7089843F60441C4F244
:100F70000101086043F60040C4F2010000680890D7
:100F800009990898884308900C988079C00728B17F
:100F9000FFE70999089808430890FFE7089843F687
:100FA0000041C4F201010860FFE7FFE7FFE70B988B
:100FB00001300B9034E50EB080BD000080B584B0E8
:100FC0000390ADF80A10BDF80A0020B1FFE7002039
:100FD00008B9FFE708E048F20B70C0F600004FF4D4
:100FE000DB7102F0D7FEFFE7039840690190019A98
:100FF000BDF80A0002EA0001904340EA014003996B
:10100000886104B080BD000080B582B00190ADF869
:1010100002108DF80120BDF8020020B1FFE700208A
:1010200008B9FFE708E048F20B70C0F6000040F294
:101030009D1102F0AFFEFFE79DF8010028B1FFE728
:101040009DF80100012801D1FFE708E048F20B708C
:10105000C0F600004FF4CF7102F09CFEFFE79DF850
:10106000010028B1FFE7BDF802000199886105E0A1
:10107000BDF80200000401998861FFE702B080BD5D
:1010800040F2F030C2F200000068704740F2C80041
:10109000C2F20000027840F2F031C2F200010868AA
:1010A000104408607047000080B543F60041C4F268
:1010B0000201086840F400700860086840F480602D
:1010C0000860086840F480700860032000F0B2F8FF
:1010D0000F2000F005F800F03BF8002080BD000074
:1010E00080B582B0009040F20000C2F200000068BB
:1010F00040F2C801C2F200010A784FF47A71B1FBE4
:10110000F2F1B0FBF1F001F021FC20B1FFE701208A
:101110008DF8070018E000980F280DD8FFE7009918
:101120004FF0FF30002200F051F8009840F2CC015F
:10113000C2F20001086003E001208DF8070003E01F
:1011400000208DF80700FFE79DF8070002B080BD82
:1011500082B0FFE70020019043F64400C4F2020091
:10116000016841F480410160006800F48040019012
:101170000198FFE7FFE70020009043F64000C4F22B
:101180000200016841F080510160006800F0805069
:1011900000900098FFE702B07047000080B582B071
:1011A0008DF807009DF90700002801D4FFE707E04C
:1011B00048F24470C0F60000BC2102F0EBFDFFE7EE
:1011C0009DF9070002F086FD02B080BD80B586B0B3
:1011D0008DF81700049103920020029003980F28C5
:1011E00001D8FFE707E048F24470C0F60000A821EC
:1011F00002F0D0FDFFE704980F2801D8FFE707E0D1
:1012000048F24470C0F60000A92102F0C3FDFFE7D8
:1012100002F078FD02909DF9170001900298049960
:10122000039A02F017F90146019802F073FD06B027
:1012300080BD000080B582B001900198072810D0D1
:10124000FFE7019806280CD0FFE70198052808D091
:10125000FFE70198042804D0FFE70198032801D193
:10126000FFE707E048F24470C0F60000902102F06A
:1012700091FDFFE7019802F06FFD02B080BD000014
:1012800080B584B002900191029820B9FFE7012057
:101290008DF80F00FDE10298006830B1FFE7029879
:1012A00000680F2801D8FFE708E048F2D360C0F6D5
:1012B000000040F25A2102F06DFDFFE70198E0B115
:1012C000FFE70198012818D0FFE70198022814D001
:1012D000FFE70198032810D0FFE7019804280CD0FD
:1012E000FFE70198052808D0FFE70198062804D0F9
:1012F000FFE70198072801D1FFE708E048F2D36033
:10130000C0F6000040F25B2102F044FDFFE70198C7
:1013100043F60041C4F20201096801F00701884266
:1013200012D9FFE7019943F60040C4F202000170B0
:10133000006800F007000199884204D0FFE701200F
:101340008DF80F00A5E1FFE70298007880070028DC
:1013500060D5FFE7029800784007002809D5FFE72D
:1013600043F60801C4F20201086840F4E050086046
:10137000FFE7029800780007002809D5FFE743F649
:101380000801C4F20201086840F460400860FFE709
:101390000298806840B3FFE702988068802823D0D5
:1013A000FFE70298806890281ED0FFE702988068C7
:1013B000A02819D0FFE702988068B02814D0FFE772
:1013C00002988068C0280FD0FFE702988068D02874
:1013D0000AD0FFE702988068E02805D0FFE702986E
:1013E0008068F02801D1FFE708E048F2D360C0F63A
:1013F000000040F27E2102F0CDFCFFE743F6080139
:10140000C4F20201086820F0F000029A92681043CA
:101410000860FFE702980078C007002800F08C8081
:10142000FFE70298406878B1FFE70298406801281A
:101430000AD0FFE702984068022805D0FFE702982B
:101440004068032801D1FFE708E048F2D360C0F606
:10145000000040F2852102F09DFCFFE70298406801
:10146000012811D1FFE743F60000C4F20200006832
:1014700000F400310020B0EB514F04D1FFE7012010
:101480008DF80F0005E12CE002984068022805D095
:10149000FFE702984068032811D1FFE743F60000F8
:1014A000C4F20200006800F000710020B0EB516F40
:1014B00004D1FFE701208DF80F00EAE010E043F6C9
:1014C0000000C4F20200006800F002010020B0EB4E
:1014D000510F04D1FFE701208DF80F00D9E0FFE79D
:1014E000FFE743F60801C4F20201086820F0030098
:1014F000029A526810430860FFF7C2FD0090FFE7B0
:1015000043F60800C4F20200006800F00C000299E3
:101510004968B0EB810F0ED0FFE7FFF7B1FD0099EE
:10152000401A41F28931884204D3FFE703208DF845
:101530000F00AEE0E4E7FFE7019843F60041C4F294
:101540000201096801F00701884212D2FFE7019900
:1015500043F60040C4F202000170006800F007008A
:101560000199884204D0FFE701208DF80F0090E038
:10157000FFE7029800784007002832D5FFE702987D
:10158000C068C0B1FFE70298C068B0F5805F12D0B4
:10159000FFE70298C068B0F5A05F0CD0FFE70298A3
:1015A000C068B0F5C05F06D0FFE70298C068B0F52C
:1015B000E05F01D1FFE708E048F2D360C0F6000029
:1015C00040F2C32102F0E6FBFFE743F60801C4F254
:1015D0000201086820F4E050029AD26810430860C3
:1015E000FFE7029800780007002833D5FFE702984C
:1015F0000069C0B1FFE702980069B0F5805F12D0C2
:10160000FFE702980069B0F5A05F0CD0FFE70298F1
:101610000069B0F5C05F06D0FFE702980069B0F539
:10162000E05F01D1FFE708E048F2D360C0F60000B8
:1016300040F2CA2102F0AEFBFFE743F60801C4F214
:101640000201086820F46040029A126940EAC20070
:101650000860FFE700F04CF843F60801C4F202010D
:101660000968C9B20A0945F20021C0F60001895C87
:10167000C84040F20001C2F20001086040F2CC0014
:10168000C2F200000068FFF72BFD00208DF80F006C
:10169000FFE79DF80F0004B080BD000040F200009D
:1016A000C2F200000068704780B5FFF7F7FF43F60D
:1016B0000801C4F202010968C1F3822245F2102137
:1016C000C0F60001895CC84080BD000080B5FFF70E
:1016D000E5FF43F60801C4F20201096889B24A0B2A
:1016E00045F21021C0F60001895CC84080BD0000B1
:1016F00080B586B00020059004900390029043F6D8
:101700000800C4F20200006800F00C0001460191DC
:1017100040B1FFE7019804280AD0FFE701980828A4
:101720000CD04FE042F20040C0F2F40002904FE0D3
:1017300041F20020C0F27A00029049E043F6040032
:10174000C4F20200016801F03F0105910068400207
:10175000002813D5FFE743F60400C4F20200006836
:10176000C0F3881041F20021C0F27A01A0FB010110
:10177000059A0023FEF724FD049012E043F60400CE
:10178000C4F202000068C0F3881042F20041C0F2C7
:10179000F401A0FB0101059A0023FEF711FD04905E
:1017A000FFE743F60400C4F20200006800F4403191
:1017B000022000EBD130039004980399B0FBF1F0C4
:1017C000029005E042F20040C0F2F4000290FFE710
:1017D000029806B080BD000080B58AB009900891DB
:1017E0000792099820B1FFE70998012801D1FFE786
:1017F00008E048F2D360C0F6000040F20B3102F07E
:10180000C9FAFFE70798A0B1FFE70798B0F1806F2A
:101810000FD0FFE70798B0F1A06F0AD0FFE7079855
:10182000B0F1C06F05D0FFE70798B0F1E06F01D1CC
:10183000FFE708E048F2D360C0F600004FF44371C0
:1018400002F0A8FAFFE7099800284AD1FFE70898B4
:1018500078B1FFE70898B0F5001F0AD0FFE70898B5
:10186000B0F5800F05D0FFE70898B0F5C00F01D1A3
:10187000FFE708E048F2D360C0F600004FF444717F
:1018800002F088FAFFE7FFE70020019043F63000FE
:10189000C4F20200016841F001010160006800F03B
:1018A000010001900198FFE74FF480700290022040
:1018B0000390032005900020049006900020C4F2BD
:1018C000020002A9FEF7F6FF43F60801C4F2020186
:1018D000086820F0EC60089A079B1A4310430860E0
:1018E0004BE0089878B1FFE70898B0F1804F0AD034
:1018F000FFE70898B0F1004F05D0FFE70898B0F176
:10190000404F01D1FFE708E048F2D360C0F6000085
:101910004FF44A7102F03EFAFFE7FFE70020009023
:1019200043F63000C4F20200016841F00401016096
:10193000006800F0040000900098FFE74FF400708A
:10194000029002200390032005900020049006904E
:1019500040F60000C4F2020002A9FEF7ABFF43F616
:101960000801C4F20201086820F07840089A079B39
:1019700042EAC30210430860FFE70AB080BD0000DE
:1019800080B586B00490049828B9FFE701208DF84F
:10199000170000F04DBC049800680F2801D8FFE73D
:1019A00007E048F2D360C0F60000E62102F0F2F949
:1019B000FFE704980078C007002800F0BE80FFE72A
:1019C0000498406860B1FFE704984068B0F5803F34
:1019D00006D0FFE704984068B0F5A02F01D1FFE7DB
:1019E00007E048F2D360C0F60000EB2102F0D2F924
:1019F000FFE743F60800C4F20200006800F00C00A4
:101A0000042813D0FFE743F60800C4F20200006880
:101A100000F00C0008281ED1FFE743F60400C4F2D2
:101A2000020000684002002815D5FFE743F60000D9
:101A3000C4F20200006800F400310020B0EB514F06
:101A400008D0FFE70498406820B9FFE701208DF82F
:101A50001700EDE370E0FFE704984068B0F5803FC1
:101A600009D1FFE743F60001C4F20201086840F41F
:101A70008030086020E004984068B0F5A02F0DD1B8
:101A8000FFE743F60001C4F20201086840F4802039
:101A90000860086840F4803008600CE043F60001FC
:101AA000C4F20201086820F480300860086820F45D
:101AB00080200860FFE7FFE7FFE704984068E8B18F
:101AC000FFE7FFF7DDFA0390FFE743F60000C4F2FB
:101AD0000200006800F400310020B0EB514F0CD13F
:101AE000FFE7FFF7CDFA0399401A652804D3FFE713
:101AF00003208DF817009BE3E7E71CE0FFF7C0FA2F
:101B00000390FFE743F60000C4F20200006800F40F
:101B100000310020B0EB514F0CD0FFE7FFF7B0FAD7
:101B20000399401A652804D3FFE703208DF81700B6
:101B30007EE3E7E7FFE7FFE7FFE704980078800729
:101B4000002840F1B880FFE70498C06828B1FFE79B
:101B50000498C068012801D1FFE708E048F2D3608B
:101B6000C0F6000040F21D1102F014F9FFE70498DE
:101B700000691F2801D8FFE708E048F2D360C0F6EB
:101B800000004FF48F7102F005F9FFE743F60800FB
:101B9000C4F20200006810F00C0F13D0FFE743F608
:101BA0000800C4F20200006800F00C0008282CD1E4
:101BB000FFE743F60400C4F2020000684002002878
:101BC00023D4FFE743F60000C4F20200006800F0EF
:101BD00002010020B0EB510F09D0FFE70498C06864
:101BE000012804D0FFE701208DF8170020E343F619
:101BF0000001C4F20201086820F0F800049A12699A
:101C000040EAC2000860FFE754E00498C06870B37F
:101C1000FFE70021C4F2472101200860FFF730FAF6
:101C20000390FFE743F60000C4F20200006800F0F2
:101C300002010020B0EB510F0CD1FFE7FFF720FAB3
:101C40000399401A032804D3FFE703208DF81700F7
:101C5000EEE2E7E743F60001C4F20201086820F073
:101C6000F800049A126940EAC200086021E00021ED
:101C7000C4F2472100200860FFF702FA0390FFE753
:101C800043F60000C4F20200006800F002010020E8
:101C9000B0EB510F0CD0FFE7FFF7F2F90399401AB0
:101CA000032804D3FFE703208DF81700C0E2E7E71D
:101CB000FFE7FFE7FFE704980078000700285ED5FC
:101CC000FFE70498406928B1FFE7049840690128BC
:101CD00001D1FFE708E048F2D360C0F600004FF4FE
:101CE000AF7102F057F8FFE70498406918B3FFE7B7
:101CF00040F68061C4F2472101200860FFF7C0F977
:101D00000390FFE743F67400C4F20200006800F09D
:101D100002010020B0EB510F0CD1FFE7FFF7B0F943
:101D20000399401A032804D3FFE703208DF8170016
:101D30007EE2E7E722E040F68061C4F2472100201E
:101D40000860FFF79DF90390FFE743F67400C4F2C3
:101D50000200006800F002010020B0EB510F0CD02F
:101D6000FFE7FFF78DF90399401A032804D3FFE733
:101D700003208DF817005BE2E7E7FFE7FFE7049831
:101D800000784007002840F1E680FFE700208DF84A
:101D900007000498806850B1FFE704988068012824
:101DA00005D0FFE704988068052801D1FFE708E027
:101DB00048F2D360C0F600004FF4C57101F0EAFFAD
:101DC000FFE743F64000C4F202000068C0000028AC
:101DD00015D4FFE7FFE70020009043F64000C4F26F
:101DE0000200016841F080510160006800F08050FD
:101DF00000900098FFE701208DF80700FFE747F209
:101E00000000C4F200000068C005002822D4FFE7EB
:101E100047F20001C4F20001086840F480700860D5
:101E2000FFF72EF90390FFE747F20000C4F200002D
:101E30000068C00500280CD4FFE7FFF721F90399DB
:101E4000401A032804D3FFE703208DF81700EFE1C1
:101E5000EAE7FFE7FFE704988068012809D1FFE778
:101E600043F67001C4F20201086840F00100086006
:101E70001FE00498806805280DD1FFE743F6700144
:101E8000C4F20201086840F004000860086840F0ED
:101E9000010008600CE043F67001C4F2020108681A
:101EA00020F001000860086820F004000860FFE7E7
:101EB000FFE7FFE704988068F8B1FFE7FFF7E0F875
:101EC0000390FFE743F67000C4F20200006800F0E0
:101ED00002010020B0EB510F0ED1FFE7FFF7D0F861
:101EE0000399401A41F28931884204D3FFE7032065
:101EF0008DF817009CE1E5E71EE0FFF7C1F80390BD
:101F0000FFE743F67000C4F20200006800F002012F
:101F10000020B0EB510F0ED0FFE7FFF7B1F80399A7
:101F2000401A41F28931884204D3FFE703208DF83B
:101F300017007DE1E5E7FFE79DF80700012809D1DB
:101F4000FFE743F64001C4F20201086820F0805028
:101F50000860FFE7FFE70498806950B1FFE7049845
:101F60008069012805D0FFE704988069022801D123
:101F7000FFE708E048F2D360C0F6000040F2CD1160
:101F800001F008FFFFE704988069002800F04C8109
:101F9000FFE743F60800C4F20200006800F00C00FE
:101FA000082800F0F580FFE704988069022840F0D7
:101FB000CC80FFE70498C06930B1FFE70498C0699E
:101FC000B0F5800F01D1FFE708E048F2D360C0F61A
:101FD00000004FF4EB7101F0DDFEFFE70498006AAA
:101FE000022806D3FFE70498006A3F2801D8FFE7DC
:101FF00008E048F2D360C0F6000040F2D71101F0CB
:10200000C9FEFFE70498406A322807D3FFE7049827
:10201000406AB0F5D87F01D8FFE708E048F2D36006
:10202000C0F600004FF4EC7101F0B4FEFFE7049835
:10203000806A02280FD0FFE70498806A04280AD03B
:10204000FFE70498806A062805D0FFE70498806AB5
:10205000082801D1FFE708E048F2D360C0F600008D
:1020600040F2D91101F096FEFFE70498C06A0228F9
:1020700006D3FFE70498C06A0F2801D8FFE708E0FD
:1020800048F2D360C0F600004FF4ED7101F082FE1B
:10209000FFE76021C4F2472100200860FEF7F0FF4F
:1020A0000390FFE743F60000C4F20200006800F06E
:1020B00000710020B0EB516F0CD0FFE7FEF7E0FF9E
:1020C0000399401A032804D3FFE703208DF8170073
:1020D000AEE0E7E70499C869D1F820C04B6A8A6A84
:1020E00040EA0C0040EA8310D2034FF6FF739A4394
:1020F000A2F580321043C96A40EA016043F6040148
:10210000C4F2020108606021C4F247210120086086
:10211000FEF7B6FF0390FFE743F60000C4F20200AB
:10212000006800F000710020B0EB516F0CD1FFE7A8
:10213000FEF7A6FF0399401A032804D3FFE7032004
:102140008DF8170074E0E7E721E06021C4F2472131
:1021500000200860FEF794FF0390FFE743F60000BD
:10216000C4F20200006800F000710020B0EB516F73
:102170000CD0FFE7FEF784FF0399401A032804D32D
:10218000FFE703208DF8170052E0E7E7FFE74AE09A
:1021900004988069012804D1FFE701208DF8170019
:1021A00046E043F60400C4F202000068029004987E
:1021B0008069012831D0FFE7029800F4800004997B
:1021C000C969884229D1FFE7029800F03F000499CD
:1021D000096A884221D1FFE7029847F6C07108409A
:1021E0000499496AB0EB811F17D1FFE7029800F408
:1021F00040300499896AC9034FF6FF729143A1F5F3
:102200008031884209D1FFE7029800F0706004999C
:10221000C96AB0EB016F04D0FFE701208DF8170009
:1022200006E0FFE7FFE7FFE700208DF81700FFE774
:102230009DF8170006B080BD80B584B0029002986A
:1022400020B9FFE701208DF80F00D2E10298006865
:1022500043F20001C4F20101884212D0FFE7029864
:10226000006843F60001C4F20001884209D0FFE78C
:102270000298006843F60041C4F20001884201D18F
:10228000FFE708E048F29B60C0F600004FF4A07141
:1022900001F080FDFFE70298406830B1FFE7029847
:1022A0004068B0F5827F01D1FFE708E048F29B600B
:1022B000C0F6000040F2411101F06CFDFFE702980A
:1022C000806860B1FFE702988068B0F5806F06D043
:1022D000FFE702988068B0F5004F01D1FFE708E002
:1022E00048F29B60C0F600004FF4A17101F052FD6E
:1022F000FFE70298C068B0F5006F04D0FFE70298CE
:10230000C06808B9FFE708E048F29B60C0F600002B
:1023100040F2431101F03EFDFFE702988069B0F5FD
:10232000007F0AD0FFE70298806930B1FFE702988A
:102330008069B0F5802F01D1FFE708E048F29B608B
:10234000C0F600004FF4A27101F024FDFFE70298EF
:10235000C06918B3FFE70298C06908281ED0FFE7DC
:102360000298C069102819D0FFE70298C0691828A0
:1023700014D0FFE70298C06920280FD0FFE7029829
:10238000C06928280AD0FFE70298C069302805D024
:10239000FFE70298C069382801D1FFE708E048F25A
:1023A0009B60C0F6000040F2451101F0F3FCFFE72E
:1023B0000298006A28B1FFE70298006A802801D1DC
:1023C000FFE708E048F29B60C0F600004FF4A371FD
:1023D00001F0E0FCFFE70298406A28B1FFE70298AD
:1023E000406A102801D1FFE708E048F29B60C0F680
:1023F000000040F2471101F0CDFCFFE70298406A6F
:10240000002863D1FFE70298006928B1FFE702982E
:102410000069022801D1FFE708E048F29B60C0F69E
:1024200000004FF4A57101F0B5FCFFE70298406988
:1024300028B1FFE702984069012801D1FFE708E0D1
:1024400048F29B60C0F6000040F24B1101F0A2FC84
:10245000FFE702984068B0F5827F32D1FFE702982B
:10246000C06918B3FFE70298C06908281ED0FFE7CB
:102470000298C069102819D0FFE70298C06918288F
:1024800014D0FFE70298C06920280FD0FFE7029818
:10249000C06928280AD0FFE70298C069302805D013
:1024A000FFE70298C069382801D1FFE708E048F249
:1024B0009B60C0F6000040F24F1101F06BFCFFE79B
:1024C00003E002990020C861FFE736E00298C06986
:1024D00018B3FFE70298C06908281ED0FFE70298EA
:1024E000C069102819D0FFE70298C069182814D0D5
:1024F000FFE70298C06920280FD0FFE70298C06963
:1025000028280AD0FFE70298C069302805D0FFE7E5
:102510000298C069382801D1FFE708E048F29B60C3
:10252000C0F6000040F2591101F034FCFFE70299B7
:102530000020086102994861FFE702990020886243
:10254000029890F8510040B9FFE70299002081F805
:102550005000029800F052F8FFE70299022081F83B
:10256000510002980168086820F040000860029A53
:10257000019211685068D2F808C0D36800F48270E4
:102580000CF4044C604403F400631844136903F032
:1025900002031844536903F001031844936903F4D8
:1025A00000731844D36903F038031844136A03F026
:1025B00080031843926A02F4005210430860029AA2
:1025C000508B00F004001168526A02F010021044AF
:1025D000486002980168C86920F40060C8610299E7
:1025E00000204865029A012182F851108DF80F00F1
:1025F000FFE79DF80F0004B080BD000080B588B0F3
:102600000790002006900590049003900290079890
:10261000006843F20001C4F20101884234D1FFE7AF
:10262000FFE70020019043F64400C4F20200016875
:1026300041F480510160006800F4805001900198DD
:10264000FFE7FFE70020009043F63000C4F20200ED
:10265000016841F002010160006800F00200009092
:102660000098FFE7282002900220039001200490A8
:10267000032005900520069040F20040C4F20200BD
:1026800002A9FEF717F9FFE708B080BD80B588B052
:1026900006900591ADF81220039300208DF80700F5
:1026A0000698806830B1FFE706988068B0F5004F63
:1026B00001D1FFE708E048F29B60C0F600004FF44C
:1026C000427101F067FBFFE7FFE7069890F85000C2
:1026D000012804D1FFE702208DF81F0031E106999F
:1026E000012081F85000FFE7FFE7FEF7C9FC0290E8
:1026F000BDF81200ADF80400069890F851000128CA
:1027000004D0FFE702208DF807000FE1059820B103
:10271000FFE7BDF8120020B9FFE701208DF80700A0
:1027200004E10699032081F85100069900204865CC
:102730000599069A1163BDF81210069A9186BDF8A4
:102740001210069AD1860699886306998887069999
:10275000C887069948640699086406988068B0F5A9
:10276000004F0DD1FFE706980168086820F040008F
:10277000086006980168086840F480400860FFE738
:1027800006980068006800F04000402807D0FFE786
:1027900006980168086840F040000860FFE7069866
:1027A000C068B0F5006F4BD1FFE70698406828B1CC
:1027B000FFE7BDF8040001280ED1FFE70698016885
:1027C000006B0088C8600699086B023008630699A0
:1027D000C88E0138C886FFE7FFE70698C08E70B341
:1027E000FFE7069800688068800700280ED5FFE79D
:1027F00006980168006B0088C8600699086B023073
:1028000008630699C88E0138C88617E0FEF738FCC1
:102810000299401A0399884204D3FFE703980130D4
:1028200018B9FFE7039840B9FFE703208DF80700C8
:102830000699012081F8510078E0FFE7CDE74AE0F2
:102840000698406828B1FFE7BDF8040001280ED1C2
:10285000FFE706980168006B007808730699086B1B
:10286000013008630699C88E0138C886FFE7FFE784
:102870000698C08E70B3FFE70698006880688007EE
:1028800000280ED5FFE706980168006B00780873F2
:102890000699086B013008630699C88E0138C8860E
:1028A00017E0FEF7EDFB0299401A0399884204D322
:1028B000FFE70398013018B9FFE7039840B9FFE735
:1028C00003208DF807000699012081F851002DE0C2
:1028D000FFE7CDE7FFE706980399029A00F0F2FDC3
:1028E00020B1FFE7069920204865FFE70698806839
:1028F00070B9FFE7FFE70020009006980068C06805
:10290000009006980068806800900098FFE7FFE755
:102910000698406D20B1FFE701208DF8070004E024
:102920000699012081F85100FFE7FFE7FFE70699CC
:10293000002081F85000FFE79DF807008DF81F0088
:10294000FFE79DF81F0008B080BD000080B582B091
:102950000190019800F0B4FE02B080BD82B00190F9
:10296000ADF8021002B0704781B0009001B070471E
:1029700080B592B01190119800680068109011987D
:102980000068C0680F901198006840690E900020A0
:102990000D900C90109800F00F000D900D9888B9D4
:1029A000FFE79DF84000800600280AD5FFE79DF864
:1029B0003C008006002804D5FFE7119800F08CFF4A
:1029C000EAE1FFE70D98002800F0C280FFE79DF8DC
:1029D0003800C00738B9FFE7BDF83C0010F4907F1D
:1029E00000F0B680FFE79DF84000C00758B1FFE750
:1029F0009DF83D00C00730B1FFE71199486C40F0E9
:102A000001004864FFE79DF84000400700280BD50F
:102A1000FFE79DF83800C00730B1FFE71199486C17
:102A200040F002004864FFE79DF84000800700285E
:102A30000BD5FFE79DF83800C00730B1FFE71199CB
:102A4000486C40F004004864FFE79DF84000000730
:102A5000002811D5FFE79DF83C008006002805D42A
:102A6000FFE79DF83800C00730B1FFE71199486CC7
:102A700040F008004864FFE71198406C002866D0D9
:102A8000FFE79DF84000800600280AD5FFE79DF883
:102A90003C008006002804D5FFE7119800F01CFFD9
:102AA000FFE7119800684069C0F380100C901198FE
:102AB000406C0007002804D4FFE70C9800283ED0A3
:102AC000FFE7119800F0AAFE1198006840694006DF
:102AD00000282FD5FFE7FFE7FFE71198006850E8CF
:102AE000050F20F040000B90FFE70B99119802684A
:102AF00042E805100028F0D1FFE7FFE71198C06B0E
:102B000098B1FFE71198C16B43F2FD70C0F6000069
:102B100008651198C06BFDF789FE28B1FFE7119891
:102B2000C06B016D8847FFE703E01198FFF71CFFBA
:102B3000FFE703E01198FFF717FFFFE706E01198A2
:102B4000FFF712FF119900204864FFE7FFE723E138
:102B50001198006B012840F0FF80FFE79DF84000CE
:102B6000C006002840F1F880FFE79DF83C00C00651
:102B7000002840F1F180FFE7FFE700200A9011985C
:102B8000006800680A901198006840680A900A98E6
:102B9000FFE71198006840694006002840F18280F4
:102BA000FFE71198C06B00684068ADF82600BDF8DB
:102BB0002600002875D0FFE7BDF826001199898D01
:102BC00088426EDAFFE7BDF826001199C885119892
:102BD000C06BC069B0F5807F58D0FFE7FFE7FFE723
:102BE0001198006850E8030F20F480700890FFE708
:102BF00008991198026842E803100028F0D1FFE715
:102C0000FFE7FFE7FFE71198006850E8050F20F0A5
:102C100001000790FFE707991198026842E8051044
:102C20000028F0D1FFE7FFE7FFE7FFE71198006812
:102C300050E8050F20F040000690FFE70699119834
:102C4000026842E805100028F0D1FFE7FFE711997C
:102C5000202081F84200119900200863FFE7FFE778
:102C60001198006850E8030F20F010000590FFE76E
:102C700005991198026842E803100028F0D1FFE797
:102C8000FFE71198C06BFDF75BFDFFE7119902208C
:102C900048631198818DC28D891A89B2FFF75EFE53
:102CA000FFE779E01199888DC98D401AADF81200BF
:102CB0001198C08D00284ED0FFE7BDF81200002803
:102CC00049D0FFE7FFE7FFE71198006850E8030FDE
:102CD00020F490700390FFE703991198026842E88E
:102CE00003100028F0D1FFE7FFE7FFE7FFE71198A7
:102CF000006850E8050F20F001000290FFE70299FC
:102D00001198026842E805100028F0D1FFE7FFE7BC
:102D10001199202081F84200119900200863FFE7F3
:102D2000FFE71198006850E8030F20F010000190B1
:102D3000FFE701991198026842E803100028F0D1DA
:102D4000FFE7FFE71199022048631198BDF81210C0
:102D5000FFF704FEFFE71FE09DF840000006002893
:102D60000AD5FFE79DF83C000006002804D5FFE7E0
:102D7000119800F05BFF0FE09DF84000400600282E
:102D80000AD5FFE79DF83C004006002804D5FFE780
:102D9000119800F08DFDFFE712B080BD80B582B0C4
:102DA0000090009820B9FFE701208DF80700F7E0B8
:102DB0000098806900284FD0FFE70098006841F232
:102DC0000001C4F2010188421BD0FFE700980068AF
:102DD00044F20041C4F20001884212D0FFE700989B
:102DE000006844F60001C4F20001884209D0FFE700
:102DF0000098006841F20041C4F20101884201D10B
:102E0000FFE708E048F27F70C0F6000040F273115F
:102E100000F0C0FFFFE70098806990B1FFE70098DD
:102E20008069B0F5807F0CD0FFE700988069B0F52D
:102E3000007F06D0FFE700988069B0F5407F01D1A0
:102E4000FFE708E048F27F70C0F600004FF4BA7167
:102E500000F0A0FFFFE740E00098006841F20001A9
:102E6000C4F2010188422DD0FFE70098006844F2C7
:102E70000041C4F20001884224D0FFE700980068B6
:102E800044F60001C4F2000188421BD0FFE700981D
:102E9000006844F60041C4F20001884212D0FFE706
:102EA0000098006845F20001C4F20001884209D090
:102EB000FFE70098006841F20041C4F20101884236
:102EC00001D1FFE708E048F27F70C0F600004FF440
:102ED000BC7100F05FFFFFE7FFE70098806830B14A
:102EE000FFE700988068B0F5805F01D1FFE708E058
:102EF00048F27F70C0F600004FF4BD7100F04AFF49
:102F0000FFE70098C06930B1FFE70098C069B0F5ED
:102F1000004F01D1FFE708E048F27F70C0F60000E3
:102F200040F27B1100F036FFFFE7009890F8410077
:102F300040B9FFE70099002081F84000009800F0B8
:102F400033F8FFE70099242081F8410000980168D8
:102F5000C86820F40050C860009800F073FD009825
:102F60000168086920F49040086100980168486988
:102F700020F02A00486100980168C86840F40050B9
:102F8000C860009900204864009A202182F841100E
:102F9000009A82F84210009948638DF80700FFE715
:102FA0009DF8070002B080BD80B58AB0099000206E
:102FB000089007900690059004900998006841F2E7
:102FC0000001C4F2010188423ED1FFE7FFE7002083
:102FD000039043F64400C4F20200016841F010017E
:102FE0000160006800F0100003900398FFE7FFE71E
:102FF0000020029043F63000C4F20200016841F064
:1030000001010160006800F0010002900298FFE7F2
:103010004FF4C060049002200590002000900690BC
:1030200003200790072008900020C4F2020004A9A2
:10303000FDF740FC009A252001901146FEF7C6F8E6
:103040000198FEF7ABF8FFE70AB080BD81B00090B1
:1030500001B0704781B0009001B07047FFE7FEE714
:1030600010B59CB000201B901A90199018901790E2
:10307000FFE70020169043F63000C4F2020001681A
:1030800041F010010160006800F0100016901698E1
:10309000FFE7FFE70020159043F63000C4F202007E
:1030A000016841F004010160006800F0040015901F
:1030B0001598FFE7FFE70020149043F63000C4F2B4
:1030C0000200016841F080010160006800F08000AA
:1030D00014901498FFE7FFE70020139043F63000A8
:1030E000C4F20200016841F001010160006800F0D3
:1030F000010013901398FFE7FFE70020129043F6BA
:103100003000C4F20200016841F002010160006871
:1031100000F0020012901298FFE7FFE700201190E4
:1031200043F63000C4F20200016841F0080101607A
:10313000006800F0080011901198FFE740F60000C9
:10314000C4F2020002900721019101220892FDF7CA
:103150005BFF40F60040C4F2020006909821059102
:1031600000220C92FDF750FF0C9A40F20040C4F28E
:1031700002000F9010210791FDF746FF0C984FF6C3
:103180008C71179103210D911891199041F2000053
:10319000C4F20200009017A91091FDF78BFB009874
:1031A0000C9A109973231793022309931893199279
:1031B0001A920D220A921B92FDF77CFB02980C9A40
:1031C0000D9B10994EF2380CCDF85CC018931992F3
:1031D000FDF770FBDDF804C00298089B0C9A10996B
:1031E000CDF85CC0189319931A92FDF763FB0C9805
:1031F0000D9A109948F2AF03179318921990002076
:10320000C4F202000390FDF755FB0398DDF824C0DB
:103210000A9A0C9B10994FF0500ECDF85CE0CDF857
:1032200060C019931A931B92FDF744FB0C9A0D9BF7
:103230000F98109940F6074CCDF85CC0189319927E
:10324000FDF738FBDDF824C00C9B0D9A0F98109900
:103250004FF4704ECDF85CE0CDF860C019931A922F
:1032600005221B92FDF726FB06980C9A0D9B1099E0
:103270004FF6637CCDF85CC018931992FDF71AFBEA
:103280000298DDF824C00A9A0C9B10994FF0C00EEA
:10329000CDF82CE0CDF85CE0CDF860C019931A931E
:1032A0001B92FDF707FB0298DDF824C00C9B0D9ADA
:1032B00010994FF4F85ECDF85CE0CDF860C019933A
:1032C0001A920C2204921B92FDF7F4FA0398099BC0
:1032D0000C9A10994FF4807CCDF85CC01893199229
:1032E0001A921B92FDF7E6FA0398DDF824C00C9BB6
:1032F0000D9A10994FF4C05ECDF85CE0CDF860C037
:1033000019931A920A221B92FDF7D4FA049A06988E
:10331000DDF830C00D9B1099DDF824E004240E94F4
:103320001794CDF860E0CDF864C01A931B92FDF7B6
:10333000C1FADDF814C00698089B0C9A1099CDF8D4
:103340005CC0189319931A92FDF7B4FADDF81CC00B
:10335000089B0C9A0F981099CDF85CC0189319939C
:103360001A92FDF7A7FADDF824C00A9A0C9B0F9871
:103370001099DDF82CE0CDF85CE0CDF860C0199331
:103380001A931B92FDF796FADDF830C00D9B0E9A4A
:103390000F9810994FF4407ECDF85CE04FF0120E7C
:1033A000CDF860E0CDF864C01A931B92FDF782FA65
:1033B0001CB010BD80B582B040F2D000C2F2000057
:1033C000019043F20001C4F2010101604FF48271E7
:1033D00041604FF4004181600021C160022202611E
:1033E000012242614FF4007282611022C2610162C7
:1033F000416281620A21C162FEF71EFF18B1FFE738
:10340000FDF79AF9FFE702B080BD000080B582B0F9
:1034100040F22810C2F20000019041F20001C4F213
:10342000010101604FF4E131416000218160C16020
:1034300001610C2242618161C161FFF7AFFC18B1EB
:10344000FFE7FDF779F9FFE702B080BDFFE7FEE790
:10345000FFE7FEE788B0079006910592079800F015
:10346000070004900498C0F10700052803D3FFE784
:103470000420019004E00498C0F107000190FFE7E8
:103480000198039004980430062803D8FFE7002031
:10349000009003E0049803380090FFE70098029042
:1034A00006980399012202FA01F101390840029BB2
:1034B000984005999A40013A1140084308B0704776
:1034C0007047000080B586B0049003910292049882
:1034D000039B02996A4611600221012200F058F80C
:1034E00048B1FFE70499486D40F02000486503208B
:1034F0008DF8170048E040F20000C2F200000068BA
:103500004AF6AB21CAF6AA21A0FB011000094FF22E
:10351000A171C1F2C601A0FB0110000C4FF47A7139
:103520004843019004984068B0F5827F15D1FFE7C9
:103530000498039B02996A4611608021002200F0E2
:1035400027F848B1FFE70499486D40F0200048652E
:1035500003208DF8170017E012E0FFE7019808B983
:10356000FFE70CE0019801380190FFE7049800683C
:103570008068C1B20020B0EBD11FEFD1FFE7FFE7B9
:1035800000208DF81700FFE79DF8170006B080BDFA
:1035900080B58AB0DDF830C0089007918DF81B2007
:1035A000059305980190FDF76BFD024601980C9973
:1035B000891A08440390FDF763FD0290039840F2D6
:1035C0000001C2F200010968C1F3CB314843049005
:1035D000FFE708980068806807990840401AB0FA29
:1035E00080F040099DF81B1088425ED0FFE70598E7
:1035F0000130002858D0FFE7FDF742FD0299401A3C
:103600000399884204D2FFE70398002842D1FFE7DC
:1036100008980168486820F0E00048600898406811
:10362000B0F5827F13D1FFE708988068B0F5004FAE
:1036300006D0FFE708988068B0F5806F07D1FFE7F4
:1036400008980168086820F040000860FFE70898C3
:10365000806AB0F5005F0FD1FFE7FFE708980168C7
:10366000086820F40050086008980168086840F471
:1036700000500860FFE7FFE70899012081F851003A
:10368000FFE70899002081F85000FFE703208DF83C
:1036900027000EE0049818B9FFE700200390FFE729
:1036A000049801380490FFE793E700208DF8270085
:1036B000FFE79DF827000AB080BD000070470000BA
:1036C00080B582B0009000980138B0F1807F03D3BC
:1036D000FFE70120019019E0009801384EF2140133
:1036E000CEF2000108604FF0FF300F2100F012FB16
:1036F0004EF21801CEF20001002008604EF21002D6
:10370000CEF20002072111600190FFE7019802B09C
:1037100080BD000080B5FDF7B9FC80BD80B594B0D8
:1037200008A83021FCF784FD002007900690059042
:1037300004900390FFE70020029043F64000C4F29B
:103740000200016841F080510160006800F0805083
:1037500002900298FFE7FFE70020019047F2000087
:10376000C4F20000016841F480410160006800F487
:10377000804001900198FFE7032008904FF48030CB
:10378000099001200B9010200C9002210E914FF413
:1037900080000F9004201090A82211921291139093
:1037A00008A8FEF7EDF818B1FFE7FCF7C5FFFFE743
:1037B0000F20039002200490002005904FF4A050A9
:1037C00006904FF48050079003A80521FDF758FD9F
:1037D00018B1FFE7FCF7B0FFFFE7002210461146E3
:1037E000FDF7FAFF14B080BD4EF68851CEF200010D
:1037F000086840F4700008607047000080B582B02F
:1038000001900198806B009000990020C885009974
:10381000C8840098FFF7A8F802B080BD84B0039078
:10382000FFE7FFE70398006850E8030F20F490706B
:103830000290FFE702990398026842E8031000280B
:10384000F0D1FFE7FFE7FFE7FFE70398006850E8E4
:10385000050F20F001000190FFE70199039802682D
:1038600042E805100028F0D1FFE7FFE70398006B5E
:10387000012814D1FFE7FFE7FFE70398006850E84D
:10388000030F20F010000090FFE7009903980268F2
:1038900042E803100028F0D1FFE7FFE7FFE70399B4
:1038A000202081F8420003990020086304B070478B
:1038B00080B582B0019001980168C86820F040008E
:1038C000C8600199202081F841000198FFF7C2FBF0
:1038D000002002B080BD000080B586B0049004983E
:1038E00090F84200222840F0A480FFE70498806806
:1038F000B0F5805F15D1FFE70498006988B9FFE74C
:10390000002003900498806A029004980068406840
:103910006FF35F20029908800499886A02308862F8
:1039200025E00498806A0390002002900498806843
:10393000B0F5805F08D0FFE70498806850B9FFE7D2
:103940000498006930B9FFE704980068406803995B
:10395000087007E004980068406800F07F00039951
:103960000870FFE70499886A01308862FFE70499CC
:10397000C88D0138C8850004002856D1FFE7049897
:103980000168C86820F02000C86004980168C86811
:1039900020F48070C86004980168486920F0010034
:1039A00048610499202081F842000499002048636E
:1039B0000498006B012830D1FFE7049900200863C8
:1039C000FFE7FFE70498006850E8030F20F01000BD
:1039D0000190FFE701990498026842E8031000286B
:1039E000F0D1FFE7FFE7049800680068C0060028F0
:1039F0000ED5FFE7FFE700200090049800680068FC
:103A0000009004980068406800900098FFE7FFE786
:103A10000498818DFEF7A2FF03E00498FFF716FBE0
:103A2000FFE700208DF8170007E000208DF8170051
:103A300003E002208DF81700FFE79DF8170006B09D
:103A400080BD000080B586B005900598406843F2BF
:103A5000A071C0F2A001884201D8FFE708E048F257
:103A60007F70C0F6000040F6756100F093F9FFE743
:103A70000598C06830B1FFE70598C068B0F5005FF1
:103A800001D1FFE708E048F27F70C0F6000040F681
:103A9000766100F07FF9FFE70598006960B1FFE704
:103AA00005980069B0F5806F06D0FFE705980069BA
:103AB000B0F5C06F01D1FFE708E048F27F70C0F6B3
:103AC000000040F6776100F065F9FFE70598808A0D
:103AD0006FF00C01084205D1FFE70598406908B175
:103AE000FFE708E048F27F70C0F6000040F678611A
:103AF00000F050F9FFE705980068006920F4405095
:103B0000059A1168D26810430861059988680B69A5
:103B10004A69C9691843104308430490059800682E
:103B2000C06849F20C618843049908430599096803
:103B3000C86005980068406920F44070059A1168D3
:103B40009269104348610598006841F20001C4F28F
:103B50000101884209D0FFE70598006841F2004161
:103B6000C4F20101884204D1FFE7FDF7AFFD0390E5
:103B700003E0FDF799FD0390FFE70598C069B0F5F4
:103B8000004F29D1FFE703981921A0FB0101059AF5
:103B90001368029353685A00DB0FFCF711FB02997C
:103BA000864648F21F53C5F2EB13AEFB03204209D1
:103BB00010014FF0640C02FB1CEC322202EBCC0231
:103BC000A2FB0332F82303EA521300EB4300C2F3D3
:103BD00042121044886026E003981921A0FB0101DD
:103BE000059A1368019353689A009B0FFCF7E8FA53
:103BF0000199844648F21F52C5F2EB12ACFB023029
:103C00004309642003FB10CC322000EB0C10A0FB16
:103C10000202F02000EA521000EB0310C2F343123C
:103C200010448860FFE706B080BD000083B00190BB
:103C3000019890F8410021283AD1FFE70198806867
:103C4000B0F5805F13D1FFE70198006978B9FFE70D
:103C50000198006A0090009800886FF35F20019936
:103C6000096848600199086A0230086208E0019A10
:103C7000106A411C11620078019909684860FFE7E9
:103C80000199C88C0138C884000468B9FFE701981D
:103C90000168C86820F08000C86001980168C868A1
:103CA00040F04000C860FFE700208DF80B0003E003
:103CB00002208DF80B00FFE79DF80B0003B0704762
:103CC00080B540F22810C2F20000FEF751FE80BD20
:103CD000FFE7FEE781B08DF803009DF9030000289F
:103CE0000ED4FFE79DF9031001F01F020120904060
:103CF0004A094EF20011CEF2000141F82200FFE71E
:103D000001B070474EF60C50CEF200000068C0F3D0
:103D10000220704782B08DF8070000919DF90700DE
:103D200000280AD4FFE7009800019DF907104EF221
:103D30000042CEF2000288540BE0009800019DF88A
:103D4000071001F00F014EF61452CEF20002885413
:103D5000FFE702B07047000083B00290029800F0C5
:103D6000070000904EF60C51CEF200010868019059
:103D700001984FF6FF02104001900198009A40EA26
:103D800002200022C0F2FA5210430190019808600C
:103D900003B0704782B00190009102B070470000FC
:103DA00080B584B00390ADF80A1003984268D188BA
:103DB00001391289013ABDF80AC06B46C3F804C044
:103DC00092B21A608BB20022114600F027F804B0BC
:103DD00080BD000080B582B001900198FCF748FDDD
:103DE00002B080BD80B584B00390ADF80A10ADF884
:103DF0000820ADF806300398BDF80A30BDF8082059
:103E000069460A60194600F0FDFA03980068BDF89B
:103E1000061000F0A9FC04B080BD000010B58AB007
:103E20008C4686460D980C99CDF824E0ADF822C05A
:103E3000ADF82020ADF81E30ADF81C10ADF81A001A
:103E4000BDF81E00BDF82210401A0130ADF8180070
:103E5000BDF81C00BDF82010401A0130ADF8160066
:103E6000BDF81A10080240EA1120ADF81A000998AE
:103E7000006A60BBFFE700200490FFE70498BDF8EC
:103E80001610884222DAFFE700200390FFE703982C
:103E9000BDF81810884214DAFFE70998BDF822101F
:103EA000039A1144BDF82020049B1A44BDF81A302F
:103EB00089B292B2FFF796FFFFE7039801300390B3
:103EC000E5E7FFE7049801300490D7E739E00020E8
:103ED0000290FFE70298BDF8181088420CDAFFE75D
:103EE000BDF81A000999096A029A21F81200FFE741
:103EF000029801300290EDE70998BDF82210BDF854
:103F00002020BDF81E30BDF81CC0EE46CEF800C023
:103F100000F078FA00200190FFE70198BDF8161034
:103F200088420DDAFFE709990868096ABDF8182088
:103F3000520000F0F3FBFFE7019801300190ECE73D
:103F4000FFE70AB010BD000080B584B003908DF883
:103F50000B108DF80A209DF80B1040F29000C2F271
:103F6000000050F82100039948609DF80A000128DC
:103F70000BD8FFE7039840680089ADF80800039864
:103F80004068C088ADF806000AE003984068C08821
:103F9000ADF80800039840680089ADF80600FFE717
:103FA000BDF8080003994968C880BDF80600039968
:103FB000496808819DF80A00039949684871039887
:103FC000012147F67C520023009300F089FA039800
:103FD00000F006F800990398FFF7E2FE04B080BDF8
:103FE0002DE9F043A9B02890289800680021249179
:103FF00000F0D8F964202290FFF7ECFE28980068C2
:104000000121259100F0CEF92298FFF7E3FE2599D2
:104010002898006800F08CF92298FFF7DBFE2599BC
:1040200028980068112200F0CBFB05202390FFF7B1
:10403000D1FE289908684A6840F23401C2F20001B2
:104040001379527901EB83018B5C02212691362290
:1040500000F0B6FB239B2699289800683A2200F0CE
:10406000AFFB249A2898006869463323CB608B60A5
:104070004A600C230B600621B22200F0A1FB2699B6
:1040800028980068B722352300F09AFB26992898D3
:104090000068BB22192300F093FB2699289800683A
:1040A000C0222C2300F08CFB259B269928980068C1
:1040B000C22200F085FB269928980068C3221223AB
:1040C00000F07EFB269928980068C422202300F087
:1040D00077FB269928980068C6220F2300F070FB12
:1040E000289800686A46A12111600321D022A423E8
:1040F00000F066FB2898406800790146279148B196
:10410000FFE72798012857D0FFE72798022800F0FB
:10411000A880FCE0289800686A461C924FF01009BD
:10412000C2F838904FF00408C2F8348008211E917C
:1041300011630027D76236239362252656620F2328
:10414000209313620925D56107231D9393610224EF
:1041500054611361C2F80C90936051600E2111609C
:1041600011211F91E02200F02BFBDDF874C01E9A94
:104170001F99DDF880E0289800686B462193C3F80A
:104180003890C3F834801D63DF6235279F625E621A
:10419000C3F820E0DD61C3F818C05C61C3F810C04B
:1041A000C3F80CE0C3F808C05A600D221A60E1227F
:1041B0000A2300F005FBAAE0289800686A461692D8
:1041C000232717631F26D6620B2191620D215162AE
:1041D000182313624C23D361542393613F25556107
:1041E0002B2313611324D46011231A93936051601D
:1041F0000421179111600F211891E022D023199307
:1042000000F0DEFA179A1899199BDDF868E02898F3
:104210000068EC46CDF86CC0CCF830702027CCF8A4
:104220002C70CCF82860CCF824602F26CCF82060C5
:104230005126CCF81C604426CCF81860CCF81450F9
:104240002C25CCF81050CCF80C40CCF808E04FF0FE
:104250000C0ECCF804E0CCF80020E12200F0B0FA1B
:1042600055E0289800686A46109230211163282191
:104270001191D162122191625162382111623E2462
:10428000D461332114919161292555610521116172
:104290000421D16091605160002111600F211291C1
:1042A000E022F023139300F08BFA119A1299139BDA
:1042B000DDF850E028980068EC46CDF854C032266E
:1042C000CCF83060CCF82C501425CCF82850CCF821
:1042D00024503625CCF82050CCF81C40CCF818E0FF
:1042E000CCF814200722CCF810204FF00B0ECCF89D
:1042F0000CE04FF00D0ECCF808E04FF00A0ECCF8B1
:1043000004E0CCF80020E12200F05AFAFFE72898F8
:10431000006801210F91212200F052FA0F9928988C
:104320000068292200F04CFA29B0BDE8F0830000B3
:1043300080B582B001908DF8031001980C309DF883
:10434000031001F0010100F003F802B080BD00008D
:1043500080B582B001908DF80310019880B1FFE71D
:104360000198006860B1FFE7019B186899889DF883
:1043700003209B795A4002F00102FCF745FEFFE75B
:1043800002B080BD80B582B001908DF80310019815
:104390001C309DF8031001F00101FFF7D9FF02B0B6
:1043A00080BD000080B582B001908DF803100198A7
:1043B00004309DF8031001F00101FFF7C9FF02B0BE
:1043C00080BD000080B5A6B02590ADF89210ADF884
:1043D0009020239303A8019080210091FBF728FFF0
:1043E0000099019828AA0292239A029B00F07AFA77
:1043F000019B2598BDF89210BDF8902000F022F99D
:1044000026B080BD80B586B084460898CDF814C02B
:10441000ADF81210ADF81020ADF80E30ADF80C006C
:1044200005980068012102912A2200F0C9F9059A35
:10443000BDF812101068536840F20402C2F2000284
:10444000019293F804C05B7902EB0C1212F823205E
:10445000114489B200F088F9019A059BBDF80E104D
:1044600018685B6893F804C05B7902EB0C1202EBEE
:1044700083025278114489B200F076F902990598C6
:1044800000682B2200F09CF9019A059BBDF81010E2
:1044900018685B6893F804C05B7902EB0C1202EBBE
:1044A00083029278114489B200F05EF9019A059B6B
:1044B000BDF80C1018685B6893F804C05B7902EBD8
:1044C0000C1202EB8302D278114489B200F04CF94D
:1044D0000299059800682C2200F072F906B080BDA0
:1044E00080B583B002908DF80710ADF80420ADF8C8
:1044F000023002999DF8072048F20C60C0F60000D7
:1045000000EB021E1201DEF80430DEF808C0DEF80F
:104510000CE0C1F814E0C1F810C0CB60805888608E
:10452000BDF804000299C881BDF802000299088212
:1045300003B080BD80B588B00790ADF81A10ADF813
:104540001820ADF8163000208DF81500BDF81600C3
:104550002038ADF81600BDF81A00079A5168C988CE
:104560001289891A88420ADCFFE7BDF81800079A09
:10457000516809895289891A884201DDFFE75FE0A5
:104580000798BDF81A10BDF8182003890B44013BA9
:10459000B0F80AC09444ACF1010C1FFA8CFCEE4652
:1045A000CEF800C09BB2FFF72DFF00200490FFE77C
:1045B000049807998989884242DAFFE7079A506987
:1045C000BDF816109289049B01FB0231405C8DF806
:1045D0000F0000200290FFE7029807282BDCFFE77E
:1045E0009DF80F00C00730B1FFE707990868C98937
:1045F00000F0BAF805E007990868098A00F0B4F8F5
:10460000FFE79DF80F0040088DF80F009DF815009A
:1046100001308DF815009DF8150007990989884229
:1046200004D1FFE700208DF8150004E0FFE70298B1
:1046300001300290D0E7FFE7049801300490B7E71B
:1046400008B080BD80B584B00390ADF80A10ADF815
:1046500008200193FFE70198007850B3FFE7BDF809
:104660000A00039A5168C9881289891A88420BDDA9
:10467000FFE70020ADF80A0003984189BDF8080063
:104680000844ADF80800FFE70398BDF80A10BDF82C
:104690000820019B03F1010CCDF804C01B78FFF743
:1046A00049FF03980189BDF80A000844ADF80A00E3
:1046B000D1E704B080BD000080B584B003900291C2
:1046C0000192FFE703990020009031B1FFE70198C4
:1046D000002818BF01200090FFE70098C007D0B164
:1046E000FFE70198B0F5803F0BD3FFE701984FF645
:1046F000FF73C01A0190039802991A46FDF7C6FF8E
:1047000008E003980299BDF804204FF6FF73FDF707
:10471000BDFF00E0D6E704B080BD000080B584B0E6
:1047200003900291019203980121FFF72BFE039859
:1047300000680299019AFFF7BFFF04B080BD000036
:1047400080B584B003908DF80B100398012101917E
:10475000FFF718FE019A039800680DF10B01FFF7AF
:10476000ABFF04B080BD000080B582B00190ADF811
:10477000021001980121FFF705FEBDF802100802A2
:1047800040EA1120ADF80200019800680DF1020125
:104790000222FFF791FF02B080BD000080B582B019
:1047A00001908DF8031001980021FFF7EBFD0198AF
:1047B00000680DF103010122FFF77EFF02B080BD0A
:1047C00082B080B584B0079306920390029106A848
:1047D0000190039801990A1D01920978FFF7DEFF05
:1047E00001200090FFE70098029988420CDAFFE769
:1047F000039801990A1D01920978FFF7A1FFFFE7CD
:10480000009801300090EEE704B0BDE8804002B0AF
:104810007047000080B586B000200390059004909A
:10482000FCF742FCFEF77AFFFEF71AFCFEF7C2FD2A
:10483000FEF7ECFD40F24000C2F2000002900222BE
:104840001146FFF781FB02980399FFF7A9FA029836
:10485000039948F28263C0F600031422FFF7B2FD09
:104860000298039948F25763C0F600032822FFF725
:10487000A9FD0298039948F27263C0F600033C2236
:10488000FFF7A0FD0298039948F24C63C0F60003BD
:104890005022FFF797FDFFE70498411C04916946F9
:1048A000086040F24000C2F2000048F29063C0F697
:1048B000000300216422FFF785FD40F60000C4F2EA
:1048C000020001900121FCF779FB01980221FCF71D
:1048D00075FB01980421FCF771FB4FF4FA70FBF7AC
:1048E000C7FFD9E77CB50C001D461646014601D02E
:1048F000601E00E00020CDE90010064B6A46294604
:10490000304600F0DBF8002C02D0009A0021117034
:104910007CBD0000EB51000802E008C8121F08C16E
:10492000002AFAD170477047002001E001C1121F30
:10493000002AFBD1704700002DE9FF5F82B0002103
:10494000DDE90430020DDDF840B0034318D044F631
:104950001050A2F2FF3242431514119801281FD0C3
:10496000A5EB0B00401C5FEA000A4FF000064E4F1B
:10497000DFF83891B046504615D5CAF1000413E06F
:10498000119801244AA3012801D16FEA0B01029872
:10499000119AC0E90031C0E9024206B0BDE8F09FBB
:1049A000CBF10000DFE704460021404A491842EB02
:1049B0000450CDE9001012E0E00707D032463B4634
:1049C00040464946FBF71BFD8046894632463B463A
:1049D00010461946FBF713FD06460F466410002CDF
:1049E000EAD1DDE90401DDE90023BAF1000F06DABE
:1049F000FBF705FD42464B46FBF701FD05E0FBF7E3
:104A000070FD42464B46FBF76CFD04460E46002205
:104A1000284BFBF7EDFD03D84FF0FF30014607E0D0
:104A20000022254B20463146FBF742FCFBF7C8FD30
:104A3000102409E0002C0ADB0A220023FBF7C0FB4C
:104A4000039B30321A55641E50EA0102F2D1641CF5
:104A5000039AC4F111031444119A012A03D00122CC
:104A600008430DD10AE0084304D000204FF0110B99
:104A7000119072E7A3EB0B056D1E0DE05B4504DDA5
:104A80004FF0000205F1010504E003DA4FF00002E7
:104A9000A5F10105002AECD002981199C0E9023174
:104AA000C0E9004579E70000000014400000F03F35
:104AB000300000000000F0430000E03F2DE9FF4F10
:104AC00095B09B468946064600250FE2252877D1FA
:104AD00000242746F84A0121059400E0044316F813
:104AE000013F203B01FA03F01042F7D130782A2829
:104AF00011D06FF02F033078A0F13002092A16D8B8
:104B0000059A44F0020402EB820203EB42021044D5
:104B1000761C0590EFE759F8042B0592002A03DA7A
:104B2000504244F40054059044F00204761C30785E
:104B30002E2816D116F8010F44F004042A280DD0AF
:104B40006FF02F023078A0F13003092B09D807EB62
:104B5000870302EB4303C718761CF3E759F8047B7D
:104B6000761C30786C280FD006DC4C2817D06828CB
:104B70000DD06A2814D104E0742810D07A280FD1FF
:104B80000DE044F400140AE044F4801401E044F41D
:104B900040147278824202D104F58014761C761C8F
:104BA000307866280BD013DC582877D009DC002831
:104BB00075D04528F6D04628F4D047281AD19DE173
:104BC00018E0632835D0642879D0652812D195E1A2
:104BD000702873D008DC6728F1D069286FD06E2860
:104BE0000DD06F2806D1B5E073282CD0752875D06C
:104BF000782874D05A46179990476D1C75E1C4F314
:104C00000250022809D003280DD0D9F8001004283A
:104C10000DD00D6009F1040967E1D9F80010EA1719
:104C2000C1E90052F6E7D9F800100D80F2E70D70E7
:104C3000F0E719F8041B8DF8001000208DF8010032
:104C4000EA46012003E059F804AB4FF0FF3061075A
:104C50004FF0000102D40DE008F101018846B9428D
:104C60000FDA8045F8DB1AF808100029F4D108E0C3
:104C700008F1010188468142FADB1AF80810002980
:104C8000F6D105985B46A0EB080721463846179AEF
:104C900000F094FA284400EB080507E04DE029E114
:104CA0000DE01AF8010B5A4617999047B8F1010820
:104CB000F7D25B4621463846179A13E142E00A22B2
:104CC0000092C4F302524FF0000A022A08D059F8A9
:104CD00004CB032A4FEAEC710AD00DE029E02AE068
:104CE00009F1070121F00702F2E802C1914609E04B
:104CF0000FFA8CFC4FEAEC71042A03D14FFA8CFCBA
:104D00004FEAEC71002907DA0A460021DCF1000CB9
:104D100061EB02012D2202E0220504D52B228DF841
:104D20000420012203E0E20701D02022F7E79046A9
:104D300059E00A2102E010220DE010214FF0000A94
:104D400000910BE010224FF0000A44F00404082701
:104D5000009203E008224FF0000A0092C4F30252CE
:104D6000022A05D059F804CB0021032A08D009E013
:104D700009F1070121F00702F2E802C1914605E0BE
:104D80001FFA8CFC042A01D10CF0FF0C4FF0000834
:104D9000220728D5702806D0009B83F0100353EA21
:104DA0000A0305D00EE040228DF80420012208E01D
:104DB0005CEA010206D030228DF804208DF805004F
:104DC00002229046009B83F0080353EA0A030AD1AB
:104DD0005CEA010201D1620705D530228DF804207A
:104DE0004FF001087F1E582804D034A003900EA86D
:104DF00002900DE036A0F9E753466046009AFBF7B3
:104E0000DFF984460398825C0298401E029002708B
:104E10005CEA0100F0D1029806A9081A00F1200A04
:104E2000600702D524F4803400E00127574502DDF5
:104E3000A7EB0A0000E0002000EB0A0100900598B3
:104E40004144401A0590E00306D45B462146179A78
:104E5000059800F0B3F90544002706E001A85A467A
:104E6000C05D179990476D1C7F1C4745F6DBE0033A
:104E70000CD55B462146179A059800F09FF905442A
:104E800004E030205A46179990476D1C0099481E3F
:104E900000900029F5DC08E0029802995A46007853
:104EA000491C0291179990476D1CBAF10001AAF1B3
:104EB000010AF1DC65E100000928010030313233DC
:104EC0003435363738396162636465660000000046
:104ED0003031323334353637383941424344454630
:104EE0000000000000F058F90544761C30780028D6
:104EF0007FF4ECAD19B02846BDE8F08F620700D40E
:104F0000062709F1070222F0070CFCE80223E1461C
:104F100003F000485FEA080C02D00FF2702C0DE09D
:104F20005FEA045C02D50FF2682C07E05FEAC47CFC
:104F300002D00FF2602C01E0AFF2700C4FF0FF389E
:104F400023F00043CDF850C065280CD006DC45287E
:104F500009D046281DD047283DD13DE0662818D00D
:104F600067287ED138E00021112F01DB112000E0FD
:104F7000781CCDE9000106A90EA8FFF7DDFCDDE9EC
:104F80000F010E9A03910021009207F1010A04918A
:104F90004DE04FF000400097CDE9011006A90EA8A2
:104FA000FFF7CAFCDDE90F0203920E9B1199002264
:104FB000DDF80CA00093049211B9791C00EB010AF2
:104FC000B7EB0A0004D4C0F1FF3007F1010A0490E6
:104FD000AAEB0700019044E0012F00DA012700212D
:104FE000112F01DD112000E03846CDE9000106A9AE
:104FF0000EA8FFF7A1FCDDE90F010E9A0391002135
:1050000004910092BA4621070CD40399514500DA65
:105010008A46BAF1010F05DD009AAAF10101515C3F
:10502000302908D0B84202DA10F1040F06DA012163
:10503000CDE9011015E0AAF10101E9E7002805DC3E
:10504000049901440491AAEB000102E0411C51457E
:1050500000DD8A460499401A401C01904FF0004040
:105060000290200704D40198504501DBCDF804805C
:1050700000208DF84F0002980DF14F07B0F1004F5E
:1050800025D02B200E9002984FF0020800280CDA51
:10509000404202902D200E9007E00A210298FBF773
:1050A000D2F83031029007F8011DB8F10001A8F1E3
:1050B0000108F2DC02980028EFD1791E0E980870E2
:1050C000307800F0200040F0450007F8020D12A8EB
:1050D000C01B00F107081498007800B1012000EB14
:1050E0000A01019801EBE07105984144401A401E05
:1050F0000590E00306D45B462146179A059800F018
:105100005DF805441498007818B15A4617999047ED
:105110006D1CE00324D55B462146179A059800F0E4
:105120004DF805441CE00498002807DBDDE9030185
:10513000884203DD0098405C179901E01799302000
:105140005A469047049805F10105401C04900198C7
:10515000401E019004D12E205A46179990476D1C8D
:10516000BAF10001AAF1010ADDDC05E017F8010B34
:105170005A46179990476D1CB8F10001A8F1010833
:10518000F4DC5B462146179A0598ABE62D0000003B
:105190002B000000200000002DE9F041044600250E
:1051A0001E461746880404D405E039462020B0473F
:1051B0006D1C641EF9D52846BDE8F0812DE9F0414B
:1051C000044600251E469046C80301D5302700E05E
:1051D0002027880404D505E041463846B0476D1CB9
:1051E000641EF9D52846BDE8F0814A68002A06D039
:1051F0000A68531C0B6010704868401E4860704776
:105200000000000000000000010203040607080976
:105210000000000001020304000000000000000084
:105220000000000000000404040404000004000066
:1052300014140A00000000000000000000000A0A28
:105240001F0A0A1F0A0A000000040E1505060C14A6
:10525000150E0400000012150D152E2C2A12000048
:105260000000040A0A361515291600000202010082
:1052700000000000000000001008080404040404FA
:1052800008081000020404080808080804040200C2
:1052900000000004150E0E150400000000000008B8
:1052A000083E0808000000000000000000000000A8
:1052B0000202010000000000003F000000000000AA
:1052C000000000000000000000020000002010109C
:1052D000080804040202010000000E11111111114E
:1052E000110E00000000040604040404040E000073
:1052F00000000E1111080402011F000000000E1131
:10530000100C1010110E00000000080C0C0A091FF0
:10531000081C000000001F01010F1110110E0000F9
:1053200000000C12010D1311110E000000001E10E0
:10533000080804040404000000000E11110E1111ED
:10534000110E000000000E111119161009060000C0
:105350000000000004000000000400000000000045
:10536000000400000004040000001008040202040D
:1053700008100000000000003F003F000000000097
:1053800000000204081010080402000000000E11C2
:10539000110804040004000000001C22292D2D1D0A
:1053A000221C0000000004040C0A0A1E1233000034
:1053B00000000F12120E1212120F000000001E1138
:1053C00001010101110E000000000F121212121251
:1053D000120F000000001F120A0E0A02121F000026
:1053E00000001F120A0E0A020207000000001C1231
:1053F00001013911120C000000003312121E1212AA
:105400001233000000001F0404040404041F000001
:1054100000003E08080808080808090700003712BD
:105420000A060A12123700000000070202020202F6
:10543000223F000000003B1B1B1B1515153500000B
:1054400000003B1216161A1A1217000000000E1167
:1054500011111111110E000000000F12120E0202A4
:105460000207000000000E1111111117190E18008B
:1054700000000F12120E0A121237000000001E1157
:1054800001060810110F000000001F150404040499
:10549000040E00000000331212121212120C00004F
:1054A00000003312120A0A0C040400000000151553
:1054B00015150E0A0A0A000000001B0A0A04040A55
:1054C0000A1B000000001B0A0A0A0404040E000064
:1054D00000001F0908040402121F00001C04040439
:1054E0000404040404041C00000202040404080868
:1054F000081010000E0808080808080808080E0020
:10550000040A00000000000000000000000000008D
:10551000000000000000003F020400000000000046
:105520000000000000000000000C121C123C0000F3
:1055300000030202020E1212120E00000000000010
:10554000001C1202120C000000181010101C121285
:10555000123C000000000000000C121E021C0000A3
:1055600000182404041E0404041E000000000000AF
:10557000003C120C021C221C00030202020E12123A
:10558000123700000004040000060404040E0000AA
:1055900000080800000C08080808080700030202B9
:1055A000021A0A060A130000000704040404040493
:1055B000041F000000000000000F15151515000065
:1055C00000000000000F121212370000000000005F
:1055D000000C1212120C000000000000000F12124A
:1055E000120E020700000000001C1212121C1038DC
:1055F00000000000001B060202070000000000007F
:10560000001E020C101E000000000004041E040412
:10561000041C000000000000001B1212123C0000DD
:1056200000000000001B0A0A040400000000000043
:105630000015150E0A0A000000000000001B0A04F5
:105640000A1B000000000000003312120C080403C3
:1056500000000000001E0804041E000018080808CE
:10566000080C0808080818000808080808080808AE
:1056700008080808060404040408040404040600D6
:1056800016090000000000000000000000000000FB
:105690000000000000000000000000000000000802
:1056A00008080808080800001818000000486C24C2
:1056B00012000000000000000000000000000024B4
:1056C00024247F1212127F12121200000000081C04
:1056D0002A2A0A0C1828282A2A1C08080000002256
:1056E000251515152A585454542200000000000CAA
:1056F0001212120A76252911916E00000006060486
:105700000300000000000000000000000040201026
:1057100010080808080808101020400000020408BB
:1057200008101010101010080804020000000000FB
:1057300008086B1C1C6B080800000000000000003B
:10574000080808087F08080808000000000000009A
:105750000000000000000000060604030000000036
:1057600000000000FE00000000000000000000003B
:10577000000000000000000006060000000080405D
:105780004020201010080804040202000000001845
:1057900024424242424242422418000000000008D3
:1057A0000E08080808080808083E00000000003C31
:1057B0004242422020100804427E00000000003CCB
:1057C0004242201820404042221C000000000020DD
:1057D0003028242422227E20207800000000007E31
:1057E0000202021A26404042221C0000000000383B
:1057F0002402021A26424242241800000000007EC1
:105800002222101008080808080800000000003CC8
:105810004242422418244242423C00000000001848
:105820002442424264584040241C00000000000012
:105830000000181800000000181800000000000008
:1058400000000008000000000008080400000040FC
:10585000201008040204081020400000000000008E
:1058600000007F0000007F00000000000000000238
:105870000408102040201008040200000000003C32
:105880004242464020101000181800000000001C82
:10589000225A555555552D42221C00000000000883
:1058A00008181414243C224242E700000000001FA4
:1058B0002222221E22424242221F00000000007CBF
:1058C0004242010101010142221C00000000001FB0
:1058D0002242424242424242221F00000000003F58
:1058E0004212121E12120242423F00000000003F0C
:1058F0004212121E12120202020700000000003CB7
:105900002222010101712122221C0000000000E777
:10591000424242427E42424242E700000000003ED4
:105920000808080808080808083E00000000007C75
:1059300010101010101010101010110F0000007730
:1059400022120A0E0A12122222770000000000071B
:105950000202020202020202427F000000000077FF
:10596000363636362A2A2A2A2A6B0000000000E33F
:1059700046464A4A52525262624700000000001CEA
:105980002241414141414141221C00000000003FB1
:10599000424242423E020202020700000000001C96
:1059A0002241414141414D53321C60000000003F03
:1059B0004242423E1212222242C700000000007CF6
:1059C0004242020418204042423E00000000007F94
:1059D0004908080808080808081C0000000000E73B
:1059E0004242424242424242423C0000000000E742
:1059F0004242222424141418080800000000006BFE
:105A0000494949495555362222220000000000E745
:105A1000422424181818242442E7000000000077CC
:105A20002222141408080808081C00000000007E48
:105A30002120101008040442423F000000780808AA
:105A4000080808080808080808087800000002028A
:105A5000040408080810102020204040001E1010E8
:105A6000101010101010101010101E0000384400FC
:105A70000000000000000000000000000000000026
:105A80000000000000000000000000FF0006080009
:105A90000000000000000000000000000000000006
:105AA0000000003C4278444242FC00000000000339
:105AB0000202021A26424242261A0000000000009A
:105AC0000000003844020202443800000000006078
:105AD000404040784442424264D800000000000048
