:020000040800F2
:10000000401700209D010008752D0008C12A000836
:10001000712D000855070008ED31000800000000B0
:100020000000000000000000000000009D2E0008FD
:100030005907000800000000792D0008A12E0008D3
:10004000B7010008B7010008B7010008B7010008B0
:10005000B7010008B7010008B7010008B7010008A0
:10006000B7010008B7010008B7010008B701000890
:10007000B7010008B7010008B7010008B701000880
:10008000B7010008B7010008B7010008B701000870
:10009000B7010008B7010008B7010008B701000860
:1000A000B7010008B7010008B7010008B701000850
:1000B000B7010008B7010008B7010008B701000840
:1000C000B7010008B7010008B7010008B701000830
:1000D000B7010008E1310008B7010008B7010008C6
:1000E000B7010008B7010008B7010008B701000810
:1000F000B7010008B7010008B7010008B701000800
:10010000B7010008B7010008B7010008B7010008EF
:10011000B7010008B7010008B7010008B7010008DF
:10012000B7010008B7010008B7010008B7010008CF
:10013000B7010008B7010008B7010008B7010008BF
:10014000B7010008B7010008B7010008B7010008AF
:10015000B7010008B7010008B7010008B70100089F
:10016000B7010008B7010008B7010008B70100088F
:10017000B7010008B7010008B7010008000000003F
:10018000B7010008B7010008DFF80CD000F05AFAF8
:1001900000480047153200084017002006488047F5
:1001A00006480047FEE7FEE7FEE7FEE7FEE7FEE75C
:1001B000FEE7FEE7FEE7FEE7612F00088901000881
:1001C0002DE9F05F0546002092469B46884606468C
:1001D000814640241BE0284641464746224600F01F
:1001E00069F853465A46C01A914110D31146184631
:1001F000224600F050F82D1A67EB01084F462246C0
:100200000120002100F047F817EB00094E41201EA5
:10021000A4F10104DFDC484631462A464346BDE8E6
:10022000F09F40EA01039B0703D009E008C9121FB1
:1002300008C0042AFAD203E011F8013B00F8013BA0
:10024000521EF9D27047D2B201E000F8012B491ECC
:10025000FBD270470022F6E710B513460A46044663
:100260001946FFF7F0FF204610BD30B50B4601469A
:1002700000202022012409E021FA02F59D4205D345
:1002800003FA02F5491B04FA02F52844151EA2F1EF
:100290000102F1DC30BD202A04DB203A00FA02F131
:1002A000002070479140C2F1200320FA03F3194364
:1002B00090407047202A04DB203A21FA02F0002106
:1002C000704721FA02F3D040C2F120029140084366
:1002D000194670472DE9FE4F804681EA0300C00FA2
:1002E0000C46009021F0004123F00045B8EB0200DD
:1002F000A94105D24046214690461C460B4602467F
:1003000023F00040104347D0270DC7F30A00C3F382
:100310000A510290401A019040286BDAC3F313008F
:1003200040F4801B0098924620B10023D2EB030AD0
:1003300063EB0B0B01985946C0F140025046FFF7A2
:10034000AAFF06460D4650465946019A00F092F91A
:1003500010EB08006141002487EA115284EAE77338
:100360001A4340D0009A62B3019A012A4FEA075219
:1003700015DC001B61EB02014FF0004202EA07525C
:10038000CDE90042001C41F5801132462B4600F0B9
:1003900092F903B0BDE8F08F40462146F9E7001B13
:1003A00061EB0201001C41F5801300185B4120182D
:1003B000A2F5001747EB030140EAD570B6196D416D
:1003C00011E06D084FEA360645EAC0754FEA07525C
:1003D000001B61EB0201001C41F5801149084FEA46
:1003E00030000019514132462B4603B0BDE8F04FB2
:1003F00000F052B90098012240000023D0EB020225
:1004000063EBE073009821464FEAE074B8EB00001C
:1004100061EB0401E9E783F000435BE781F0004111
:1004200058E72DE9FE4F81EA030404F0004421F06F
:10043000004100944FF0000B23F0004350EA010408
:100440005ED052EA03045BD0C3F30A54C1F30A55E9
:100450002C44A4F2F3340194A0FB0254C1F3130121
:1004600041F48011C3F3130343F4801301FB0244EE
:1004700000FB034E840A970A44EA815447EA8357F3
:10048000A4FB076802958D0A05FB07854FEA932CAC
:1004900004FB0C542705029D4FEA065847EA16371D
:1004A000B5EB08056EEB070C870E920E47EA811735
:1004B00042EA8312A7FB0201B6EB0B0164EB0004D6
:1004C0002B0D43EA0C335E1844EB1C50DA465146C0
:1004D000E7FB0201C5F313044FEA0B3343EA14535D
:1004E0004FEA0432019C43EA0603A4F10C0402948F
:1004F000009CCDE900B400F0DEF803B0BDE8F08F59
:1005000000200146F9E72DE9F04D81EA030404F0EB
:10051000004B21F0004514464FF0000A23F0004143
:1005200050EA050220D054EA01021DD0C5F30A5753
:100530000246C5F31303C1F31300C1F30A5640F496
:10054000801543F48013A7EB0608101BD64608F26B
:10055000FD3873EB050002D308F1010801E09218A1
:100560005B41B8F1000F03DA00200146BDE8F08DD1
:1005700000204FF48011064684460EE0171B73EBF3
:10058000050705D3121B63EB050306434CEA010C78
:1005900049084FEA300092185B4150EA0107EDD15B
:1005A00052EA030012D082EA040083EA05010843FC
:1005B00005D0101BAB4106D20122002306E0002229
:1005C0004FF0004302E06FF0010253101AEB0600F7
:1005D0004CEB085110EB0A0041EB0B01BDE8F04D6C
:1005E00000F05AB8C1F30A52C1F3130140F2FF33CD
:1005F00041F480119A4202DA00200146704740F22D
:1006000033439A42A2F2334202DC5242FFF752BE17
:10061000FFF741BE30B5041E71F1000404DB4FF05A
:100620000044404264EB0101141E73F1000405DB39
:100630001C464FF00043524263EB0403994208BF4B
:10064000904230BD1CB5094800900948019005460C
:10065000009C06E0E06840F0010394E8070098473A
:100660001034AC42F6D3FFF793FD0000F872000897
:1006700018730008202A06DBCB17203A41FA02F053
:1006800043EAE07306E041FA02F3D040C2F12002EF
:10069000914008431946704710B5141E73F10004C9
:1006A00008DA401C41F1000192185B411A4301D164
:1006B00020F0010010BD2DE9F04D92469B4611B18E
:1006C000B1FA81F202E0B0FA80F220329046FFF7F0
:1006D000E2FD04460F4640EA0A0041EA0B01534698
:1006E0005A46084313D0114653EA010019D0C8F105
:1006F00040025046FFF7DEFD05460E46504659467D
:100700004246FFF7C8FD084305D0012004E020461B
:100710003946BDE8F08D0020054346EAE0762C43DB
:1007200037430A986305E40AA0EB08000022FD0A9B
:1007300044EA47540A3002D500200146E9E70105A2
:1007400010196941DDE9084500196941BDE8F04D1E
:10075000A2E70000FEE700007047000072B600BF8D
:10076000FEE7000070B5866D044600F021FA94F8AB
:100770003510022928D105462068216C026822F034
:1007800016020260426922F08002426109B9A16C3E
:1007900019B1016821F008010160016821F001012F
:1007A000016000BF20680068C00715D000F000FAA3
:1007B000401B0628F6D320206065032084F835000E
:1007C000002184F8341070BD802060650120002174
:1007D00084F8341070BD00BFE06D3F2101FA00F0D5
:1007E000B060012084F835000020002184F8341026
:1007F00070BD000090F83510022909D1052180F85C
:1008000035100068016821F0010101600020704787
:100810008021416501207047B0B5044600F0C8F959
:10082000054640F20400C2F200000078611C18BFC7
:10083000044400BF00F0BCF9401BA042FAD3B0BD95
:100840002DE9F04F85B0044600F13E4000F1FF7005
:10085000A20542EA9027092F0D46039107D346F2DD
:10086000D560C0F60000AC2102F0C2FC039D2868F0
:100870000021B1EB104F40F0138180B2002800F04E
:100880000F816868B0F5881F80F21781122800F286
:100890002F81012101FA00F00F21C0F20601084268
:1008A00000F0268105F11000029041F60040C4F2EC
:1008B00002000821844208BF07214FF0030E4FF0C9
:1008C00000084FF0000B4FF0000A072F38BF3946E1
:1008D000019109E00AF1010A0BF1020BBAF1100FC4
:1008E00008F1040800F0D8802868012101FA0AF90B
:1008F00010EA0907EED0686800F003014A1E012AD9
:1009000006D9032928D100F0030102293FD06AE06B
:10091000E86804280AD346F2D560C0F60000C0217A
:1009200002F066FC039D4FF0030EE868A1680EFA22
:100930000BF2914300FA0BF00843A060616868680D
:1009400021EA0901C0F3001202FA0AF211436160C0
:1009500000F003010329D6D0A86803280AD346F281
:10096000D560C0F60000D12102F042FC039D4FF09B
:10097000030EA868E1680EFA0BF2914300FA0BF03F
:100980000843E060686800F0030102292BD1029857
:100990000068102806D281B24BF6FF7222FA01F1EC
:1009A000C9070BD146F2D560C0F60000DE2102F087
:1009B0001FFCDDE902054FF0030E02E051A101EB3F
:1009C00080006FF0030101EA5A01214400680A6ABD
:1009D00008F01C030F269E40B24398401043086263
:1009E000686800F0030122680EFA0BF39A4301FADB
:1009F0000BF1114310F4403F21603FF46BAF002036
:100A000043F644010490C4F202010868A44640F48D
:100A100080400860086843F6004400F48040049079
:100A200004982AF00300C4F201044FF6084620445B
:100A3000CFF6FF76815908F00C020F2393409943BB
:100A4000019B03FA02F211438151A068696840EAF0
:100A5000070243F60C46CB0258BF20EA0702A26009
:100A6000C4F2010630688B0240EA070258BF20EA50
:100A70000702326060688B0340EA070258BF20EA31
:100A8000070262602068C90340EA070258BF20EAF3
:100A90000702226064461DE705B0BDE8F08F00BF85
:100AA00046F2D560C0F60000AD2102F0A1FB039D27
:100AB0006868B0F5881FFFF6E9AEB0F5081F0DDADB
:100AC000B0F5881F3FF4EEAEB0F5901F3FF4EAAEEC
:100AD000B0F5041F3FF4E6AE0AE000BF3FF4E2AE1B
:100AE000B0F5441F3FF4DEAEB0F5481F3FF4DAAE78
:100AF00046F2D560C0F60000AE2102F079FB039DFE
:100B0000D0E600BF0000000001000000020000006D
:100B100003000000040000000500000006000000C3
:100B20000700000008000000090000000A000000A3
:100B30000B0000000C0000000D0000000000000091
:100B40000F000000B0B50C46054639B946F2D56035
:100B5000C0F600004FF4DB7102F04AFB686900EA5E
:100B6000040124EA000040EA0140A861B0BD000091
:100B700070B516460C46054631B1022E0ED2002E37
:100B800008BF2404AC6170BD46F2D560C0F6000019
:100B900040F29D1102F02CFB022EF0D346F2D560FC
:100BA000C0F600004FF4CF7102F022FBAC6170BDC3
:100BB00040F23870C2F200000068704740F2040052
:100BC00040F23871C2F20000C2F2000100780A68F7
:100BD000104408607047000080B543F60040C4F23E
:100BE0000200016841F400710160016841F4806114
:100BF0000160016841F480710160032000F0A2F8F7
:100C00000F2000F005F800F027F8002080BD00005C
:100C100070B540F20406C2F2000640F20C013278D0
:100C2000C2F200014FF47A730968B3FBF2F2044692
:100C3000B1FBF2F1084601F0B3FA0F2C4FF00105B9
:100C400008D838B94FF0FF3021460022002500F0C7
:100C500039F87460284670BD82B0002043F6400128
:100C60000190C4F202014A6842F480424A604A6834
:100C700002F480420192019A0090086840F080508E
:100C80000860086800F080500090009802B070473B
:100C9000B0F1FF3F0EDD00F01F01012202FA01F169
:100CA0001C2202EAD0004EF20012CEF20002815065
:100CB000704700BF46F20E70C0F60000BC2102F083
:100CC00097BA000070B515460E46102A044606D3A2
:100CD00046F20E70C0F60000A82102F089FA102E2C
:100CE00006D346F20E70C0F60000A92102F080FA89
:100CF0004EF60C50CEF2000001684FF0FF33C1F306
:100D0000022181F00702042A28BF0422033903FAD2
:100D100002F238BF002126EA02028A4003FA01F1FA
:100D200025EA0101114304F00F02043A104404F1D2
:100D30006042090102F56442002C48BF00F10C0238
:100D4000117070BD10B504460338052806D346F26D
:100D50000E70C0F60000902102F04AFA4EF60C50D8
:100D6000CEF2000001684FF6FF02114064F30A2141
:100D700041F0806141F0FD71016010BD002804BFA9
:100D8000012070472DE9F041044600680D46013806
:100D90000F2807D346F29D60C0F6000040F25A21AA
:100DA00002F026FA082D07D346F29D60C0F6000037
:100DB00040F25B2102F01CFA43F60808C4F2020874
:100DC000D8F8F80300F00700A84208D288F8F853D2
:100DD000D8F8F80300F00700A84240F0B18020687E
:100DE00081071FD5410705D5D8F8001041F4E0511F
:100DF000C8F80010000705D5D8F8000040F460409E
:100E0000C8F80000A0686FF0070101EB3011082955
:100E100080F0B880D8F8001021F0F0010843C8F83D
:100E200000002068C00765D1D8F8F80300F007007B
:100E3000A84207D988F8F853D8F8F80300F007005B
:100E4000A8427DD1206841071AD5E0686FF0030100
:100E500001EBB02104290BD34FEAB02141B146F296
:100E60009D60C0F6000040F2C32102F0C1F9E068C5
:100E7000D8F8001021F4E0510843C8F800002068B9
:100E800000071AD520696FF0030101EBB021042996
:100E90000BD34FEAB02141B146F29D60C0F600008D
:100EA00040F2CA2102F0A4F92069D8F8001021F418
:100EB000604141EAC000C8F8000000F09BF8D8F893
:100EC000001046F27412C1F30311C0F60002515C27
:100ED00040F20C0220FA01F140F20800C2F20000D8
:100EE0000068C2F200021160FFF792FE0020BDE828
:100EF000F08100BF6068042808D346F29D60C0F608
:100F0000000040F2852102F073F96068811E022919
:100F100008D258F8081C89015CBF0120BDE8F081A7
:100F200012E000BF012807D158F8081C89035CBFF4
:100F30000120BDE8F08107E058F8081C890703D4B8
:100F40000120BDE8F08100BFD8F8001021F00301B6
:100F50000843C8F80000FFF72BFE064641F2883729
:100F6000D8F80000616800F00C00B0EB810F3FF48E
:100F70005BAFFFF71DFE801BB842F1D90320BDE82F
:100F8000F08100BF4FEA301100293FF443AF46F231
:100F90009D60C0F6000040F27E2102F029F9A068B1
:100FA00038E7000040F20C0043F60801C2F20000EE
:100FB000C4F202010068096846F28412C1F382217A
:100FC000C0F60002515CC8407047000040F20C00BF
:100FD00043F60801C2F20000C4F202010068096889
:100FE00046F28412C1F34231C0F60002515CC8409F
:100FF0007047000010B543F60404C4F202046068B0
:1010000000F00C0142F200400829C0F2F40007D0C1
:10101000042918BF10BD41F20020C0F27A0010BDB3
:10102000216801F03F02216823684902C3F3881157
:1010300006D4A1FB00010023FFF7C2F807E000BFC0
:1010400041F20020C0F27A004843B0FBF2F0216880
:101050000222C1F3014102EB4101B0FBF1F010BDEE
:10106000F0B585B01446064602280D4607D346F271
:101070009D60C0F6000040F20B3102F0B9F86FF04D
:10108000030000EB346004280AD34FEA346038B11F
:1010900046F29D60C0F600004FF4437102F0A8F8DC
:1010A00043F63007002E40F20006C4F20207C4F2F5
:1010B00002062DD0A80007D046F29D60C0F60000C1
:1010C0004FF44A7102F094F800200090396841F022
:1010D00004013960396801F00401009100994FF46E
:1010E00000710091022101910321CDE902010490D8
:1010F00006F500606946FFF7A3FB57F8280C20F0BF
:10110000784040EAC400284347F8280C05B0F0BDF9
:101110004FEA7550042807D346F29D60C0F60000E0
:101120004FF4447102F064F800200090396841F0F7
:1011300001013960396801F00101009100994FF413
:1011400080710091022101910321CDE902010490F7
:1011500069463046FFF774FB57F8280C20F0EC6026
:101160002843204347F8280C05B0F0BD002804BFF1
:10117000012070472DE9F04182B004460068102834
:1011800007D346F29D60C0F60000E62102F030F879
:10119000206843F60006C007C4F2020612D0606859
:1011A000002818BFB0F5803F40F00881B06800F01B
:1011B0000C00042814D13068800303D5606800282F
:1011C00000F0BE812078800753D5E068022821D244
:1011D0002069202829D2B06810F00C0F31D13AE0F4
:1011E000B06800F00C00082802D170684002E2D418
:1011F0006068B0F5803F07D0B0F5A02F40F05C816B
:10120000306840F480203060306840F480303060D6
:101210005CE100BF46F29D60C0F6000040F21D1187
:1012200001F0E6FF20692028D5D346F29D60C0F684
:1012300000004FF48F7101F0DBFFB06810F00C0F6D
:1012400009D0B06800F00C00082840F08F8070686A
:10125000400200F18B803068800703D5E0680128E8
:1012600040F06E813068216920F0F80040EAC1004A
:101270003060207800071FD42078400742D4A0694E
:10128000032808D346F29D60C0F6000040F2CD115D
:1012900001F0AEFFA069002800F04D81B16801F0B7
:1012A0000C01082940F0AA80012840F0218101208A
:1012B00002B0BDE8F08100BF6069022808D346F2A1
:1012C0009D60C0F600004FF4AF7101F091FF6069BE
:1012D000002840F26000C4F2472000F07B8001212A
:1012E000C0F8201EFFF764FC054600BF706F800742
:1012F000C2D4FFF75DFC401B0228F7D9032002B0DF
:10130000BDE8F081A068052800F2C880012101FA3B
:1013100000F010F0230F00F0C180306C5FEAC008CD
:101320000AD400200190306C40F080503064306C62
:1013300000F080500190019847F20007C4F20007C6
:101340003868C0052CD4386840F480703860FFF7E6
:101350002FFC05463868C00522D4FFF729FC401B46
:101360000228F7D9032002B0BDE8F081E068002828
:101370005ED06020C4F24720012140F8601CFFF7D6
:1013800017FC0546306880073FF56CAFFFF710FC8F
:10139000401B0228F6D9032002B0BDE8F08100BF4F
:1013A000A068012805D005285AD1306F40F004000C
:1013B0003067306F40F0010030675BE0B0F5A02F80
:1013C0003FF4F4AE46F29D60C0F60000EB2101F060
:1013D0000FFFEBE60021C0F8201EFFF7E9FB0546F2
:1013E000706F80077FF548AFFFF7E2FB401B0228D4
:1013F000F6D9032002B0BDE8F08100BF022840F01A
:10140000A380E06940F48000B0F5800F40F0DC80FC
:10141000206A02383E2880F0E480606A3238B0F5F5
:10142000BF7F00F2EC80A06A082840F2F38039E127
:101430006020C4F24720002140F8601CFFF7B8FB91
:10144000054600BF306880077FF513AFFFF7B0FB9C
:10145000401B02284FF00300F4D902B0BDE8F08130
:10146000316F002821F001013167316F21F0040153
:1014700031677DD0FFF79CFB054641F2883700BFFE
:10148000306F800700F18680FFF792FB401BB84267
:10149000F6D9032002B0BDE8F08100BF46F29D609E
:1014A000C0F600004FF4C57101F0A2FE306C5FEA97
:1014B000C0087FF536AF3FE73168002821F480315E
:1014C0003160316821F4802131606DD0FFF770FB0D
:1014D000054600BF306880033FF574AEFFF768FB38
:1014E000401B6428F6D9032002B0BDE8F08100BF9C
:1014F0007068E16900F480028A4221D1216A00F01B
:101500003F028A421CD147F6C071626A0140B1EBCA
:10151000821F15D1A16A4FF6FF73C903994300F4E6
:101520004032A1F580318A420AD1E16A00F0706050
:10153000B0EB016F04D1002002B0BDE8F08100BF24
:10154000012002B0BDE8F0816020C4F247200021F4
:101550000160FFF72DFB044630688001EBD5FFF7F3
:1015600027FB001B02284FF00300F5D975E700BFE9
:10157000FFF71EFB054641F2883700BF306F80073A
:1015800008D5FFF715FB401BB8424FF00300F5D913
:1015900063E700BFB8F1000F3FF571AE306C20F08B
:1015A000805030646BE600BFFFF702FB054600BFCA
:1015B000306880037FF506AEFFF7FAFA401B642817
:1015C0004FF00300F4D948E746F29D60C0F60000F2
:1015D0004FF4EB7101F00CFE206A02383E28FFF454
:1015E0001CAF46F29D60C0F6000040F2D71101F03A
:1015F000FFFD606A3238B0F5BF7F7FF614AF46F268
:101600009D60C0F600004FF4EC7101F0F1FDA06A9E
:10161000082847D8012101FA00F010F4AA7F41D030
:10162000E06A02380E2807D346F29D60C0F600003B
:101630004FF4ED7101F0DCFD6027C4F24727002074
:101640003860FFF7B5FA05463068800108D5FFF726
:10165000AFFA401B02284FF00300F5D9FDE600BFAA
:1016600004F11C052FCD084340EA8210D9034FF640
:10167000FF729143A1F5803140EA05600843706034
:1016800001203860FFF794FA044600BF30688001FB
:101690003FF551AFFFF78CFA001B02284FF0030013
:1016A000F4D9DAE646F29D60C0F6000040F2D911A6
:1016B00001F09EFDE06A02380E28B5D2BCE70000BA
:1016C00070B5002864D00446006843F60001C4F2F7
:1016D0000001884213D043F60041C4F20001884261
:1016E0000DD043F20001C4F20101884207D046F256
:1016F0006560C0F600004FF4A07101F079FD6068EC
:1017000050B1B0F5827F07D046F26560C0F60000A8
:1017100040F2411101F06CFDA068002818BFB0F53F
:10172000806F77D1E06840F40060B0F5006F07D0BB
:1017300046F26560C0F6000040F2431101F058FD2A
:10174000A069002818BFB0F5007F71D1E0694FEAA9
:10175000F00008281ED2206A40F08000802826D1A0
:10176000606A40F0100110292ED1C0B3E0694FEA41
:10177000F000082807D346F26560C0F6000040F28A
:10178000591101F035FD0020C4E9040077E000BFE5
:10179000012070BD46F26560C0F6000040F24511C0
:1017A00001F026FD206A40F080008028D8D046F263
:1017B0006560C0F600004FF4A37101F019FD606A86
:1017C00040F010011029D0D046F26560C0F600004C
:1017D00040F2471101F00CFD606A0028C6D1206973
:1017E00040F00200022831D16069022839D26068D5
:1017F000B0F5827F41D1E0694FEAF00008283ED37E
:1018000046F26560C0F6000040F24F1101F0F0FCB6
:1018100035E000BFB0F5004F3FF484AF46F265609D
:10182000C0F600004FF4A17101F0E2FC7AE700BFBE
:10183000B0F5802F3FF48AAF46F26560C0F6000035
:101840004FF4A27101F0D4FC80E700BF46F265605E
:10185000C0F600004FF4A57101F0CAFC60690228CF
:10186000C5D346F26560C0F6000040F24B1101F0AE
:10187000BFFC6068B0F5827FBDD00020E06100262B
:10188000A66294F8510020B9204684F8506000F018
:101890003DF8022084F8510094E80F0001F48271B1
:1018A000056802F4044225F040050560114403F484
:1018B00000622369114403F002026369114403F0DA
:1018C0000102A369E569114403F40072114405F0B3
:1018D0003802256A114405F08002A56A114305F417
:1018E000005211430160626A042101EA134102F0CF
:1018F000100211444160C16921F40061C1610120FD
:10190000666584F85100304670BD0000016843F6FA
:101910000000C4F20000814218BF704780B586B055
:10192000002143F630020191C4F20202136900F56E
:10193000E63043F480431361136903F48043019359
:10194000019B0191136843F002031360126802F0D7
:1019500002020192019A4FF4444201920222CDE91F
:101960000221032104910521059101A9FEF768FFD9
:1019700006B0BDE8804070472DE9F04381B00446D1
:1019800090F85100012811D16068994616460D461D
:10199000B0F5827F01D1A068D0B194F85000012841
:1019A00006D10227384601B0BDE8F083022708E0DF
:1019B000012784F85070FFF7FBF8002D18BF002EA8
:1019C00014D1002084F85000384601B0BDE8F083FF
:1019D000042084F85100204629462A463346CDF893
:1019E000009000F01FFA01B0BDE8F08380460420AB
:1019F000002184F851006165A563A687E68721630D
:101A0000A186E186A2682068B2F5004F2164616476
:101A100040D1016821F040010160016821F480415A
:101A200001600168490638D5E168E08F00293CD0A3
:101A300000286BD019F101000BD11AE0C068A16B2E
:101A400021F8020BA163E08F0138E087E08F0028C6
:101A50005CD020688168C907F0D1FFF7A9F8A0EB36
:101A600008004845F2D33AE0FFF7A2F8E08F0028DB
:101A70004CD020688168C907F6D0C068A16B21F8F6
:101A8000020BA163E08F0138E087E08F0028F0D1DE
:101A90003CE000BF01684906C6D4016841F040013E
:101AA0000160E168E08F0029C2D178B319F101002B
:101AB0000BD11BE0007BA16B0870A06B0130A06311
:101AC000E08F0138E087E08F00B320688168C907A4
:101AD000F0D1FFF76DF8A0EB08004845F3D30327DA
:101AE0003FE000BFFFF764F8E08F78B120688168BD
:101AF000C907F7D0007BA16B0870A06B0130A06311
:101B0000E08F0138E087E08F0028EFD16068B0F502
:101B1000827F0ED1A068B0F5004F02D0B0F5806F83
:101B20000AD12168B0F5806F0A6822F040020A608D
:101B300002D12046012101E02046802100224B46AF
:101B4000CDF8008001F01AF928B1606D40F0200056
:101B5000606520206065606D10B1012731E700BF2E
:101B60000027012084F851002BE700002DE9F04107
:101B700084B0044680681D4640F400401646B0F527
:101B8000004F0F4608D194F85000012810D10220D0
:101B900004B0BDE8F08100BF46F26560C0F6000009
:101BA0004FF4427101F024FB94F850000128EED06C
:101BB000012084F85000FEF7FBFF94F85110012932
:101BC0000CD18046002F4FF0010018BF002E0DD120
:101BD000002184F8501004B0BDE8F08102200021FB
:101BE00084F8501004B0BDE8F08100BF032000214C
:101BF00084F8510061652763A686E686A163A18704
:101C0000E187A0682164B0F5004F2068616407D1C6
:101C1000016821F040010160016841F480410160E8
:101C20000168490603D4016841F040010160616820
:101C3000731EE268B1FA81F1B3FA83F349095B09D3
:101C4000B2F5006F41EA03013AD131B137F8021B16
:101C5000C1602763E08E0138E086E08E002869D0FD
:101C6000681C0CD11BE000BF216B31F8022BC26055
:101C70002163E08E0138E086E08E00285AD020688B
:101C800081688907F0D4FEF793FFA0EB0800A84213
:101C9000F2D338E0FEF78CFFE08E00284AD02068AF
:101CA00081688907F6D5216B31F8022BC260216368
:101CB000E08E0138E086E08E0028F0D13AE000BFE7
:101CC00039B139780173206B01302063E08E01381F
:101CD000E086E08E70B3681C0BD11BE0216B0978A5
:101CE0000173206B01302063E08E0138E086E08EC6
:101CF00000B3206881688907F0D4FEF759FFA0EB94
:101D00000800A842F3D3032083E000BFFEF750FF92
:101D1000E08E78B1206881688907F7D5216B097852
:101D20000173206B01302063E08E0138E086E08E85
:101D30000028EFD12046022101222B46CDF8008059
:101D400001F01CF8D0B1606D40F0200060652020EB
:101D50006065A06838B9002002902068C1680291CF
:101D6000806802900298606D002851D00120002107
:101D700084F8501004B0BDE8F08100BF40F20C00C0
:101D8000C2F20000006849F68171C1F25E61A0FBF9
:101D90000101480D4FF47A71484303906068B0F533
:101DA000827F0BD12046802100222B46CDF8008077
:101DB00000F0E4FF0028C6D1CBE700BF039800285D
:101DC000C7D0039801380390206880680006C0D50A
:101DD00003980028BDD003980138039020688068DC
:101DE0000006B6D503980028B3D0039801380390B5
:101DF000206880680006ACD503980028A9D0039815
:101E000001380390206880680006D7D4A1E700BF9E
:101E10000020012184F85110002184F8501004B0F2
:101E2000BDE8F0812DE9F04383B0044680681E468A
:101E300015460F4638B146F26560C0F6000040F224
:101E4000864101F0D5F994F85000012804D1022010
:101E500003B0BDE8F08300BF012084F85000FEF716
:101E6000A7FE94F85110814601290BD1002F4FF0A5
:101E7000010018BF002D13D1002184F8501003B0C9
:101E8000BDE8F0836068B0F5827F40F09980042956
:101E90004FF00200F0D1A1680029E7D0ECE700BFC5
:101EA000002EE9D094F85100002104281CBF052021
:101EB00084F851006165A563E687A6872763E686F7
:101EC0002068A686216461640168490603D401681C
:101ED00041F0400101606168731EE268B1FA81F16E
:101EE000B3FA83F3DDF8288049095B09B2F5006F86
:101EF00041EA03016CD131B137F8021BC16027639D
:101F0000E08E0138E086012518F1010031D101E0B1
:101F1000FEF74EFEE08E18B9E08F002800F0C0807A
:101F20002068816889070CD5E18E51B1012D08D157
:101F3000216B002531F8022BC2602163E18E01394B
:101F4000E1868168C907E3D0E18F0029E0D0C0684D
:101F5000A16B012521F8020BA163E08F0138E08716
:101F6000D6E700BFFEF724FEA0EB0900404580F055
:101F7000AD80E08E18B9E08F002800F091802068D5
:101F8000816889070CD5E18E51B1012D08D1216BF3
:101F9000002531F8022BC2602163E18E0139E18610
:101FA0008168C907DED0E18F0029DBD0C068A16B52
:101FB000012521F8020BA163E08F0138E087D1E70A
:101FC0000220002184F8501003B0BDE8F08300BF68
:101FD00039B139780173206B01302063E08E01380C
:101FE000E086012518F1010032D101E0FEF7E0FDA5
:101FF000E08E10B9E08F002852D0206881688907F0
:102000000ED5E18E61B1012D0AD1216B0025097831
:102010000173216B206801312163E18E0139E18672
:102020008168C907E2D0E18F0029DFD0C068A16BC9
:1020300001250870A06B0130A063E08F0138E087B4
:10204000D4E700BFFEF7B4FDA0EB090040453DD248
:10205000E08E08B9E08F18B32068816889070ED533
:10206000E18E61B1012D0AD1216B00250978017340
:10207000216B206801312163E18E0139E18681689D
:10208000C907DFD0E18F0029DCD0C068A16B012532
:102090000870A06B0130A063E08F0138E087D1E7C2
:1020A0002046022101224346CDF8009000F066FE52
:1020B000B0B1606D40F020006065202060650120B7
:1020C000002184F8501003B0BDE8F083012084F8AB
:1020D00051000320002184F8501003B0BDE8F083C4
:1020E00040F20C00C2F20000006849F68171C1F2B2
:1020F0005E61A0FB0101480D4FF47A7148430290E4
:102100006068B0F5827F21D12046802100224346BD
:10211000CDF8009000F032FE0028CAD1A06838B98E
:10212000002001902068C1680191806801900198A9
:10213000606D00284FF0010004BF84F851000020BA
:10214000002184F8501003B0BDE8F0830298002805
:10215000E4D0029801380290206880680006DDD53E
:1021600002980028DAD0029801380290206880682E
:102170000006D3D502980028D0D0029801380290EA
:10218000206880680006C9D502980028C6D0029849
:1021900001380290206880680006D7D4BEE70000AE
:1021A000411E0020B0EB116F1CBF012070474EF2A2
:1021B0001002CEF2000251604EF62351CEF2000121
:1021C000F0230B700721906011607047704700008A
:1021D00070470000B0B582B0044600680168C3686B
:1021E000426901F02F05202D03F0200506D12DB105
:1021F000204602B0BDE8B04000F0C2BE5FEA017CFC
:102200001EBF02F0010E03F4907212EB0E0243D1D6
:10221000226BCD0618D5012A16D113F0100213D067
:102220000021019101680191416801910199406982
:1022300040063BD4A08DE18DE28D002A18BF884274
:1022400040F0F28102B0B0BD0A0640F1E78013F021
:10225000800200F0E38094F841102129F2D1A168B6
:10226000B1F5805F03D12169002900F06382216A02
:102270004A1C226209784160E18C01390A04E18438
:10228000E0D1C16821F08001C160C16841F0400126
:10229000C16002B0B0BD00BFCA0718BF13F480729E
:1022A00040F0D0804A0700F1D380D8E0E06B0168AD
:1022B00049688AB2002AC5D0A38D9A42C2D2E1856C
:1022C000C069B0F5807F00F09D80206850E8030F62
:1022D000216820F4807041E80302DAB1206850E8F8
:1022E000030F216820F4807041E8030292B1206856
:1022F00050E8030F216820F4807041E803024AB1DE
:10230000206850E8030F216820F4807041E8030240
:10231000002ADAD1206850E8050F216820F001007A
:1023200041E80502BAB3206850E8050F216820F0A3
:10233000010041E8050272B3206850E8050F2168EA
:1023400020F0010041E805022AB3206850E8050F9B
:10235000216820F0010041E80502002ADAD11AE0E4
:10236000206850E8050F216820F0400041E8050290
:10237000DAB1206850E8050F216820F0400041E8FC
:10238000050292B1206850E8050F216820F0400056
:1023900041E805024AB1206850E8050F216820F0A5
:1023A000400041E80502002ADAD1202084F84200EA
:1023B00000202063206850E8030F216820F01000FF
:1023C00041E80302DAB1206850E8030F216820F0E9
:1023D000100041E8030292B1206850E8030F216821
:1023E00020F0100041E803024AB1206850E8030FD2
:1023F000216820F0100041E80302002ADAD1E06BE6
:10240000FEF7B0F902206063A08DE18D401A81B221
:10241000204602B0BDE8B040FFF7D8BE49067FF5C0
:1024200011AF13F040013FF40DAFC16821F040013E
:10243000C1602021204684F8411002B0BDE8B040C0
:1024400000F03CBB626C42F0010262644A0706D5B0
:10245000BEF1000F03D0626C42F0020262648A0790
:1024600006D5BEF1000F03D0626C42F00402626434
:10247000BCF1000F06D55EEA050203D0626C42F0A3
:1024800008026264626C002A3FF4DCAE890604D55F
:102490001DB1204600F074FD20684069616C00F0B9
:1024A000400001F00801401800F0B680206850E8B4
:1024B000030F216820F4907041E80302BAB320684A
:1024C00050E8030F216820F4907041E8030272B3D2
:1024D000206850E8030F216820F4907041E803025F
:1024E0002AB3206850E8030F216820F4907041E877
:1024F0000302002ADAD11AE0206850E8050F2168AB
:1025000020F0010041E80502DAB1206850E8050F2B
:10251000216820F0010041E8050292B1206850E8EE
:10252000050F216820F0010041E805024AB120684A
:1025300050E8050F216820F0010041E80502002A5B
:10254000DAD1206B012824D1206850E8030F2168DC
:1025500020F0100041E80302DAB1206850E8030FD0
:10256000216820F0100041E8030292B1206850E891
:10257000030F216820F0100041E803024AB12068EF
:1025800050E8030F216820F0100041E80302002A00
:10259000DAD1202084F842000020206320684069BE
:1025A000400640F1C180206850E8050F216820F006
:1025B000400041E80502DAB1206850E8050F2168C3
:1025C00020F0400041E8050292B1206850E8050F74
:1025D000216820F0400041E805024AB1206850E837
:1025E000050F216820F0400041E80502002ADAD1F9
:1025F000E06B002800F0988042F67571C0F600018B
:102600000165FEF7F7F800283FF41CAEE06B016DA2
:1026100002B0BDE8B04008472046FFF7D9FD0020D2
:10262000606402B0B0BD00BF401A00BF216851E82D
:10263000031F226821F4907142E80313BBB32168A1
:1026400051E8031F226821F4907142E8031373B329
:10265000216851E8031F226821F4907142E80313B6
:102660002BB3216851E8031F226821F4907142E8DE
:102670000313002BDAD11AE0216851E8051F226804
:1026800021F0010142E80513DBB1216851E8051F83
:10269000226821F0010142E8051393B1216851E855
:1026A000051F226821F0010142E805134BB12168A2
:1026B00051E8051F226821F0010142E80513002BB3
:1026C000DAD1202184F8421000212163216851E8E9
:1026D000031F226821F0100142E80313DBB12168D7
:1026E00051E8031F226821F0100142E8031393B15F
:1026F000216851E8031F226821F0100142E803130A
:102700004BB1216851E8031F226821F0100142E813
:102710000313002BDAD1022281B22046626302B099
:10272000BDE8B040FFF752BD204602B0BDE8B04062
:10273000FFF74EBD216A31F8022B6FF35F22426032
:10274000216299E5002804BF0120704710B5816916
:102750000446006891B140F6FF72C4F20102904253
:1027600028DC44F20042C4F20002904237D044F622
:102770000002C4F20002904231D027E044F6FF711B
:10278000C4F2000188424FF4BC7100F3878044F228
:102790000042C4F2000290422DD044F60002C4F27E
:1027A0000002904227D044F60042C4F20002904258
:1027B00021D01AE041F20002C4F2010290420ED090
:1027C00041F20042C4F20102904208D046F2497040
:1027D000C0F6000040F2731100F00AFDA1694FEA53
:1027E0003120042807D34FF4BA7146F24970C0F67D
:1027F000000000F0FDFCA06840F48050B0F5805F60
:1028000030D1E06940F40040B0F5004F38D194F881
:10281000410028B9002084F84000204600F052F81A
:10282000242084F841002068C16821F40051C1606F
:10283000204600F025FC2068016921F490410161E7
:10284000416921F02A014161C16841F40051C16030
:1028500000202021606484F8411084F842106063F5
:1028600010BD00BF46F24970C0F600004FF4BD71C4
:1028700000F0BEFCE06940F40040B0F5004FC6D067
:1028800046F24970C0F6000040F27B1100F0B0FC47
:1028900094F841000028C3D1BCE700BF45F2000214
:1028A000C4F200029042A6D041F20002C4F201023A
:1028B0009042A0D041F20042C4F2010290429AD06C
:1028C00093E70000016841F20000C4F20100814278
:1028D00018BF704780B586B0002143F630020191E1
:1028E000C4F20202536900F5704043F010035361D3
:1028F000536903F010030193019B0191136843F0A6
:1029000001031360126802F001020192019A4FF470
:10291000C06201920222CDE9022103210491072124
:10292000059101A9FDF78CFF252000210022FEF76B
:10293000C9F92520FEF7ACF906B0BDE88040704724
:10294000704700002DE9F041044690F8410020282E
:102950001CBF0220BDE8F0810D4600294FF00100A8
:1029600000F0AA801646002A08BFBDE8F0810020CA
:1029700060642120984684F84100FEF719F9A68486
:10298000E684A1680646B1F5805F02D1206900287F
:1029900062D02F460025E08C002861D018F101009C
:1029A00018D0B8F1000F37D1216808E017F8010BF3
:1029B0004860E08C0138E084E08C002851D0086841
:1029C000000673D5002FF1D135F8020B00276FF305
:1029D0005F20EDE7216802E00868000609D4086876
:1029E000000606D4086800065CBF08685FEA00605D
:1029F000F2D51FB117F8010B05E000BF35F8020B47
:102A000000276FF35F204860E08C0138E084E08CA1
:102A10000028E4D125E000BF216800BF0868000657
:102A200008D4FEF7C5F8801B404541D82168C86826
:102A3000F4E700BF17B117F8010B04E035F8020BFB
:102A400000276FF35F204860E08C0138E084E08C61
:102A50000028E3D105E000BF0027E08C00289DD1CD
:102A60002168086840061FD4B8F1000F1ED018F185
:102A700001000FD10868400616D40868400613D438
:102A80000868400610D4086840064FF00000F1D5F1
:102A90000FE000BFFEF78CF8801B404508D8206887
:102AA000C16800684006F5D5002002E0FEF780F816
:102AB0000320202184F84110BDE8F0817047000018
:102AC000FEE700002DE9F04F87B0002543F6300007
:102AD000CDE905550195C4F20200016840F60009F0
:102AE00041F0100101600168C4F2020901F0100117
:102AF0000191019901950168012241F004010160F1
:102B00000168072701F0040101910199019501680D
:102B100041F080010160016801F08001019101999B
:102B20000195016841F001010160016801F00101B6
:102B3000019101990195016841F00201016001686C
:102B400001F00201019101990195016841F008012C
:102B500001600068072100F00800019001984846D4
:102B6000FEF706F809F5006630464FF400410022F2
:102B7000FDF7FEFF47F68C7002AC02904FF0030A9F
:102B800030462146CDE903A5FDF75AFE7320029099
:102B90000D204FF0020B069030462146CDE903B5DB
:102BA00005954FF00D08FDF74BFE4EF23800CDE9CC
:102BB000020A484621460495FDF742FE0120CDE970
:102BC00003004846214602970595FDF739FE48F275
:102BD000AF00A9F50067CDE9020A38462146049501
:102BE000FDF72EFE5020CDE9020B38462146CDE9F7
:102BF0000455CDF81880FDF723FE43F63F00A9F5F4
:102C00008068CDE9020A404621460495FDF718FE8A
:102C10004FF4004002900120CDE9030030462146E8
:102C20000595FDF70DFE4FF6FB7009F58066CDE9C1
:102C3000020A304621460495FDF702FEC020CDE988
:102C4000020B0D20069048462146CDE90455FDF7BC
:102C5000F7FD4FF4F850CDE9020B0C2006904846E2
:102C60002146CDE9045AFDF7EBFD4FF48070CDE924
:102C7000020B38462146CDE904550695FDF7E0FDE7
:102C80004FF4C050CDE9020B0A2006903846214689
:102C9000CDE9045AFDF7D4FD0C20042706903046F8
:102CA0002146CDE9027BCDE9045AFDF7C9FDC020DC
:102CB000CDE9020B0D20069040462146CDE9045592
:102CC000FDF7BEFD4FF440700290122003A981E889
:102CD0002104404621460697FDF7B2FD07B0BDE846
:102CE000F08F000010B540F2900043F60001C2F2F0
:102CF0000000C4F200014FF48272002380E80E004D
:102D000000F10C014FF0020C4FF0010E4FF4007473
:102D100081E808500A21C0E90643C0E90833C0E948
:102D20000A31FEF7CDFC002808BF10BDBDE81040F9
:102D3000FDF714BD80B540F2E80041F20001C2F297
:102D40000000C4F2010100234FF00C0C4FF4E132FB
:102D500080E80E00C0E90333C0E905C3C361FFF793
:102D6000F1FC002808BF80BDBDE88040FDF7F6BC3F
:102D7000FEE70000FEE70000704700002DE9F04389
:102D800081B0089C984615460E468146FDF710FF17
:102D9000201A00EB0804FDF70BFF40F20C01C2F211
:102DA00000010968C1F3CB3161430091D9F80010EB
:102DB0008A683240921BB2FA82F25209AA423DD08E
:102DC000074618F1010031D0FDF7F2FEC01BA0420A
:102DD00038D2009800990028A1F101010091D9F89A
:102DE0000010896808BF044601EA0600801BB0FA9B
:102DF00080F04009A842E7D120E000BF8868304059
:102E0000801BB0FA80F04009A84217D08868304093
:102E1000801BB0FA80F04009A8420FD0886830408B
:102E2000801BB0FA80F04009A84207D08868304083
:102E3000801BB0FA80F04009A842DFD1002001B029
:102E4000BDE8F083D9E900014268B1F5827F22F044
:102E5000E00242600BD1D9F80810B1F5004F02D062
:102E6000B1F5806F03D1016821F040010160D9F80C
:102E70002810B1F5005F07D1016821F4005101600D
:102E8000016841F400510160012089F851000020DF
:102E900089F85000032001B0BDE8F08370470000BE
:102EA000FDF78CBEB0B592B0002443F64000CDE9EA
:102EB0000A44CDE908440594CDE90344CDE9014431
:102EC0000094C4F202000168022541F080510160C3
:102ED000006800F080500090009847F200000094D5
:102EE000C4F20000016841F4804101600068A8213B
:102EF00000F4804000900098032006904FF480304A
:102F000007900120099010200A904FF480000D9046
:102F100004200E90119006A80C95CDE90F15FEF730
:102F200025F918B172B600BFFEE700BF0F20CDE94A
:102F300001054FF4A05004904FF48050059001A873
:102F400005210394FDF71AFF10B172B6FEE700BF2A
:102F5000002000210022FEF783F812B0B0BD00006F
:102F60004EF68850CEF20000016841F47001016015
:102F700070470000806B0021C185C184FFF728B92C
:102F800081B090F84210222921D183680246B3F51E
:102F9000805F09D152F8281F52F8183C002B63D0EB
:102FA00003685B680AE000BF52F8281F13B9036981
:102FB000002BF5D003685B6803F07F030B7011688A
:102FC00001311160C18D01390A04C18502D001B0FF
:102FD000704700BF0168CA6822F02002CA60CA6850
:102FE00022F48072CA604A6922F001024A612021FB
:102FF00080F8421000214163026B012A3CD1016339
:10300000016851E8031F026821F0100142E8031330
:10301000DBB1016851E8031F026821F0100142E8AA
:10302000031393B1016851E8031F026821F01001F6
:1030300042E803134BB1016851E8031F026821F015
:10304000100142E80313002BDAD101680A68D206A6
:1030500006D5002200920A68009249680091009902
:10306000818D01B0FFF7B2B8026852686FF35F223A
:1030700021F8022B8162A5E701B0FFF761BC0000D7
:10308000B0B50446406843F2A171C0F2A001884285
:1030900007D346F24970C0F6000040F6756100F0B3
:1030A000A7F8E06840F40050B0F5005F07D046F2A2
:1030B0004970C0F6000040F6766100F099F820698A
:1030C000002818BFB0F5806F32D1606918B14FF693
:1030D000F371084007D046F24970C0F6000040F690
:1030E000786100F085F8206804F108030ECB0569CB
:1030F000194325F440552A4302616269E36911438B
:10310000C268194349F20C639A431143C160416993
:10311000A26921F4407141F20043114340F48062FE
:10312000C4F201039A4241610ED1FDF74FFF0DE059
:10313000B0F5C06FC9D046F24970C0F6000040F645
:10314000776100F055F8C0E7FDF72CFFE1694FF615
:103150009C7563681922C0F6FF75B1F5004FA0FB9E
:1031600002011FD15A00DB0FFDF72AF848F21F5168
:10317000C5F2EB11A0FB01235A0905F1805302FBB4
:103180000300322303EBC000A0FB01014FF4F870F1
:1031900000EA111000EB0210C1F34211084421684B
:1031A0008860B0BD9A009B0FFDF70AF848F21F51E6
:1031B000C5F2EB11A0FB01235A0902FB05003223E3
:1031C00003EB0010A0FB0101F02000EA511000EB1E
:1031D0000210C1F34311084421688860B0BD0000AB
:1031E00040F2E800C2F20000FEF7F4BFFEE7000084
:1031F0007047000080B582B0019040F2E800C2F252
:10320000000001A901224FF6FF73FFF79BFB019815
:1032100002B080BD40F60004C4F20204FDF7DCFCFD
:10322000FFF740FEFFF74EFCFFF784FDFFF75AFD66
:1032300001F0B2F930B1204601210022FDF798FCDF
:103240000AE000BF40F23532C2F2000200204FF423
:10325000806100F02BFB00BF20460121FDF772FCCE
:1032600020460221FDF76EFC20460421FDF76AFC92
:10327000C820FDF7D1FAEFE72DE9F04F87B0E8B1AC
:103280001D46164680460F46012B02D0B5F5807FBD
:103290002CD198F8340000283CD0D8F81000F1194F
:1032A00081424FD946F6D500C0F6000001F0E0F9A2
:1032B0004FF00509484607B0BDE8F08F46F6CF3716
:1032C00046F6793046F64A1246F6F233C0F6000763
:1032D000C0F60000C0F60002C0F6000340F27521FF
:1032E000009701F099F900BFFEE700BF46F6CF371F
:1032F00046F6793046F64A12C0F60007C0F60000DE
:10330000C0F60002BFA340F27721009701F084F9D4
:10331000FEE700BF46F6CF3746F6793046F64A124A
:1033200046F60043C0F60007C0F60000C0F60002F3
:10333000C0F6000340F27921009701F06DF900BF5B
:10334000FEE700BFD8F8281008F1200409B1204694
:103350008847002E4FF0000A00F006811098019572
:1033600035460290062005A90394D8F824608DF80C
:1033700014002046012200238B46CDF800A0B04760
:10338000002840F025812046D8F8244005218DF8FA
:1033900015100DF1150101220DF113030126009600
:1033A000A047002840F016819DF81300800740F1E7
:1033B000158198F835100420002908BF032040F239
:1033C0003029039C0029C2F200094FF0020189F85C
:1033D000001035D06FF007014FF6FE7C4FF6FD7EF2
:1033E0004FF6FC7A01EBC0020021C1F6FF7CC1F66A
:1033F000FF7EC1F6FF7A00BF27FA02F309EB010650
:10340000737081EA0C030344DB0027FA03F3B37003
:1034100081EA0E030344DB0027FA03F3F37081EA29
:103420000A030344DB00043127FA03F30429A2F161
:1034300020023371E0D110F0030205D11FE000BF7C
:10344000002110F003021AD0CB430344DB0027FA1B
:1034500003F609EB0103012A5E7010D0401A6FF0E9
:103460000F0101EBC00127FA01F1022A997006D081
:103470006FF0170101EBC00027FA00F0D87098F840
:10348000350001990028B7FBF1F04FF0050601FB6C
:1034900000F0A0EB070001EB000A08BF0426554529
:1034A00038BFAA46029909EB06005246FCF7B9FE5E
:1034B000D8F824C00AEB060220464946002300261D
:1034C0000096E047002840F09380D8F824C00520FB
:1034D000D8F83C608DF8170020460DF11701012245
:1034E0000DF116030124A5EB0A0957440094E047A7
:1034F00020B900BF9DF81600C00717D0039C3EB34B
:10350000D8F83800002818BF8047D8F82450052084
:103510008DF81800204606A901220DF1160301249A
:10352000013E0094A8470028E8D1E3E70298039CF5
:103530005044594602904D46B9F1000F4FF0000932
:103540004FF0000A4FF006007FF40FAF0EE000BF0F
:1035500046F62510C0F6000001F08AF84FF0040985
:103560004FF0000A02E000BF4FF000090420D8F835
:1035700024708DF81A000DF11A0120460122002353
:10358000CDF800A00126B847B8B90520D8F82470B6
:103590008DF81B000DF11B010DF1190320460122CE
:1035A0000096B84748B99DF81900800705D546F63A
:1035B000F010C0F6000001F05BF8D8F82C100029DC
:1035C0003FF478AE20468847484607B0BDE8F08F04
:1035D0008146CBE7039C8146C8E700BF46F6CE1084
:1035E000C0F6000001F044F8039C4FF00209BDE76B
:1035F000814646F6FB00C0F6000001F039F84FF0B6
:10360000000AB3E777726974655F6772616E203D87
:103610003D2031207C7C2077726974655F67726120
:103620006E203D3D20323536000000004DF6F000A2
:10363000CFF6FF7000BF00BF00BF00BF00BF00BFDC
:1036400000BF00BF00BF00BF00BF00BF00BF00BF82
:1036500000BF00BF00BF00BF00BF00BF00BF00BF72
:1036600000BF00BF00BF00BF00BF00BF00BF00BF62
:1036700000BF00BF00BF00BF00BF00BF00BF00BF52
:1036800000BF00BF00BF00BF00BF00BF00BF00BF42
:1036900000BF00BF00BF323000BFCBD17047000079
:1036A0002DE9F04F85B0B8B3044690F834000028F7
:1036B0004AD0A16A04F1200509B1284688470620AE
:1036C000666A8DF80C000020009003A928460122AC
:1036D00000230127B0470646002840F0A0800520BF
:1036E000666A8DF80D000DF10D010DF10B032846F2
:1036F00001220097B0470646002840F090809DF8D0
:103700000B00800738D446F6CE10C0F6000000F05B
:10371000AFFF022683E000BF46F6BF3746F679309A
:1037200046F64A1246F6F233C0F60007C0F600002D
:10373000C0F60002C0F600034FF4EA71009700F0F3
:103740006BFF00BFFEE700BF46F6BF3746F6793095
:1037500046F64A1246F60043C0F60007C0F60000DF
:10376000C0F60002C0F600034FF4EB71009700F0C2
:1037700053FF00BFFEE700BF207DC72100078DF883
:10378000071001D4012207E048F29400ADF80800C8
:103790009A2004228DF80A00676A00260DF10701BD
:1037A000284600230096B84720B1064633A000F013
:1037B0005FFF34E0676A0DF10E08E66B4FF0050914
:1037C0004FF0010A0DF10F012846012243468DF802
:1037D0000F90CDF800A0B8470DF1100B18B99DF867
:1037E0000E00C0071AD08EB1A06B002818BF80470A
:1037F000676A2846594601224346013E8DF81090DB
:10380000CDF800A0B8470028EDD1E8E746F625102E
:10381000C0F6000000F02CFF042600E00026042083
:10382000676A8DF81200002000900DF11201284601
:10383000012200234FF00108B847B8B90520676A94
:103840008DF813000DF113010DF11103284601222B
:10385000CDF80080B84748B99DF81100800705D51C
:1038600046F6F010C0F6000000F002FFE16A09B170
:1038700028468847304605B0BDE8F08F4572726F24
:10388000723A20466C6173682063686970206572C3
:103890006173652053504920636F6D6D756E696368
:1038A000617465206572726F722E00002DE9F04F11
:1038B00081B00746002092460C4600F063FE834626
:1038C0002CB3042C04F0030002D2002112E000BF4C
:1038D00024F003020AF10103002100BF4E1C5D1811
:1038E0005E548E1C05F8011C6E70CE1C0431914292
:1038F000AE70F3D158B101280AF8011007D04A1C64
:1039000002280AF802201CBF881C0AF8000058464A
:103910003946224600F074FCDBF8001030B15FA09D
:1039200001B0BDE8F04F01F075BF00BF46F2565040
:10393000C0F600003A46234601F06CFF584639466F
:103940002246534601F098FCDBF8001030B15CA031
:1039500001B0BDE8F04F01F05DBF00BF46F29850E6
:10396000C0F600003A46234601F054FF5846394657
:103970002246534600F0A2FEDBF8001060B359A0C7
:1039800001F048FF002C63D0604203270AEB0701D7
:1039900011F8033CFA1ED6B2B3425DD1C219022A15
:1039A00068D0BB1E11F8026CDDB2AE4252D1012AC2
:1039B00060D07B1E11F8011CDEB2B1424AD1002A50
:1039C00058D01AF80710FAB2914246D10437C119FB
:1039D0000329DBD14EE000BF46F2DA50C0F600000A
:1039E0003A46234601F016FF46F22960C0F6000071
:1039F00002F0AEFB24B346F26366651E4FF000088A
:103A00000FF20C19C0F6000602E000BF444517D0C3
:103A10005FEA087004D107EB08013BA001F0FAFE51
:103A20001AF80810484601F0F5FE454508F101086E
:103A300018BF18F00F00E9D1304602F089FBE5E726
:103A400046F26360C0F6000002F082FB002C9BD1BE
:103A500000270AE01F4600E01746DBF8001046F298
:103A6000EC40C0F6000001F0D5FEA7421CBF01B03B
:103A7000BDE8F08FDBF8001046F23650C0F60000CB
:103A800001F0C8FE40F60000C4F20200022100224C
:103A900001B0BDE8F04FFDF76BB800BF4572617330
:103AA000652074686520257320666C6173682064E6
:103AB000617461206661696C65642E0D0A00000006
:103AC00057726974652074686520257320666C617F
:103AD00073682064617461206661696C65642E0D91
:103AE0000A00000052656164207468652025732017
:103AF000666C6173682064617461206661696C65DD
:103B0000642E0D0A000000005B253038585D20004F
:103B100025303258200000002DE9F04F85B098B1D3
:103B2000044601F083FB38B3064646F64B00C0F668
:103B300000000027216884F8347000F099FD3046B9
:103B400005B0BDE8F08F00BF46F65B4746F679301A
:103B500046F64A1246F6F233C0F60007C0F60000F9
:103B6000C0F60002C0F6000340F20111009700F019
:103B700053FD00BFFEE700BF676AEFB123693BB1A9
:103B8000A08A28B1A06918B1207F002840F0FD80EC
:103B90009F2104F120008DF8131003260DF113016D
:103BA0000DF10E0301220096B847E8B106460FF268
:103BB000C85000F05DFDB8E746F65B4746F6793041
:103BC00046F64A1246F63443C0F60007C0F6000037
:103BD000C0F60002C0F600034FF48771009700F0B2
:103BE0001BFD00BFFEE700BF9DF80E309DF80F7073
:103BF0009DF8106046F6793046F2C572C0F60000B6
:103C0000C0F6000240F2713123736773A673CDE9E9
:103C1000007600F001FD204600F072FE70B3002136
:103C2000D4E91430A160B4F84810012223610129BD
:103C300008BF0222E16DA28294F858200029A061F9
:103C4000227718BF884204D994F86000A1612077D8
:103C50000846616E002918BF884204D994F86800AC
:103C6000A16120770846E16E002918BF884240F222
:103C7000858094F87000A1617FE000BF227B4FF641
:103C8000305346F28C110020CFF6FF73C0F60001CE
:103C900004E000BF903300F1060057D0CF1897F82A
:103CA000D462964209D197F8D562657BAE4204D1C1
:103CB00097F8D662A57BAE4251D097F8EC62964257
:103CC00009D197F8ED62657BAE4204D197F8EE62B8
:103CD000A57BAE423CD097F80463964209D197F891
:103CE0000563657BAE4204D197F80663A57BAE42BF
:103CF00030D097F81C63964209D197F81D63657B15
:103D0000AE4204D197F81E63A57BAE4224D097F84B
:103D10003463964209D197F83563657BAE4204D18E
:103D200097F83663A57BAE4218D097F84C6396425D
:103D3000B0D197F84D63657BAE42ABD197F84E7327
:103D4000A67BB742A6D1053009E000BF236915E084
:103D5000013004E0023002E0033000E0043000EB08
:103D6000400051F8302001EBC000A2608368016977
:103D700023618289A161A282007D2077002B00F05F
:103D80006B80A08A002800F06780A069002800F0FE
:103D90006380207F002800F05F80207B842840F330
:103DA0006380A0F18501502900F28880DFE811F0DE
:103DB0005200B000B000B0009200B000B00094001B
:103DC000B000B000B000B000B000B000B000B00073
:103DD000B000B000B000B000B000B000B000B00063
:103DE000B000B000B000B0009600B000B000B0006D
:103DF000B000B000B000B000B000B000B000B00043
:103E00009800B000B000B000B000B000B000B0004A
:103E1000B000B000B000B000B000B000B000B00022
:103E2000B000B0009A00B000B0009C00B000B0003C
:103E3000B000B000B0009E00B000B000B000B00014
:103E4000B000B000B000B000B000B000B000B000F2
:103E5000A00000BF11204EE046F69B00C0F6000017
:103E600000F006FC012660E6411E362920D800201D
:103E7000DFE801F0414E4E1C4E4E4E4E4E4E4E4E21
:103E80004E4E4E4E4E4E4E4E4E4E4E4E4E4E4E2878
:103E90004E4E2A2C4E4E4E4E4E4E4E4E4E4E4E4E88
:103EA0004E4E4E4E4E4E4E4E4E4E2E00012022E0B5
:103EB00052281FD062282BD106201CE0EF2827D1E2
:103EC0000E2018E0022016E0032014E0042012E087
:103ED000052010E007200EE008200CE009200AE091
:103EE0000A2008E00B2006E00F2004E00C2002E08E
:103EF0000D2000E0102046F25C41C0F6000151F8B0
:103F0000301029B1A2685AB1A6A000F0B1FB0BE0B5
:103F100046F66810C0F60000194600F0A9FB03E061
:103F2000ACA01A4600F0A4FB662004F12009676AE1
:103F30008DF80E00002000900DF10E014846012280
:103F400000234FF0010AB8470646002873D1D4F881
:103F500024C00DF113080DF11207E56B4FF0050BAE
:103F60004846414601223B468DF813B0CDF800A0EB
:103F7000E04718B99DF81200C00719D095B1A06BA1
:103F8000002818BF8047666A4846414601223B46E2
:103F9000013D8DF813B0CDF800A0B0470028EDD159
:103FA000E8E700BF46F62510C0F6000000F060FB11
:103FB0000DF10E00411C9920676A8DF80F0000205A
:103FC00000904846012200234FF00108B8470646FA
:103FD00088BBD4F824C00DF1130B0DF11207E56B6B
:103FE0004FF0050A4846594601223B468DF813A07A
:103FF000CDF80080E04718B99DF81200C00721D025
:1040000095B1A06B002818BF8047666A484659469C
:1040100001223B46013D8DF813A0CDF80080B0474A
:104020000028EDD1E8E700BF46F62510C0F60000F5
:1040300000F01EFB042646F67900C0F6000000F0F2
:1040400017FB72E546F6793046F6B212C0F600006C
:10405000C0F6000240F25B3100F0DEFAA08A4107B0
:104060000ED5C0F3800120460022002701F0CAFAD5
:1040700078B1064646F64B00C0F600005AE500BF90
:10408000217BC22905D1617B202902D1A17B162980
:10409000E7D02069B0F1807F2ED90620676A8DF8BD
:1040A0001300002000900DF1130148460122002367
:1040B0000125B847064600287FF437AD0520676A1A
:1040C0008DF80E000DF10E010DF11203484601228C
:1040D0000095B847064600287FF427AD9DF81200EA
:1040E000800713D446F6CE10C0F6000000F0C0FAE8
:1040F0000226FFF71ABD00BF002646F6132084F8FB
:104100003560C0F600000127FFF714BDB720666ACE
:104110008DF81100002000900DF111014846012298
:1041200000230127B04768B1064646F6220046F64E
:104130002E41C0F60000C0F6000100F099FAFFF72A
:10414000F4BC00BF46F6793046F68F1246F62E4391
:10415000C0F60000C0F60002C0F600034FF4707114
:1041600084F8357000F058FA46F613200026C0F6A1
:104170000000FFF7DFBC00BF4572726F723A205239
:1041800065616420666C6173682064657669636547
:10419000204A45444543204944206572726F722E7F
:1041A00000000000466F756E642061202573202595
:1041B0007320666C61736820636869702E20536990
:1041C0007A6520697320256C642062797465732E8A
:1041D00000000000466F756E642061202573206624
:1041E0006C61736820636869702E2053697A65205A
:1041F000697320256C642062797465732E00000059
:104200002DE9F04F89B0A8B1044690F8340048B3C6
:1042100020690F461144934681423BD946F6D500AA
:10422000C0F6000000F024FA4FF00509484609B036
:10423000BDE8F08F46F6B43746F6793046F64A12B6
:1042400046F6F233C0F60007C0F60000C0F60002E2
:10425000C0F600034FF40471009700F0DDF900BFD1
:10426000FEE700BF46F6B43746F6793046F64A1206
:1042700046F60043C0F60007C0F60000C0F6000294
:10428000C0F6000340F21221009700F0C5F900BF0C
:10429000FEE700BF002F08BF584500F00581A16A66
:1042A00004F1200A09B150468847BBF1000F4FF0D6
:1042B000000800F009810DF1160004F11C0104F161
:1042C0001802013001260490CDE9012194F8440040
:1042D0004FF0000900280846114609D0204639460B
:1042E0005A4600F03BFF04EBC00000F15401583087
:1042F000096890F80080656A062003918DF81C001B
:10430000504607A901220023CDF80090A8470028B5
:1043100040F00C81656A05208DF81D0050460DF1B6
:104320001D0101220DF11B030096A847002840F053
:10433000FD809DF81B00800740F1FC8094F835C09B
:104340000426BCF1000F08BF0326BCF1000F8DF856
:10435000168035D06FF007004FF6FE7E4FF6FD79E0
:104360004FF6FC7800EBC60300220DF11601C1F6F2
:10437000FF7EC1F6FF79C1F6FF7800BF27FA03F58B
:104380008818457082EA0E053544ED0027FA05F5D8
:10439000857082EA09053544ED0027FA05F5C570F8
:1043A00082EA08053544ED00043227FA05F5042AAF
:1043B000A3F120030571E1D116F0030306D123E038
:1043C00000220DF1160116F003031DD0D043304436
:1043D000C000049D27FA00F0012BA85414D00498C3
:1043E000022B02EB0005A6EB02026FF00F0000EBC0
:1043F000C20027FA00F0687006D06FF0170000EBDB
:10440000C20027FA00F0A870656A05225046002312
:104410004FF00008BCF1000F08BF0422CDF8008067
:10442000A847002840F09280D4F824C00520E56B0E
:104430008DF81F0050460DF11F0101220DF11E03E2
:104440004FF00109CDF80090E04718B99DF81E0023
:10445000C00715D075B3A06B002818BF8047666AE7
:1044600005208DF82000504608A901220DF11E03F9
:10447000013DCDF80090B0470028EBD1E6E700BF42
:10448000039BB7FBF3F000FB137000B11B1ADDE9CF
:1044900001219B4518D901261F44BBEB030B4FF0AC
:1044A00000097FF413AF11E0204609B0BDE8F04FDA
:1044B000FFF7F6B846F62510C0F6000000F0D8F871
:1044C0004FF0040902E000BF4FF000090420676AC2
:1044D0008DF822000DF12201504601220023CDF873
:1044E00000800125B847B0B90520676A8DF8230020
:1044F0000DF123010DF12103504601220095B8472B
:1045000048B99DF82100800705D546F6F010C0F6A1
:10451000000000F0ADF8E16A00293FF487AE504694
:104520008847484609B0BDE8F08F00BF81464FF08C
:104530000008CBE746F6CE10C0F6000000F098F871
:104540004FF002094FF00008C0E700BF814602A00B
:1045500000F08EF8BAE700BF4572726F723A2046DB
:104560006C617368206572617365205350492063E4
:104570006F6D6D756E6963617465206572726F72BF
:104580002E00000040F21001C2F20001002818BF06
:10459000002108467047000010B546F67934C0F691
:1045A00000040CA21AA32046742100F035F846F24C
:1045B0008272C0F600022046752100F02DF840F20C
:1045C0001000C2F2000000214160BDE81040FFF77A
:1045D000A3BA00BF537461727420696E6974696113
:1045E0006C697A652053657269616C20466C6173F1
:1045F0006820556E6976657273616C2044726976C5
:104600006572285346554429205625732E00000014
:10461000312E312E3000000081B0B0B581B014468B
:104620000A46014605A800900DA0059301F0F2F896
:1046300040F23015009BC2F2000528464FF480710D
:10464000224601F0F7F847F2C020C0F600002946E4
:1046500001F0E0F801B0BDE8B04001B0704700BF24
:104660005B534655445D2825733A256C6429200028
:1046700083B0B0B581B0044605A80EC005A800906F
:104680000CA001F0C7F840F23015009BC2F2000503
:1046900028464FF48071224601F0CCF847F2C02042
:1046A000C0F60000294601F0B5F801B0BDE8B04001
:1046B00003B070475B534655445D00002DE9F04F51
:1046C00087B0A8B163B3044690F83400E0B3206922
:1046D0008A46114481424FD946F6D500C0F6000003
:1046E000FFF7C6FF0525284607B0BDE8F08F00BFDD
:1046F00046F6973746F6793046F64A1246F6F233D2
:10470000C0F60007C0F60000C0F60002C0F60003C5
:1047100040F29B110097FFF77FFF00BFFEE700BF4D
:1047200046F6973746F6793046F64A12C0F6000745
:10473000C0F60000C0F600026FA34FF4CE710097E0
:10474000FFF76AFFFEE700BF46F6973746F6793077
:1047500046F64A1246F60043C0F60007C0F60000CF
:10476000C0F60002C0F600034FF4CF710097FFF7C8
:1047700053FF00BFFEE700BFA16A04F12006CDE9A8
:10478000023209B130468847676A0DF1190BE56BB3
:104790004FF005084FF001090DF11A0130460122D2
:1047A0005B468DF81A800496CDF80090B8470DF15D
:1047B0001B0718B99DF81900C0071FD095B1A06B51
:1047C000002818BF8047666A0498394601225B4674
:1047D000013D8DF81B80CDF80090B0470028EDD149
:1047E000E8E700BF46F62510C0F60000FFF740FFDF
:1047F0000425E16A002978D175E700BF94F835E017
:1048000003200421BEF1000F8DF814000DF11408EF
:1048100008BF0321BEF1000F01F0030C32D06FF08E
:10482000070000EBC1054FF6FE794FF6FD7B4FF612
:10483000FC70029B0027C1F6FF79C1F6FF7BC1F631
:10484000FF7000BF2AFA05F608EB0702567087EAE8
:1048500009060E44F6002AFA06F6967087EA0B0659
:104860000E44F6002AFA06F6D67087EA00060E44D1
:10487000F60004372AFA06F6042FA5F12005167172
:10488000E0D101E0029B0027BCF1000F1DD0FA43EC
:104890000A44D20008F101002AFA02F2BCF1010F29
:1048A000C25512D0C91B6FF00F0202EBC10238448F
:1048B0002AFA02F2BCF1020F427006D06FF0170222
:1048C00002EBC1012AFA01F181700522BEF1000F4D
:1048D000676A08BF0422DDE9036005A90096B847AE
:1048E0000546E16A00293FF4FEAE04988847284651
:1048F00007B0BDE8F08F00BF646174610000000084
:104900002DE9F0438FB0E8B104460020676ACDE995
:10491000040084F844005A20CDF83700FF208DF8B9
:104920003B001FB304F1200508260DF1370104AB4D
:10493000284605220096B84780B30FF29470FFF71F
:1049400097FE5AE047F29D2046F64A1246F6F233A9
:104950000FF2F877C0F60000C0F60002C0F60003C0
:1049600051210097FFF758FEFEE700BF47F28E2760
:1049700047F29D2046F64A1246F63443C0F6000739
:10498000C0F60000C0F60002C0F6000340F25D1160
:104990000097FFF741FE00BFFEE700BF9DF8100043
:1049A00053281FD19DF8110046281BD19DF81200F5
:1049B000442817D19DF81300502813D19DF81530C5
:1049C0009DF81460022B84F8466084F8453021D3AA
:1049D00046F69160C0F6000019463246FFF748FEE1
:1049E0000BE000BF47F29D2046F69B42C0F6000058
:1049F000C0F600027A21FFF70FFE216846F6E74075
:104A0000C0F60000FFF734FE002528460FB0BDE8D1
:104A1000F08300BF9DF8167047F29D20C0F600009D
:104A20000FF2CC628421CDE90067FFF7F5FD00208D
:104A3000CDE904005A20676AC0F60000CDF83700BF
:104A4000FF208DF83B006FB108260DF1370104AB54
:104A5000284605220096B847E0B147F26100C0F64B
:104A600000006CE747F28E2747F29D2046F64A1277
:104A700046F63443C0F60007C0F60000C0F6000258
:104A8000C0F6000340F25D110097FFF7C5FD00BFBF
:104A9000FEE700BF9DF812109DF81120022907D3F0
:104AA00046F6C960C0F60000FFF7E2FDA5E700BFCB
:104AB0009DF81360082E07D847F2AE10C0F600002C
:104AC0003146FFF7D5FD98E79DF814809DF81590C5
:104AD0009DF8167048EA09209DF8103040EA074C0E
:104AE0008DE8460047F29D2046F6C152C0F6000010
:104AF000C0F60002AF21CDF80CC0FFF78DFD04A871
:104B000024212426FBF7A6FB8DF83870676A5A200B
:104B10008DF83700FF208DF839908DF83A808DF8A8
:104B20003B009FB10DF1370104AB284605220096EA
:104B3000B84718B346F65270C0F60000FFF798FD6C
:104B4000002528460FB0BDE8F08300BF47F28E274E
:104B500047F29D2046F64A1246F63443C0F6000757
:104B6000C0F60000C0F60002C0F6000340F25D117E
:104B70000097FFF751FD00BFFEE700BF47F29D25FC
:104B8000C0F6000547F24322C0F600022846CB21BA
:104B9000FFF742FD0FF298522846CC21FFF73CFD6B
:104BA0009DF811009DF812109DF8132047F26B2616
:104BB0009DF81070C0F60006CDE90021029028464D
:104BC000CF21324601230397FFF726FD9DF81500FC
:104BD0009DF816109DF817209DF81470CDE900215E
:104BE00002902846CF21324602230397FFF714FD97
:104BF0009DF819009DF81A109DF81B209DF818705B
:104C0000CDE9002102902846CF21324603230397A5
:104C1000FFF702FD9DF81D009DF81E109DF81F2056
:104C20009DF81C70CDE9002102902846CF21324624
:104C300004230397FFF7F0FC9DF821009DF8221054
:104C40009DF823209DF82070CDE900210290284690
:104C5000CF21324605230397FFF7DEFC9DF82500A0
:104C60009DF826109DF827209DF82470CDE900219D
:104C700002902846CF21324606230397FFF7CCFC4B
:104C80009DF829009DF82A109DF82B209DF828708A
:104C9000CDE9002102902846CF2132460723039711
:104CA000FFF7BAFC9DF82D009DF82E109DF82F20DF
:104CB0009DF82C70CDE9002102902846CF21324684
:104CC00008230397FFF7A8FC9DF831009DF83210E8
:104CD0009DF833209DF83070CDE9002102902846E0
:104CE000CF21324609230397FFF796FC9DF8100069
:104CF0009DF8113000F00300032884F84B3011D0E8
:104D000001282FD1012084F84A0047F29D2046F661
:104D10004352C0F60000C0F60002D721FFF77CFC2A
:104D20000EE000BF002084F84A0047F29D2046F6BE
:104D30001F72C0F60000C0F60002DB21FFF76CFC1A
:104D40009DF81000400713D40120A4F8480047F252
:104D50009D2046F6FB72C0F60000C0F60002E62178
:104D600013E000BF47F2F510C0F60000E6E600BF12
:104D70004FF48070A4F8480047F29D2047F2970254
:104D8000C0F60000C0F60002EA21FFF745FC9DF8DE
:104D9000100000070CD4012084F84C0047F29D203D
:104DA00046F6CD72C0F60000C0F60002F5212CE0F8
:104DB000002084F84C0047F29D2046F68972C0F628
:104DC0000000C0F60002FA21FFF726FC9DF8100053
:104DD000C0060DD4502084F84D0047F29D2047F2C4
:104DE000C002C0F60000C0F600024FF480710CE073
:104DF000062084F84D0047F29D2047F23712C0F696
:104E00000000C0F6000240F20511FFF705FC9DF816
:104E10001200C0F34100022812D0012820D000283F
:104E200054D10120A4F84E0047F29D2047F23102F0
:104E3000C0F60000C0F6000240F20F111EE000BFF5
:104E40004FF48070A4F84E0047F29D2047F24902CB
:104E5000C0F60000C0F6000240F219110EE000BFDB
:104E600040F20110A4F84E0047F29D2047F21802CC
:104E7000C0F60000C0F600024FF48A71FFF7CCFBC9
:104E80009DF816209DF917009DF8153012049DF825
:104E9000141042EA006242EA0322002802EB0100F9
:104EA00004D4012101EBD00322E000BF20F0004038
:104EB000242819D346F64C600025C0F6000025656D
:104EC000FFF7D6FB28460FB0BDE8F08346F67A40E0
:104ED0000025C0F60000A4F84E50FFF7C9FB284695
:104EE0000FB0BDE8F08300BF0338012101FA00F3E1
:104EF00047F29D2047F22C22C0F60000C0F60002C7
:104F000040F231112365FFF787FB9DF82C00B8B103
:104F1000012505FA00F09DF82D706065830A47F2BF
:104F20009D2046F68552C0F60000C0F600024FF400
:104F30009C7184F858700097FFF76EFB01E000BF8A
:104F400000259DF82E00C0B1012101FA00F004EB0C
:104F5000C5019DF82F704865830A47F29D2046F6EB
:104F6000855281F85870C0F60000C0F600024FF478
:104F70009C710097FFF750FB01359DF83000C0B1E0
:104F8000012101FA00F004EBC5019DF8317048657C
:104F9000830A47F29D2046F6855281F85870C0F684
:104FA0000000C0F600024FF49C710097FFF734FB3D
:104FB00001359DF83200B8B1012101FA00F004EB8F
:104FC000C5019DF833704865830A47F29D2046F677
:104FD000855281F85870C0F60000C0F600024FF408
:104FE0009C710097FFF718FB626D3AB1E16D0029E3
:104FF00018BF8A4204D8084611460CE0E06D29E04B
:1050000094F8600094F8583084F8580010466165B0
:10501000E26584F86030626E62B191420AD994F818
:10502000683094F85870626584F85830616684F886
:10503000687000E00A46E16E002918BF8A4209D96B
:10504000616594F8701094F8583084F85810E2664E
:1050500084F8703040B1626E002A18BF904205D8C3
:10506000114602460DE000BF616E19E094F8681029
:1050700094F8603084F860100146E265606684F858
:105080006830E06E002818BF824209D9E06594F8C4
:10509000700094F8603084F86000E26684F8703044
:1050A00071B1E06E002818BF814209D9606694F89A
:1050B000700094F8682084F86800E16684F8702035
:1050C000012584F8445028460FB0BDE8F08300BFA6
:1050D0004572726F723A2043616E27742072656167
:1050E000642053464450206865616465722E000058
:1050F000436865636B20534644502068656164656E
:1051000072206973204F4B2E20546865207265769B
:10511000657273696F6E206973205625642E25644D
:105120002C204E504E2069732025642E0000000074
:105130004D53422D4C53422020332020202032203A
:10514000202020312020202030000000736675646C
:105150005F726561645F73666470000090F844304C
:1051600083B3D0F854C0B1FBFCF303FB1C133BBB6F
:10517000D0F86CC0ACF10103934207D2B1FBFCF351
:1051800003FB1C13002B04BF03207047D0F864C03E
:10519000ACF10103934207D2B1FBFCF303FB1C13F8
:1051A000002B04BF02207047C06D431E934207D2FC
:1051B000B1FBF0F202FB1010002804BF0120704781
:1051C0000020704780B582B047F29D2046F64A1213
:1051D0000FF2200CC0F60000C0F600020DA34FF441
:1051E000B771CDF800C0FFF717FA02B0BDE88040F4
:1051F000FEE700BF736675645F736664705F676522
:10520000745F7375697461626C655F657261736503
:1052100072000000666C6173682D3E736664702EC8
:10522000617661696C61626C65000000416809B17A
:105230000020704745F2397145F23172C0F6000125
:10524000C0F6000245F2357340F2840C416282627E
:1052500043F22D6142F2C072C0F60003C2F2000CAC
:10526000C0F60001C0F20902C362C0F830C0C0E954
:105270000E120020704700002DE9F04F87B0044661
:10528000808A99461546C2070F4607D1400711D4B8
:105290004FF0000A504607B0BDE8F08F204639466F
:1052A0002A464FF48073CDF80090FDF7E5FF07B074
:1052B000BDE8F08F94F8340080B12069E91981428B
:1052C00020D946F6D500C0F60000FFF7D1F94FF01F
:1052D000050A504607B0BDE8F08F00BF46F67930AA
:1052E00046F64A1246F60043C3A7C0F60000C0F6D1
:1052F0000002C0F6000340F2CD210097FFF78CF9C1
:10530000FEE700BFA16A04F1200809B140468847C2
:10531000F8070FD02046394601220123CDF800902E
:10532000FDF7AAFF8246002840F0288109F1010913
:105330000137013D0620D4F824C08DF81B00002061
:1053400000900DF11B014046012200234FF0010B9C
:10535000E0478246002840F011810520D4F824C09F
:105360000DF111068DF811000DF11A03404631467A
:105370000122CDF800B0E0478246002840F0FE80D0
:105380009DF81A00800709D446F6CE10C0F600003A
:10539000FFF76EF94FF0020AF0E000BFAD20022DDA
:1053A0008DF81100C0F0AF80701C03904FF0000B1F
:1053B0000120C0073AD094F835004FF0040A0028C5
:1053C00008BF4FF0030A0290B0B36FF007004FF62A
:1053D000FE7C4FF6FD7E4FF6FC7B00EBCA030022FD
:1053E000C1F6FF7CC1F6FF7EC1F6FF7B27FA03F012
:1053F000B118487082EA0C005044C00027FA00F04F
:10540000887082EA0E005044C00027FA00F0C8708D
:1054100082EA0B005044C000043227FA00F0042A4C
:10542000A3F120030871E1D107E000BFB9F8000043
:10543000ADF8120001202EE000221AF003031FD065
:10544000D0435044C000039927FA00F0012B885440
:1054500016D00398AAEB020102EB000C6FF00F00CC
:1054600000EBC10027FA00F0022B8CF8010007D0F6
:105470006FF0170000EBC10027FA00F08CF8020073
:105480000298B9F8001000284FF0050008BF04206A
:1054900031524FF0000BD4F824C040F002024046D5
:1054A00031460023CDF800B0E047002840F09C8052
:1054B000D4F83CA0D4F824C005208DF81B00404649
:1054C0000DF11B0101220DF11A0301260096E047A0
:1054D00018B99DF81A00C0070AD0BAF1000F45D0DC
:1054E000A06B002818BF8047AAF1010AE2E700BFBD
:1054F000023D023709F10209012D4FF000000DF1C4
:1055000011063FF656AF0420D4F824C08DF81A00D7
:10551000002000900DF11A014046012200230126CF
:10552000E047824650BB0520D4F824C08DF81B000C
:105530000DF11B010DF11903404601220096E047D1
:105540008246D8B99DF81900800747D44DB120464E
:10555000394601220123CDF80090FDF78DFE8246E9
:1055600060B94FF0000AE16A89BB93E646F6251060
:10557000C0F60000FFF77CF84FF0040A0420676AC9
:105580008DF81A00002000900DF11A01404601220A
:1055900000230125B847B0B90520676A8DF81B00C4
:1055A0000DF11B010DF11903404601220095B8478A
:1055B00048B99DF81900800705D546F6F010C0F6E9
:1055C0000000FFF755F8E16A00293FF463AE40465A
:1055D0008847504607B0BDE8F08F00BF46F6F01090
:1055E000C0F60000D4E600BF824646F6FB00C0F6D7
:1055F0000000FFF73DF8C1E76161695F7772697488
:10560000650000002DE9F04383B098B1914605464E
:1056100000F1200611B350206F6A8DF807000024B6
:105620000DF107013046012200230094B8470746D8
:1056300041E000BF46F6793046F64A1246F6F233AC
:1056400036A7C0F60000C0F60002C0F6000340F224
:105650000B410097FEF7E0FFFEE700BF06206F6AF0
:105660008DF80A00002000900DF10A013046012259
:1056700000234FF00108B8470746E0B905206F6ADC
:105680008DF80B000DF10B010DF1090330460122DD
:10569000CDF80080B847074668B99DF80900800733
:1056A00008D446F6CE10C0F60000FEF7E1FF022750
:1056B00001E000BF00277FB901206F6A8DF8070065
:1056C00000250DF107013046022200238DF80890D5
:1056D0000095B847074638B106A0FEF7C9FF38461F
:1056E00003B0BDE8F08300BF0027384603B0BDE833
:1056F000F08300BF4572726F723A20577269746509
:105700005F73746174757320726567697374657211
:10571000206661696C65642E000000007366756424
:105720005F77726974655F737461747573000000EC
:1057300072B6704762B670472DE9F04182B00769D2
:105740001C460D46164699B996B147F2E92747F22D
:10575000C52046F64A12C0F60007C0F60000C0F6A3
:10576000000226A341210097FEF756FFFEE700BF87
:10577000DDF82080B4B9B8F1000F13D047F2E92763
:1057800047F2C52046F64A12C0F60007C0F60000F0
:10579000C0F600021CA344210097FEF73DFF00BFA6
:1057A000FEE700BF786839890022FBF7E1F9386825
:1057B000B2B229464FF47A73FCF7D8F9B8F1000F6A
:1057C00005460BD038681FFA88F221464FF47A73E9
:1057D000FCF7D2F82843B0FA80F001E0B5FA85F082
:1057E0004409786839890122FBF7C2F90420002CAA
:1057F00018BF002002B0BDE8F08100BF7772697465
:10580000655F627566000000726561645F6275665F
:10581000000000000FB4054B10B503A9044A02981C
:1058200000F0F4F810BC5DF814FB0000F53100083E
:10583000000000207CB50C001D461646014601D034
:10584000601E00E00020CDE90010064B6A462946A4
:10585000304600F0DBF8002C02D0009A00211170D5
:105860007CBD00003B61000802E008C8121F08C1AF
:10587000002AFAD170477047002001E001C1121FD1
:10588000002AFBD1704700002DE9FF5F82B00021A4
:10589000DDE90430020DDDF840B0034318D044F6D2
:1058A0001050A2F2FF3242431514119801281FD064
:1058B000A5EB0B00401C5FEA000A4FF000064E4FBC
:1058C000DFF83891B046504615D5CAF1000413E010
:1058D000119801244AA3012801D16FEA0B01029813
:1058E000119AC0E90031C0E9024206B0BDE8F09F5C
:1058F000CBF10000DFE704460021404A491842EBA3
:105900000450CDE9001012E0E00707D032463B46D4
:1059100040464946FAF785FD8046894632463B4671
:1059200010461946FAF77DFD06460F466410002C16
:10593000EAD1DDE90401DDE90023BAF1000F06DA5E
:10594000FAF76FFD42464B46FAF76BFD05E0FAF7B2
:10595000DAFD42464B46FAF7D6FD04460E460022D3
:10596000284BFAF757FE03D84FF0FF30014607E007
:105970000022254B20463146FAF7ACFCFAF732FEFE
:10598000102409E0002C0ADB0A220023FAF718FC95
:10599000039B30321A55641E50EA0102F2D1641C96
:1059A000039AC4F111031444119A012A03D001226D
:1059B00008430DD10AE0084304D000204FF0110B3A
:1059C000119072E7A3EB0B056D1E0DE05B4504DD46
:1059D0004FF0000205F1010504E003DA4FF0000288
:1059E000A5F10105002AECD002981199C0E9023115
:1059F000C0E9004579E70000000014400000F03FD6
:105A0000300000000000F0430000E03F2DE9FF4FB0
:105A100095B09B468946064600250FE2252877D19A
:105A200000242746F84A0121059400E0044316F8B3
:105A3000013F203B01FA03F01042F7D130782A28C9
:105A400011D06FF02F033078A0F13002092A16D858
:105A5000059A44F0020402EB820203EB4202104476
:105A6000761C0590EFE759F8042B0592002A03DA1B
:105A7000504244F40054059044F00204761C3078FF
:105A80002E2816D116F8010F44F004042A280DD050
:105A90006FF02F023078A0F13003092B09D807EB03
:105AA000870302EB4303C718761CF3E759F8047B1E
:105AB000761C30786C280FD006DC4C2817D068286C
:105AC0000DD06A2814D104E0742810D07A280FD1A0
:105AD0000DE044F400140AE044F4801401E044F4BE
