:020000040800F2
:100000007010002029020008D7140008C912000847
:10001000D51400081F040008951500080000000012
:10002000000000000000000000000000DB140008D9
:100030002104000800000000D9140008DD140008A5
:10004000430200084302000843020008430200087C
:10005000430200084302000843020008430200086C
:10006000430200084302000843020008430200085C
:10007000430200084302000843020008430200084C
:10008000430200084302000843020008430200083C
:10009000430200084302000843020008430200082C
:1000A000430200084302000843020008430200081C
:1000B000430200084302000843020008430200080C
:1000C00043020008430200084302000843020008FC
:1000D00043020008430200084302000843020008EC
:1000E00043020008430200084302000843020008DC
:1000F00043020008430200084302000843020008CC
:1001000043020008430200084302000843020008BB
:1001100043020008430200084302000843020008AB
:10012000430200084302000843020008430200089B
:10013000430200084302000843020008430200088B
:10014000430200084302000843020008430200087B
:10015000430200084302000843020008430200086B
:10016000430200084302000843020008430200085B
:100170004302000843020008430200080000000098
:10018000430200084302000800F002F800F03CF8C7
:100190000AA090E8000C82448344AAF10107DA45E2
:1001A00001D100F031F8AFF2090EBAE80F0013F0F8
:1001B000010F18BFFB1A43F0010318474C1400004D
:1001C0006C140000103A24BF78C878C1FAD85207DE
:1001D00024BF30C830C144BF04680C6070470000C1
:1001E0000023002400250026103A28BF78C1FBD840
:1001F000520728BF30C148BF0B6070471FB501F0E0
:10020000F5F91FBD10B510BD00F0CFF81146FFF78E
:10021000F5FF01F0D1F900F0EDF803B4FFF7F2FFBC
:1002200003BC00F0F5F80000094880470948004782
:10023000FEE7FEE7FEE7FEE7FEE7FEE7FEE7FEE796
:10024000FEE7FEE704480549054A064B70470000F3
:10025000851500088901000870000020701000203A
:10026000700800207008002053EA020C00F069803A
:100270002DE9F04B4FF00006002B1FBFB3FA83F5BA
:1002800003FA05F424FA05F65E4012BF1643B2FAEB
:1002900082F502FA05F4C5F120051EBF22FA05FC1D
:1002A00044EA0C04203556EA044C4FEA144418BFC3
:1002B000641C4FF000084FF00009904271EB030CF2
:1002C00039D3002919BFB1FA81F701FA07F6B0FA5C
:1002D00080F700FA07F6C7F120071EBF20FA07FCD7
:1002E00046EA0C062037B6FBF4FCA7EB0507103FE7
:1002F00007F01F0BCBF120060CFA0BFB2CFA06F6CD
:1003000044BFB3460026202FA4BF5E464FF0000B2B
:100310005BEA060C08BF4FF0010B19EB0B09ABFBB6
:10032000027C48EB0608C01B06FB02CC0BFB03CC8F
:1003300071EB0C01C1E70B46024641464846BDE859
:10034000F08B13B54FF000004FF00001AFF30080C9
:10035000BDE81C4070474FF0000200B513469446BC
:100360009646203922BFA0E80C50A0E80C50B1F10D
:100370002001BFF4F7AF090728BFA0E80C5048BF21
:100380000CC05DF804EB890028BF40F8042B08BFBF
:10039000704748BF20F8022B11F0804F18BF00F8BB
:1003A000012B7047704770477047754600F02CF876
:1003B000AE4605006946534620F00700854618B052
:1003C00020B5FFF73FFFBDE820404FF000064FF09B
:1003D00000074FF000084FF0000B21F00701AC467A
:1003E000ACE8C009ACE8C009ACE8C009ACE8C00999
:1003F0008D46704710B50446AFF300802046BDE837
:100400001040FFF70ABF00000048704710000020AE
:1004100001491820ABBEFEE7260002007047FEE748
:100420007047000070B5044600F0F2F90546601C04
:1004300002D004480078044400F0EAF9401BA042CE
:10044000FAD370BD000000202DE9F84FDFF888B224
:100450000D46044658451BD0A048844218D0A048F9
:10046000844215D09F48844212D09F4884420FD0C6
:100470009E4884420CD09E48844209D09D488442C4
:1004800006D09D48844203D0AC219CA001F093F893
:1004900028680104090C01D0000C03D0AD2197A0FD
:1004A00001F089F86868F8B101281DD011281BD027
:1004B000022819D0122817D0B0F5881F14D0B0F533
:1004C000041F11D0B0F5441F0ED0B0F5901F0BD013
:1004D000B0F5081F08D0B0F5481F05D0032803D099
:1004E000AE2186A001F067F800264FF0010A4FF018
:1004F000030900BF0AFA06F02F6880460740474507
:100500007ED1287900F00300012801D002281DD1F6
:10051000E86848B1012807D0022805D0032803D095
:10052000C02176A001F047F8A168720009FA02F034
:100530008143E86890400843A0606068297920EA18
:100540000800C1F30011B140014361602879C04344
:10055000800712D0A86838B1012805D0022803D03E
:10056000D12166A001F027F8E168720009FA02F0D3
:100570008143A86890400843E060287900F00300B8
:1005800002282ED12869F8B109281DD001281BD0D6
:10059000022819D0032817D0042815D0052813D015
:1005A000062811D007280FD008280DD00A280BD014
:1005B0000B2809D00C2807D00D2805D00F2803D010
:1005C000DE214EA000F0F7FFF00804EB8002106A75
:1005D0007107CB0E0F219940884329699940014347
:1005E00011622068720009FA02F18843297901F04A
:1005F0000301914001432160686810F4403F00E02E
:1006000063E062D04C48016841F4804101600068B9
:1006100026F0030100F48040009048480A18D2F800
:100620000808B1070B0F0F21994088435C4501D1A1
:10063000002123E029498C4201D101211EE02849F3
:100640008C4201D1022119E026498C4201D10321BB
:1006500014E025498C4201D104210FE023498C424A
:1006600001D105210AE022498C4201D1062105E091
:1006700020498C4201D1072100E008219940014323
:10068000C2F808182E4908686A68B843D20200D533
:10069000384308602A49091D08686A68B84392020D
:1006A00000D5384308602649091F08686A68B843BE
:1006B000920300D5384308602149083908686A6800
:1006C000B843D20300D538430860761C102EFFF4DF
:1006D00011AFBDE8F88F00000000024000040240A6
:1006E00000080240000C02400010024000140240CA
:1006F00000180240001C0240002002402E2E2F4411
:100700007269766572732F53544D3332463478785C
:100710005F48414C5F4472697665722F5372632F54
:1007200073746D3332663478785F68616C5F6770BC
:10073000696F2E6300000000443802400030014021
:10074000083C014070B50C00054604D14FF4DB7144
:1007500005A000F030FF696924EA0100214040EA69
:100760000140A86170BD00002E2E2F44726976658D
:1007700072732F53544D3332463478785F48414C6E
:100780005F4472697665722F5372632F73746D3391
:1007900032663478785F68616C5F6770696F2E636A
:1007A0000000000070B515460C00064604D140F26A
:1007B0009D1108A000F0FFFE45B1012D04D04FF4BB
:1007C000CF7104A000F0F7FEB46170BD2004B061E9
:1007D00070BD00002E2E2F447269766572732F5300
:1007E000544D3332463478785F48414C5F447269E7
:1007F0007665722F5372632F73746D33326634785B
:10080000785F68616C5F6770696F2E63000000003D
:10081000014880687047000000000020024881689D
:100820000278114481607047000000200B4810B529
:10083000016841F400710160016841F48061016068
:10084000016841F480710160032000F091F80F20ED
:1008500000F006F800F024F8002010BD003C024033
:1008600070B50D4D04464FF47A712878B1FBF0F065
:100870000A490968B1FBF0F000F012FD48B9102CEC
:1008800007D200222146501E00F022F800206C60A2
:1008900070BD012070BD0000000000200C00002091
:1008A0000A4808B5016841F480410160006800F41D
:1008B000804000900548001F016841F080510160B0
:1008C000006800F08050009008BD000044380240ED
:1008D00070B515460C460646102A03D3A82114A06D
:1008E00000F069FE102C03D3A92111A000F063FED3
:1008F0001E480068C0F30223C3F107022046042A01
:1009000000D90422191D072901D2002300E0DB1EB3
:10091000012404FA02F1491E014099409C40641EE2
:100920002C4021433046BDE8704000F034BE00004A
:100930002E2E2F447269766572732F53544D3332C5
:10094000463478785F48414C5F4472697665722F0F
:100950005372632F73746D3332663478785F6861D5
:100960006C5F636F727465782E6300000CED00E0BD
:1009700010B5044607280BD0062C09D0052C07D04B
:10098000042C05D0032C03D0902108A000F013FE06
:10099000154904F0070208684FF6FF03184040EAC3
:1009A0000220124A1043086010BD00002E2E2F4472
:1009B0007269766572732F53544D333246347878AA
:1009C0005F48414C5F4472697665722F5372632FA2
:1009D00073746D3332663478785F68616C5F636F0F
:1009E000727465782E6300000CED00E00000FA05DB
:1009F0002DE9F0470E4604007DD02068401E0E28E9
:100A000004D940F25A217AA000F0D5FD96B1012E0A
:100A100010D0022E0ED0032E0CD0042E0AD0052E9C
:100A200008D0062E06D0072E04D040F25B2170A01D
:100A300000F0C1FDDFF8F081D8F80000F7B200F057
:100A40000700B04207D288F80070D8F8000000F024
:100A50000700B0424FD12068744D810729D5400767
:100A600003D5286840F4E05028602078000703D5BB
:100A7000286840F460402860A068A0B1802812D0A7
:100A8000902810D0A0280ED0B0280CD0C0280AD0B2
:100A9000D02808D0E02806D0F02804D040F27E21EB
:100AA00053A000F088FD2868A16820F0F0000843FA
:100AB00028602078C00743D0DFF870916068A9F102
:100AC000080988B1012822D0022824D0032822D086
:100AD00040F2852146A000F06EFD6068012816D026
:100AE000022818D0032816D0D9F800008007002863
:100AF00033DA286800E030E0616820F00300084342
:100B00002860FFF785FE814641F2883A11E0D9F866
:100B100000008003EBE7D9F800008001E7E700BFA1
:100B2000FFF776FEA0EB0901514502D90320BDE88D
:100B3000F0872868616800F00C00B0EB810FEFD1FE
:100B4000D8F80010404601F00701B14207D90770FC
:100B5000006800F00700B04201D00120E7E72078EC
:100B60004FF4805640074FF4A0574FF4C0584FF44D
:100B7000E05914D5E06860B1B0420AD0B84208D05C
:100B8000404506D0484504D040F2C32118A000F0EB
:100B900012FD2868E16820F4E050084328602078BE
:100BA000000715D5206960B1B0420AD0B84208D01C
:100BB000404506D0484504D040F2CA210CA000F0C0
:100BC000FAFC2868216920F4604040EAC1002860EE
:100BD00000F034F82968164AC1F30311515CC8408B
:100BE0001449086014480068FFF73AFE00209EE7A9
:100BF0002E2E2F447269766572732F53544D333203
:100C0000463478785F48414C5F4472697665722F4C
:100C10005372632F73746D3332663478785F686112
:100C20006C5F7263632E6300003C02400838024030
:100C3000F61500080C00002004000020154810B52F
:100C4000006810F00C02144813D04110042A0FD091
:100C5000082A0ED10F4C241F2268236802F03F029D
:100C60005B0207D52068C0F38810A0FB010106E0F5
:100C7000084610BD2168C1F38811A1FB00010023C3
:100C8000FFF7F2FA2168C1F30141491C4900B0FBAA
:100C9000F1F010BD083802400024F4002DE9F04FB7
:100CA00087B015460C46070006D0012F04D040F24D
:100CB0000B3140A000F07FFC85B1B5F1806F0DD005
:100CC000B5F1A06F0AD0B5F1C06F07D0B5F1E06FF4
:100CD00004D04FF4437137A000F06DFCDFF80CB185
:100CE000DFF8088100264FF002094FF0030AABF14C
:100CF000280B87B36CB1B4F1804F0AD0B4F1004F28
:100D000007D0B4F1404F04D04FF44A7129A000F04D
:100D100052FCD8F8000040F00400C8F80000D8F8F1
:100D20000000694600F0040005904FF40070009048
:100D3000CDE90196CDE903A62D48FFF785FBDBF849
:100D40000010584621F0784144EAC5021143016081
:100D500007B0BDE8F08FFFE76CB1B4F5001F0AD013
:100D6000B4F5800F07D0B4F5C00F04D04FF4447130
:100D700010A000F020FCD8F8000040F00100C8F8F6
:100D80000000D8F80000694600F0010005904FF41B
:100D900080700090CDE90196CDE903A61548FFF7D4
:100DA00053FBDBF80010584621F0EC612C43214343
:100DB000CDE700002E2E2F447269766572732F5393
:100DC000544D3332463478785F48414C5F44726901
:100DD0007665722F5372632F73746D333266347875
:100DE000785F68616C5F7263632E63003038024025
:100DF00000080240000002402DE9F84F04007DD0B9
:100E000020680F2803D9E621F7A000F0D4FB207852
:100E1000DFF80C94C007A9F1040555D060684FF4C1
:100E200080364FF4A02738B1B04205D0B84203D085
:100E3000EB21EDA000F0BFFBF948001D0168C1F3F4
:100E40008101012908D00068C0F3810002280AD17D
:100E5000D9F80000400206D52868800334D56068C0
:100E60000028CCD030E06068B04203D1286840F45C
:100E700080300CE0B842286803D140F4802028601C
:100E8000F4E720F480302860286820F4802028606F
:100E9000606860B1FFF7BCFC064604E0FFF7B8FCF1
:100EA000801B64287ED828688003F7D50CE0FFF704
:100EB000AFFC064605E000BFFFF7AAFC801B6428D4
:100EC000F0D828688003F7D42078DFF858838007AB
:100ED0004FF0000A56D5E06830B1012804D040F246
:100EE0001D11C1A000F067FB20691F2804D94FF431
:100EF0008F71BDA000F05FFBC94800E092E0001DCB
:100F0000016811F00C0F08D00068C0F381000228BE
:100F100010D1D9F8000040020CD42868800702D50F
:100F2000E06801287ED12868216920F0F80040EAB5
:100F3000C10017E0E068B8B10120C8F80000FFF771
:100F400067FC064605E000BFFFF762FC801B022835
:100F5000A8D828688007F7D5286820F0F80120690C
:100F600041EAC00028600DE0C8F800A0FFF750FC7F
:100F7000064604E0FFF74CFC801B022892D8286844
:100F80008007F7D4207800072ED5A54EA64F6069BC
:100F90007036D0B1012808D04FF4AF7192A000F0A4
:100FA0000AFB00E04BE1606978B101203860FFF78F
:100FB0002FFC074605E000BFFFF72AFCC01B0228F4
:100FC000C6D830688007F7D50EE0C7F800A0FFF755
:100FD0001FFC074605E000BFFFF71AFCC01B0228F4
:100FE000B6D830688007F7D42078400776D5A06857
:100FF000002740B1012806D0052804D04FF4C57160
:1010000079A000F0D8FADFF818B20BF13C0BDBF84E
:101010000000C0000DD4DBF8001041F08051CBF887
:10102000001000E038E1DBF80000012700F08050FC
:1010300000907E4E3068C00511D4306840F4807056
:101040003060FFF7E5FB009006E000BFFFF7E0FB34
:101050000099401A022891D83068C005F6D5704E24
:10106000A0686C3601280FD00528306810D020F019
:1010700001003060306820F004003060A068B8B132
:10108000FFF7C6FB00900FE0306840F00100F4E786
:1010900040F004003060F7E7FFF7BAFB0099411A0F
:1010A00041F2883081428BD830688007F4D50EE059
:1010B000FFF7AEFB009007E0FFF7AAFB0099411A8B
:1010C00041F2883081428BD830688007F4D42FB148
:1010D000DBF8001021F08051CBF80010A069002847
:1010E00076D0012809D0022807D040F2CD113EA0C9
:1010F00000F061FAA0690028F2D04948001D00689C
:10110000C0F381000228A0696DD0022805D0C8F87C
:1011100060A0FFF77DFB044694E0E06938B1B0F5CC
:10112000800F04D04FF4EB712FA000F044FA206A36
:10113000801E3D2804D940F2D7112BA000F03BFAC5
:10114000606A3238B0F5BF7F04D94FF4EC7126A045
:1011500000F031FAA06A02280AD0042808D0062834
:1011600006D0082804D040F2D9111FA000F023FABD
:10117000E06A801E0D2804D94FF4ED711AA000F02A
:101180001AFA4746C8F860A0FFF742FB064604E09B
:10119000FFF73EFB801B022851D828688001F7D456
:1011A000D4E907010843A16A214A490802EB014139
:1011B000626A41EA8211084394F82C1040EA016106
:1011C000C9F8001001203866FFF722FB044606E04C
:1011D00064E000BFFFF71CFB001B02282FD8286823
:1011E0008001F7D55AE031E02E2E2F4472697665E2
:1011F00072732F53544D3332463478785F48414CE4
:101200005F4472697665722F5372632F73746D3306
:1012100032663478785F68616C5F7263632E630056
:101220000438024000004742800E474200700040F0
:101230000000FFFFFFF7ECFA001B022802D9032091
:10124000BDE8F88F28688001F4D427E00128F7D0A2
:10125000D9F80000E26900F4800191421CD1226AB1
:1012600000F03F01914217D147F6C071626A014018
:10127000B1EB821F10D1A26A4FF0FF3300F440316E
:1012800003EB5202B1EB024F06D194F82C1000F0A0
:101290007060B0EB016F01D00120D1E70020CFE7F3
:1012A00010B5401EB0F1807F01D3012010BD4FF07A
:1012B000E02460610F21601700F06DF90020A0614B
:1012C00007202061002010BDFEE700002DE9F04F4F
:1012D00087B014216846FFF73EF87848002401687B
:1012E00041F010010160016801F0100105910168F1
:1012F00041F004010160016801F0040105910168F9
:1013000041F080010160016801F0800105910168F0
:1013100041F001010160016801F0010105910168DE
:1013200041F002010160016801F0020105910168CC
:1013300041F0080101600068012200F008000590FA
:1013400007215F48FFF72EFA4FF68C700325CDE991
:101350000005DFF87081694602944046FFF774F893
:10136000732000900226CDE901640D27CDE90347E3
:1013700069464046FFF768F84EF23800CDE90005AF
:10138000694602944E48FFF75FF801204FF00708C6
:10139000CDE90080CDE9020469464948FFF754F8D9
:1013A00048F2AF00CDE90005694602944648FFF7D0
:1013B0004BF850200090CDE90164CDE90347694620
:1013C0004148FFF741F840F63F40CDE90005694646
:1013D00002943E48FFF738F84FF47040CDE900061C
:1013E00002940520CDE9035069463848FFF72CF8F0
:1013F0004FF6FB70CDE90005DFF8D4B069460294E2
:101400005846FFF721F84FF0C00ACDF800A0CDE90B
:101410000164CDE9034769462948FFF715F84FF401
:10142000F850CDE9000602AA4FF00C0982E830021C
:1014300069462348FFF708F8F0010090CDE9016400
:101440000394694620480494FEF7FEFF6802CDE944
:10145000000602AA694682E830011B48FEF7F4FF45
:10146000E802CDE9000602940A20CDE9035069465E
:101470001548FEF7E9FF02AA4FF0040882E830029F
:10148000CDE9008669465846FEF7DEFFCDF800A09C
:10149000CDE90164CDE9034769460C48FEF7D4FF66
:1014A0002802009001AA122082E83101694607480B
:1014B000FEF7CAFF07B0BDE8F08F000030380240E9
:1014C00000080240001002400000024000040240F8
:1014D000000C0240FEE7FEE770477047FFF79EB939
:1014E00030B593B030216846FEF735FF14210CA8C3
:1014F000FEF731FF21480025016841F0805101606D
:10150000006800F0805011901D48016841F480414E
:1015100001600068022400F48040119003200090D4
:101520004FF480300190012003901020049080043B
:10153000CDE9064008AA0420A82182E813000B90F8
:101540006846FFF759FC08B172B6FEE70CA90F20F8
:1015500081E831004FF4A0500F904FF4805010906C
:1015600005210CA8FFF744FA08B172B6FEE7002285
:1015700011461046FFF792FB13B030BD40380240D1
:10158000007000400248016841F47001016070473A
:1015900088ED00E0FEE70907090E002804DB00F1F2
:1015A000E02080F80014704700F00F0000F1E02008
:1015B00080F8141D70477047FFF738F9FFF790FF68
:1015C000FFF784FE084C01212046FFF7BBF80221FB
:1015D0002046FFF7B7F804212046FFF7B3F8C820EC
:1015E000FEF720FFEFE70000000802404FF04070D8
:1015F000E1EE100A70470000000000000000010248
:10160000030406070809000028160008000000204F
:1016100010000000C4010008381600081000002067
:1016200060100000E0010008010000001000000050
:08163000000000000024F4009A
:040000050800018965
:00000001FF
